:100000000810002039010000C51C0000131E00006C
:10001000C51C0000C51C0000C51C0000C51C00005C
:10002000C51C0000C51C00009C260000C51C00006B
:10003000C51C00004C260000C51C0000C51C0000AB
:10004000C51C0000C51C0000C51C0000C51C00002C
:10005000C51C0000C51C0000C51C0000C51C00001C
:10006000C51C0000C51C0000C51C0000C51C00000C
:10007000C51C0000C51C0000C51C0000C51C0000FC
:10008000C51C0000C51C0000C51C0000C51C0000EC
:10009000C51C0000C51C0000C51C0000C51C0000DC
:1000A000C51C0000C51C0000C51C0000C51C0000CC
:1000B000C51C0000C51C0000C51C0000C51C0000BC
:1000C000C51C0000C51C0000C51C0000C51C0000AC
:1000D000C51C0000C51C0000C51C0000C51C00009C
:1000E000C51C0000C51C0000C51C0000C51C00008C
:1000F000C51C0000C51C0000C51C0000C51C00007C
:10010000C51C0000C51C0000C51C0000C51C00006B
:10011000C51C0000C51C0000C51C0000C51C00005B
:10012000C51C0000C51C0000C51C0000C51C00004B
:04013000C51C0000EA
:1001380008B50D4B83F30A880C4B09A1D1E90001DE
:10014800C3E9000100F090F800F06AFA00F07EF8C8
:1001580000F056F800F068F800F0E2F9AFF300801C
:10016800A5EDF5FEA5EDF5FE08000020081000201D
:100178000348044B834202D0034B03B1184770472E
:10018800341000203410002000000000064B0749FE
:10019800C91A891048BF0131491003D0044B0BB16B
:1001A80001481847704700BF341000203410002061
:1001B8000000000010B5064C237843B9FFF7D8FFBC
:1001C800044B13B10448AFF300800123237010BD22
:1001D80028100020000000004828000008B5054B42
:1001E8001BB105490548AFF30080BDE80840FFF79B
:1001F800CDBF00BF000000001010002048280000FC
:10020800064B0748DA1C121AC11E22F00302994253
:1002180088BF0022034902F0E9B900BF341000206A
:100228002C10002054280000064B0748DA1C121A2C
:10023800C11E22F00302994288BF0022002102F069
:10024800CDB900BF2C100020101000200348044A2C
:100258000449121A921001F032BD00BF34010000A7
:10026800340100002C100020044B054A9A60D3F892
:10027800882042F47002C3F88820704700ED00E03F
:1002880000000000F0B5421ED11C034685B018D806
:100298006E460D4C04F11007354620686168083435
:1002A80003C5BC422E46F7D104A90F3311F8014DFE
:1002B80012F8010F844204D19A42F7D1012005B007
:1002C800F0BD0020FBE700BF38260000F0B503684A
:1002D800044603F16043B3F5803F4FF000009FB040
:1002E80029D8826A636816699E4224D8B3F5002F1C
:1002F80021D8656B06F14003AB425ED8B5F5002FF7
:100308005BD82846FFF7BEFF002856D0284601F0E4
:1003180041FD80B16B6973B1022B0ED1AB69C4F199
:10032800040119444FF0FF32204600F015FE244B1B
:10033800C31A584258411FB0F0BD40F20463284622
:100348000293FFF79FFF08B90020F4E700235F6BD3
:100358003846FFF797FF0028F6D0A6F150039F42D2
:10036800F2D8284603A901F01CFD0028ECD0039D13
:10037800AE42E9D8AC42E7D8B5F5002FE4D804A8D6
:1003880001F00BFF21462A1B04A801F010FF04A866
:1003980001F00FFF00F06EFE044600F083FE2346D6
:1003A8000090294605F1200204A800F0E9FD02901A
:1003B8000298B0FA80F04009BDE70120BBE700BF12
:1003C800E320BBDE70B54FF0FF3290B005460C4617
:1003D80000F0C2FD1A4B98422ED11C22002101A820
:1003E80002F0FCF8174B29466846043C009302F0DB
:1003F800A0F82146684602F09CF8684602F0A2F888
:1004080001F068FC0646B8B940F2022000F07CF919
:100418001C22314609A802F0E1F80B4B294608A82E
:10042800089302F086F808A8214602F082F808A886
:1004380002F088F801F04EFC002010B070BD00BF3B
:10044800E320BBDE010005430100064330B5044646
:1004580091B01C22002101A802F0C0F8114B2146DE
:100468006846009302F065F8684602F06BF801F000
:1004780031FC054698B940F2022000F045F91C22EB
:10048800294609A802F0AAF8074B08A821460893AC
:1004980002F04FF808A802F055F801F01BFC002004
:1004A80011B030BD000002430000034310B58CB00A
:1004B8001C220446002105A802F090F80A4B01947A
:1004C800049301230293094B01A904A8039302F0A2
:1004D80026F804A802F036F801F0FCFBB0FA80F028
:1004E80040090CB010BD00BF000008430400002004
:1004F80038B50C46054680B179B100230B60074B2F
:10050800036001F094FF01301EBF2B6843F44043A1
:100518002B60236843F40053236038BD1424004043
:1005280013B501A801F06CFA9DF80530012B27D10D
:10053800334A936DDB0313D4536B23F4FF0323F483
:10054800FE4343F4BC1343F4A0635363136B23F4D7
:10055800704343F440431363136B43F4E063136342
:100568009DF8043063B94FF000531B68254B1B6896
:10057800254B1B68254B1B68254B1B68254B1B68A7
:10058800254AD2F8803043F00303C2F8803001F0E6
:100598002EFC00F0ABF808B900F090F801F0ADFEC1
:1005A800044658B900F0A2F808B100F097F840F2F4
:1005B800012000F0D3F84FF4017018E000F096F82D
:1005C80008B900F083F800F0ABF8012802D900F070
:1005D80075F8FEE700F0B0F8104B0193019B002B73
:1005E8000ADC40F205439C42E5D140F2032000F0CA
:1005F800B5F8002002B010BD019B013BEDE700BF3C
:1006080000C00040004000200080002000C0002002
:1006180000000120004001200080004000350C004F
:10062800012307B58DF806308DF807304FF04023C9
:10063800D3F894305A060FD500F0A4F8A0F202209F
:1006480080B2072808D8C923C340DB0742BF00236C
:100658008DF806308DF807304FF480435B6801331E
:1006680008D14FF4027000F04FF800238DF80630DF
:100678008DF807309DF8073063B14FF48040FFF7DD
:1006880025FE8DF806009DF806301BB94FF4027060
:1006980000F03AF89DF8063053B100F027F808B199
:1006A80000F01CF84FF48040034B986001F0A3FB66
:1006B80003B05DF804FB00BF00ED00E04CF23C32F3
:1006C800014B5A80704700BF000000204AF6C03234
:1006D800014B5A80704700BF000000204FF20F0204
:1006E800014B5A80704700BF000000204AF6C03016
:1006F800044B5B8823F00F039BB21B1A58425841E6
:10070800704700BF00000020044A08B51080FFF7BA
:10071800EDFF10B94FF20F03538008BD0000002011
:1007280008B5FFF7E3FF18B1024B588800F00F0037
:1007380008BD00BF0000002008B5FFF7D7FF48B18B
:10074800054A538803F00F010F2914BF013323F022
:100758000F03538008BD00BF0000002008B5FFF755
:10076800D3FFBFF34F8F0549054BCA6802F4E06217
:100778001343CB60BFF34F8F00BFFDE700ED00E0F0
:100788000400FA054FF20F01084B5A888A4201D13A
:10079800188870473AB91B8840F20220012B18BF0D
:1007A8004FF4007070474FF400707047000000204D
:1007B80030B5024600230C25054905FB03F46018F3
:1007C8000C59944203D001330C2BF6D1002030BDD4
:1007D800E4260000F0B50023082787B0CDE90133EF
:1007E80015463B46009704AA044601F0CFFB41F2A8
:1007F80003039842064623D194F8433053B13A464E
:10080800E06C04A901F0D3FC04AA3B461146A06C95
:1008180001F0B2FC059A049B6A6094F843202B60AF
:1008280052B9094A934207D0084A934204D0082291
:10083800E06C04A901F0BBFC6B68236500236365C9
:10084800304607B0F0BD00BFF70A0AF7FC0404FC05
:100858002DE9F04100254FF0FF370446884616463B
:1008680003F0200380F842301822FF21C0E9185510
:10087800A0F8405080F84350A0F8445080F8465003
:10088800C0F88870683001F0A9FE88222946C4E9BA
:100898001286C4F88070C4F8847004F1900001F0E6
:1008A8009DFE074BC4F82071C4E9463584F82451ED
:1008B80016B1304601F071FC0020BDE8F08100BFA0
:1008C800000101012DE9F04FA5B09946CDE91123AA
:1008D800002304460E464FF001082E9D13931399EA
:1008E80078E094F846300C2B70D8062B4BD908FAD0
:1008F80003F212F4286F40F00B8212F4885F40F084
:10090800B7810A2B66D1DFF8B4A3636D072B00F219
:1009180028814FF0080B382316AA2046CDE9018814
:10092800CDF800B011A901F031FB41F203030A90A0
:100938000A9A9A4200F03F810A9B5BE0A3F10E02FB
:10094800052A00F28F82DFE812F001030600F500A5
:1009580032023202FF020027636D0F2B00F28A80F9
:10096800102314AA009320464023CDE9018711A93A
:1009780001F00CFB41F203030890089A9A4200F038
:10098800CB80089B36E0013B052B27D8DFE813F026
:1009980074006E000600C001DC0078010127636D59
:1009A800072B00F2DE80082314AA00932046402378
:1009B800CDE9017711A901F0E9FA41F203030B909F
:1009C8000B9A9A4200F021810B9B13E0A3F10D02D0
:1009D800062AB3D9494584D3002065E014AA2046E5
:1009E80011A9FFF7F7FE41F203020590059B934218
:1009F80008D0059B049341F20303049A9A423FF4FA
:100A08006EAF50E0159A1499226500226265A94AD2
:100A1800914240F00581022284F84620EAE7082343
:100A280014AA009320464023CDE9018711A901F0BB
:100A3800ADFA41F203030690069A9A4201D0069B4A
:100A4800D8E7149B03F07F43B3F1407F05D013230D
:100A580084F8463041F20903CCE7159BD90706D53F
:100A680094F8423043F0010384F842300027636D64
:100A7800072BD4D9012300E1204614AA11A9FFF7B6
:100A8800A9FE41F203030790079F9F420FD0079FDB
:100A980041F203030497049A9A423FF420AF049B5F
:100AA8000BB10023F370049825B0BDE8F08F1498BB
:100AB800FFF77EFE28B9132341F2080784F8463071
:100AC800E6E7437994F824219A4205D9132341F2A1
:100AD8000E0784F84630DBE7026877498A4205D07A
:100AE8000289D20748BF013384F8243194F8423090
:100AF800D9070DD5028994F84330920706D53BB142
:100B0800132341F2010784F84630C1E7002BF7D0E0
:100B1800037984F84630BBE7D4F848A000F0DAFA45
:100B280080230221CDE9000315AA0123504601F0D4
:100B3800FEFA11E7226D0123A265002284F84330F2
:100B4800E26584F84630CAE600213C2215A81491D3
:100B5800012701F043FDD4E91432934204D884F804
:100B6800467041F2030345E7009314AA4023204648
:100B7800CDE9017711A901F009FA41F203030990BF
:100B8800099A9A4201D0099B34E70DF1500C06F1FD
:100B980008030DF1680E624603CA72451860596071
:100BA800944603F10803F6D110681860337843F0CF
:100BB80001033370CFE7337843F004033370179B96
:100BC800B36273785F071CD50020236DCDF850A061
:100BD800C4F8843094F84530606643F0020384F822
:100BE8004530EF686FB104222B6814A9B847606ECE
:100BF8002B685A46EF6816A90830B847636E103359
:100C080063660B2384F846307FE63378159A43F001
:100C180002033370149B7360236D083B73622AB11F
:100C2800132384F8463041F20103E3E6042384F8F1
:100C3800463094F84530626643F0010384F8453045
:100C4800ADE6042314AA009320464023CDE901779A
:100C580011A901F09BF941F203030C900C9A9A42F6
:100C680001D00C9BC6E6226D149B042A01D9236689
:100C78000127636D032BE4D9092384F8463070E714
:100C88000023636607235CE79F4251D89F4228BF31
:100C98001F46402314AA2046CDE90188009711A9D0
:100CA80001F074F941F203030D900D9A9A4210D0A5
:100CB8000D9B9FE6EB17A603F90707F9EB17A65E4E
:100CC800402F28BF40279F4228BF1F4627F0030711
:100CD800DFE794F846B0BBF1070F2FD0042FC7F118
:100CE800040A88BF4FF0000A14AB5246FF21D819F6
:100CF80001F074FCBBF1090FBA442DD12B465246C2
:100D0800204614A901F0C3F90D900D9B002BCFD1FB
:100D1800D4E914739F427FF6ADAEFF1ADDE91232B3
:100D28009B1A94F84020032F1344ADD9032BC7D83E
:100D3800204611A901F009F900235BE6D5F808A0BF
:100D4800BAF1000FCAD02B683A46606E14A9D04792
:100D5800636E3B446366DBE7BBF1040F1DD1737818
:100D68009807D5D5EB68002BD2D0626E042A0BD831
:100D78000AEB0203062B07D915AB9B1A1A68C4F8AD
:100D880084204FF0FF321A60EF682B685246606E7D
:100D980014A9B847636E5344DCE7BBF10B0FB7D116
:100DA80073785907B4D5EF68002FEED1B0E700216A
:100DB8008A6A496B1269503A91423FF634AF112B57
:100DC8000FD194F81831002B7FF454AE41F206038A
:100DD8000E930E9A9A4202D1132384F846300E9B42
:100DE80008E694F84430002B7FF444AECDE9013393
:100DF800402314AA0093204611A901F0C7F841F234
:100E080003030E900E9A9A42E9D1E06C01F0D1F9F1
:100E180094F81831A3B104F1B4030093E06C04F121
:100E280094031CAA14A900F0ABF80E900E9BA3B172
:100E38000023F370132384F8463041F20603D9E502
:100E4800D4F84CA000F016F9074600F02BF93B4601
:100E580000901CAA504614A9E5E70123F37084F812
:100E6800443007E600234FF00408CDE9013314AA03
:100E780040232046CDF8008011A901F087F841F2FF
:100E880003030F900F9A9A4202D00F9B04930AE62D
:100E9800D4F888202F4B9A4205D0132384F8463083
:100EA80041F20503F2E70123F37094F84530DA07BD
:100EB80007D5EF682FB1424640462B6804F18401FC
:100EC800B84794F845309B0707D5EF682FB104223F
:100ED8002B68104604F18401B847236E6BB36F6822
:100EE8005FB34FF0FF3304F180080422414610A895
:100EF800109301F063FB28B10422414648F2040034
:100F08002B68B84704F168090422494610A801F083
:100F180055FB90B100239B6A1422D3F8108004F18A
:100F28006C0108F10800D5E90037B847D5E9003762
:100F38000422494608EB0200B8470123B3700E2388
:100F480084F846300023A1E70023F37041F207003C
:100F5800AAE500BFE320BBDE30B501240025074B1E
:100F680001445C609D601A61DC60884201D1586A66
:100F780030BD10F8012B1A62F7E700BF0080084067
:100F88002DE9F04399B00E4615461C460746DDF894
:100F98008090002861D000295FD0002A5DD0002B06
:100FA80058D02F4B2F4AB9F1000F14BF98469046DE
:100FB8001C22002111A801F011FB2B4B414610A85F
:100FC800109301F0B6FA202110A801F0B2FA01221C
:100FD800264B019402920393CDF810900592069344
:100FE80054B1B9F1000F07D001A910A801F08DFA8A
:100FF80004A910A801F089FA079701271B4C07A933
:1010080010A80897099401F080FA0AA910A80A966E
:101018000B970C940D950E970F9401F076FA0DA985
:1010280010A801F072FA10A801F08CFA104B009386
:101038004FF098435A6CD202FCD55B6D40F20460C5
:1010480003F470230093009B002B08BF002019B005
:10105800BDE8F083DFF80C80AAE740F20160F6E70C
:101068001F2400801F24FC840000010620000020AB
:101078007856341200B599B020220021684601F054
:10108800ADFA40230021684608AA00F0C7FC20F00A
:1010980010000128024818BF002019B05DF804FBB1
:1010A8004CE3070000B599B020220021684601F002
:1010B80095FA40230021684608AA00F0AFFC20F00A
:1010C80010000128024818BF002019B05DF804FB81
:1010D8006CE307000048704786E207002DE9F347F4
:1010E8001446DDE90A920D461F4600284DD14CB33F
:1010F80013683F2B2AD8516851B32549002F14BFD4
:10110800B846884603F03F061B19136022BF536890
:1011180001335360FEB93F2C0ED9A3092A46009328
:1011280041463B46002000F083F824F03F031D446D
:1011380004F03F0434B100262246294609EB060094
:1011480001F054FA002002B0BDE8F087B846D9E7AC
:10115800DFF83C80D6E7C6F1400A5445ECD329466F
:10116800524609EB060001F041FA01232644009398
:101178004A463B4641460020A6F1400400F058F894
:101188003F2C5544D6D9B846C7E70248DBE700BF2D
:10119800B427000080AFFFFF2DE9F041174614681F
:1011A80086B01E46E3008DF80F3063098DF80E30C7
:1011B800630B8DF80D30630D8DF80C3053680546C0
:1011C800DA0002EB54728DF80B2004F03F045A0940
:1011D800372C8DF80A204FEA53324FEA53538DF8D3
:1011E8000920884694BFC4F13802C4F17802CDE9D9
:1011F80000178DF808300D4903460020FFF76EFFF1
:1012080008222B460020CDE900870DEB0201FFF7ED
:1012180065FF284605F1200350F8042B984246F84C
:10122800042BF9D1002006B0BDE8F0817427000036
:10123800F0B593B00E4617460446202200210AA8AE
:101248001D4601F0CBF901204FF0005201970290A2
:101258000392049605900692079508900992002C2F
:101268002FD1189C184BA40121460AA80A9301F013
:1012780060F9039B04A91C430394069B0AA843F046
:1012880020030693099B43F02003099301F03DF9DD
:1012980001A90AA801F039F907A90AA801F03FF93C
:1012A8000AA801F04FF94FF098435A6CD202FCD5C6
:1012B8005B6D13F4702F14BF6FF06F00002013B034
:1012C800F0BD6FF07100FAE7000401032DE9F04169
:1012D800A2B0502204460D460EA8002101F07EF966
:1012E8003422002101A801F079F901A800F0D6F90B
:1012F800049B012B11D8002320466A1E9D424FEA09
:1013080082024FF0FF0108BF1A4640F8043B01F083
:1013180065F9002022B0BDE8F081AB425DD300F052
:10132800E9FF059B0C220EA90646DF6801F044F888
:101338000028EFD1DFF8AC800E9B434515D1109AF9
:101348000EA9304601F038F84FF0FF3210990EA878
:10135800FFF702FE224B98422ED0FF212046AA001A
:1013680001F03CF940F20650D4E737440C223846E5
:101378000EA901F021F80028CCD10E9B434507D0D7
:10138800FF212046AA0001F029F940F20550C1E7E3
:101398000EA93846109A01F00FF8059B3046D96817
:1013A80001F047F80028B5D13046109A0EA901F08F
:1013B80019F80028C3D0ADE7109E11A9103EB60851
:1013C800AE4228BF2E46B7003A46204601F00EF935
:1013D800AA1BFF219200E01999E740F2045099E70F
:1013E800E320BBDE39528FE144222DE9F043A3B05C
:1013F8000C46814600210DEB020001F0EFF80123B5
:1014080050262E4A0021CDE90E2301A83422109639
:1014180001F0E4F801A800F041F9049BA34249D384
:10142800012B0AD8D9F8003040F204500133022BBE
:1014380038BF002023B0BDE8F08300F05BFF102C1C
:1014480028BF1024059B4FEA8408DF6842464946B6
:101458000744054611A801F0C9F8C4F110040EAB01
:1014680008F10C001844FF21A20001F0B7F84C2144
:101478004FF0FF320EA8FFF76FFDC043059B219088
:10148800D968384600F0D5FF0028D3D1324638460F
:101498000EA900F0A7FF0028CCD1059B2846D968E3
:1014A80000F0C7FF0028C5D1324628460EA900F033
:1014B80099FFBFE740F20450BCE700BF39528FE103
:1014C80031B10A4B5A68824205D80023C1E900337A
:1014D80040F201407047013053F8302003EBC0035D
:1014E8005B6800200A604B60704700BF3828000026
:1014F80070B40C4611461A460D4B5D68854210D9EA
:10150800013003EBC0056D68A618AE420DD8A542A0
:101518000BD3954209D353F83000204470BC00F037
:101528004BBF40F2014070BC704740F20240FAE7FE
:101538003828000030B5CA681B4B04469A420D464D
:10154800A3B019D100F050FCD4F82432174A013363
:1015580052F83330D4F82C221344984208D38033FD
:10156800984209D241F20D03C4F8303223B030BD9D
:1015780000F540409842F5D88023D4F82C1202AAEE
:10158800D4F82402FFF7B4FF80232146009502AA6D
:1015980004F12C00FFF796F9D4F82C32C4F8300285
:1015A8008033C4F82C32E1E7531D000038280000CE
:1015B80070B50D46002186B00DF1070302931C4B50
:1015C80004461646116028461C22CDE903338DF8DF
:1015D8000710059301F002F89DF8072032B9D4F8F6
:1015E80030321BB9D4E98A31994219D32378990743
:1015F80044BF61683160DB0709D504F1080304F1D1
:10160800240153F8040B8B4245F8040BF9D162B955
:10161800237840F20640002B18BF002006B070BDAA
:10162800204602A9FFF786FFD6E70020F6E700BFAD
:101638000723000070B40C4611461A460D4B5D682E
:10164800854210D9013003EBC0056D68A618AE427B
:101658000DD8A5420BD3954209D353F83000204446
:1016680070BC00F0BFBE40F2014070BC704740F251
:101678000240FAE738280000074B5A68824207D927
:10168800013003EBC002516853F8300000F0D1BEBE
:1016980040F20140704700BF3828000070B5054689
:1016A80088B0C0B14FF4403200236C46C0E9002333
:1016B8000A4B05F114061A785B680272C360684623
:1016C80000F06EF80FCC0FC694E80F0086E80F0004
:1016D80005F114032B6108B070BD00BF3828000065
:1016E80000B5ADF5137D4FF40D7205A900F033FE7A
:1016F80078B904238DF81530074BCDE90100039024
:1017080001A905A8049300F03AFE0DF5137D5DF8D4
:1017180004FB0020F9E700BF531D0000002300B5BB
:101728009B6AADF5137D9B688B4204D300200DF5B1
:10173800137D5DF804FB4FF40D7205A900F00BFE54
:101748000028F3D102238DF81530054BCDE90100AF
:10175800039001A905A8049300F011FEE7E700BF74
:10176800531D000000B5ADF5137D4FF40D7205A9AA
:1017780000F0F1FD78B901238DF81530074B019081
:10178800CDE90230049001A905A800F0F8FD0DF597
:10179800137D5DF804FB0020F9E700BF331D00004E
:1017A80070B504460646044D0FCD0FC495E80F00EA
:1017B80084E80F00304670BD18280000024BD86935
:1017C80000F00100704700BF00000340F0B5114A67
:1017D800114C124E00F00105E3695F0713D40DB9EF
:1017E800334213D103EA00078F4207D10B4A1A404C
:1017F800002A0CBF00206FF00100F0BD013AEBD1C8
:101808006FF00200F9E74FF0FF30F6E76FF00100E4
:10181800F3E700BF80969800000003400200010033
:1018280070B5134C6061E3695B071ED40E4656F829
:10183800043B8D18A361AE420BD104230021212063
:101848002361FFF7C3FF58B9BDE870402120FFF7B7
:10185800BDBF08210846FFF7B9FF10B10423236173
:1018680070BD56F8043BA361E5E74FF0FF30F7E79A
:101878000000034038B541F6713301220C4C0021B9
:10188800E569E3630B4B05F48035DA600223606198
:1018980021202361FFF79AFF10B92120FFF796FF57
:1018A8000122054BDA600DB10023E36338BD00BFA8
:1018B8000000034000100340002003402DE9F843D6
:1018C800154641F67132164B8946DF69DA63012203
:1018D800064603F58053DFF8508007F48037DA6056
:1018E80055B9284601220F4BDA601FB10022A3F533
:1018F8000053DA63BDE8F88306F5005404EA0804E7
:10190800A41BAC4228BF2C46494622463046FFF766
:1019180087FF0028E6D12644A1442D1BE0E700BF3D
:10192800000003400020034000E0FFFF2DE9F04FD6
:1019380001274FF4502530262A4CDFF8B4C0DFF8D1
:10194800B4E0CCF8047044F82050002441F6713516
:1019580006FB00E6F46534663467234CDFF898909C
:10196800D4F81C80E563E568DFF890A03D43E560A6
:1019780007FA00F04BB9E26818F4803F22F0010240
:10198800E26029D10020BDE8F08F01F5005505EA95
:1019980009056D1A9D4228BF1D466161D4F81CB027
:1019A800AF081BF0040F19D1013F3F0147F0605702
:1019B8007766B266C6F86CA0CCF82400DEF83470FE
:1019C8003842FBD0094F294478630427CCF8280013
:1019D8002A4427615B1BCDE7E363D3E74FF0FF3071
:1019E800D1E700BF0040044000000340002004404D
:1019F800001004400000044000E0FFFF180003400E
:101A0800054B5B69C3F38512827003F03F021B0B21
:101A180042700370704700BF00C007401FB50446FE
:101A280008B302B3402B1ED193071CD1C1B10129C1
:101A380019D14FF400710D4B01920B432360002321
:101A4800C4E90133E36101230293094B204601A94C
:101A5800039300F064FD204600F044FD04B010BD7F
:101A68004FF48071E7E72120F8E700BF010008FF85
:101A7800400000202DE9F041012905460E46904618
:101A88001F4692B04AD8046824F04003802B02D045
:101A9800B4F5807F45D11C2200210BA800F09EFDE3
:101AA800234A244B0121012E08BF13460A932B1DFC
:101AB8000193E408204B44F0005402910AA80394CF
:101AC800CDF81080059106930797089101A909930D
:101AD80000F01BFD04A90AA800F017FD07A90AA831
:101AE80000F01DFD29680AA8C90800F022FD102190
:101AF8000AA800F01EFD00F0F1FCA8B90AA800F041
:101B080021FD4FF098435A6CD202FCD55C6D00F071
:101B1800E7FC04F4702012B0BDE8F0816FF02000FB
:101B2800F9E76FF07100F6E74FF0FF30F3E700BF19
:101B38000001000400010104100000202DE9F04F0D
:101B4800074689469846164699B082B115683B689B
:101B580023F04002802A03D0B3F5807F40F0A680AE
:101B680000244C4505D306B1356000207BE01546BE
:101B7800EDE75DB1239B229A1B5D525D0135534011
:101B8800249A05F00F0513550134EAE7A9EB040A76
:101B9800BAF10F0F0BD8239B03EB040A249B1C44B8
:101BA800239B03EB090BDA4560D14C46D9E71C228D
:101BB800294611A800F012FD3E4B3A6810933B1DD0
:101BC80001930123D20842F00052029303923A4A49
:101BD800CDF8108005930692CDF81C8008930992E1
:101BE800239A249922442AF00F0A0A9221444AF09F
:101BF80000520B9310A80C920D9101A90E930F920D
:101C080000F083FC04A910A800F07FFC0AA910A822
:101C180000F07BFC0DA910A800F081FC07A910A812
:101C280000F07DFC396810A8C90800F082FC514614
:101C380010A800F07EFC00F051FC90B910A800F04C
:101C480081FC4FF098435A6CD202FCD5586D54442D
:101C580000F4702B00F044FCBBF1000F9BD05846F9
:101C680001E04FF0FF3019B0BDE8F08F55B1229A6E
:101C78001AF8013B525D0135534004F8013B05F069
:101C88000F0590E7424601213846229BFFF7F2FEF6
:101C98000028E8D108F1100212F8013D0133DBB247
:101CA8001370002BE3D19045F6D1E0E76FF01F00E9
:101CB800D9E700BF0303000410000020FEE710B5B9
:101CC8003AB1002350F8234041F8234001339A42A7
:101CD800F8D110BD4FF098435A6CD202FCD5586D1C
:101CE80000F470207047C0F30C032DE9F04105465D
:101CF8000F4616460BB900F0FAF805F5005424F41F
:101D0800FF5424F01F0405EB0608A04507D8324607
:101D180039462846BDE8F041022300F0EFB82046D6
:101D280000F0E5F804F50054EFE770B40025AD6A5B
:101D380003462E69864206D86C6913449C4202D336
:101D480070BCFFF7D0BF70BC704737B500F50043D3
:101D580010F5004F0D461446019319D2019BB3F5B7
:101D6800FC2F15D2019BC3F5FC23934210D338B93D
:101D7800836A5A69B2F5004F02D9186900F0B7F8BA
:101D880022462946019803B0BDE83040FFF7ABBFB3
:101D980003B030BD036913F0FE0F0CBF0120002013
:101DA800704738B504460D46FEF76CFA38B16369DA
:101DB800012B07D12046FFF7EDFF10B1A4690120E0
:101DC8002C6038BD0020FCE74FF0FF3313B5044604
:101DD80001A80193FEF76AFB20B1019BA3422CBF27
:101DE8000020012002B010BD4FF40040704700F001
:101DF800E1BA00F043BB03461846016881F308883E
:101E080081F3098840688746FEE74FF40170FEF7C2
:101E1800A5BCB1F50D7F10B504460FD34FF40D7274
:101E2800002100F0DBFB04F5DE7204F5AA7104F171
:101E38002C000023BDE81040FEF70ABD40F2052043
:101E480010BD13B50446009101462C30FEF73AFD4B
:101E5800C4F8300218B141F20703984204D1A378BC
:101E680023B1E07800F2022002B010BD40F2012058
:101E7800FAE72DE9F04387B00DF1080904460E464C
:101E880017460021102248461D46DDF8388000F02C
:101E9800A5FB00211C22C8F80010284600F09EFB74
:101EA80032463B462146CDF8009004F12C00FEF75F
:101EB80009FD23789A0744BF6268C8F80020DB0749
:101EC80009D504F1080304F1240253F8041B9342D2
:101ED80045F8041BF9D1237840F20640002B18BFBF
:101EE800002007B0BDE8F0834FF40D70704708B5C7
:101EF800FFF7C0FCB0FA80F0400908BD072B10B509
:101F0800044618460FD862B142EA04039B070AD177
:101F180013460A462146FFF709FDB0FA80F040094A
:101F280010BD0120FCE70020FAE7134610B542B1C6
:101F380003439B0707D1FFF7C1FCB0FA80F04009C3
:101F480010BD0120FCE70020FAE770B5D1E9015285
:101F5800AA4205D290F840302B449B1A402B10D946
:101F6800002012E00A6890F84040D65C90F84120C2
:101F78000133224402F03F02013486548B6080F81A
:101F880040408B689D42EDD8012070BD2DE9F84393
:101F980090F840C017469E46D1E90123089DD21A01
:101FA8006244954204460E469DF824909DF8288088
:101FB8000AD9FFF7CAFF002867D1132341F20200AC
:101FC80084F84630BDE8F883754555D8002394F861
:101FD80040200AB19D4235D1D6E90121914201D272
:101FE8009D4241D89D424DD129463846D4F8882093
:101FF800FEF7B2FFC4F88800B9F1000F04D02A46F2
:102008003946E06C00F0D3F894F84330B8F1000F8B
:1020180006D08BB12B463A463946A06C00F0ACF896
:1020280094F8433043B1E36DA26D2B449342E365CA
:1020380024BF002384F84330636D41F203002B442E
:102048006365BFE794F84120A25CFA5494F84120F4
:102058000133013202F03F0284F8412094F8402015
:10206800013A84F84020B2E73268525CFA54B26808
:1020780001330132B260AFE741F20100132384F863
:1020880046309FE741F20200F8E700209AE72DE981
:10209800F04799465B6804460F469046002B40D0AF
:1020A80011F0030340D19B6A006E1B6981181D1D46
:1020B800A9421BD31C33984218D2A842024638BF03
:1020C8002A46994294BFC2EB010AC2EB030A101ACE
:1020D8003E18C5F16800104431465246204400F0CD
:1020E80085FA5246FF21304600F078FA48F2040398
:1020F800226E9A420CD848F2070102EB0800884287
:1021080006D99B1AFA58C4F880204FF0FF32FA50CB
:10211800D9E9003542463946206EA847236E434424
:1021280023660020BDE8F08741F20200FAE72DE9B6
:10213800F04100F120080446404616461D460F4669
:1021480000F01DFADDE90612404600F01CFA0023F3
:1021580084F8587063643368C4F859307368C4F8F5
:102168005D30B368C4F861302B0C6DBA84F8653003
:10217800A4F86650BDE8F0811FB50C46194600F179
:102188004803CDE90142009300F1440200F15803ED
:102198002030FFF7D3FC04B010BD10B5044600F0A2
:1021A8000BF82046BDE81040002100F009B800F007
:1021B8000CB8014600F016B86822002100F00EBAEB
:1021C80003460020C3E90000704707B500F1280363
:1021D8000190009300F108030020FEF77FFF03B091
:1021E8005DF804FB02460B4600F128010830FEF7B3
:1021F800D3BF30B59FB034220021054601A800F0B6
:10220800EDF901A8FFF74AFA049C012C1ED92146D2
:102218000EA8FFF75BF818B140F2055398420ED1AB
:1022280000230EAA52F8041B481C0AD11EAA02EB6E
:10223800830321460EA843F8405CFFF7D5F81FB08A
:1022480030BDA94205D001339C42EBD140F2025087
:10225800F5E740F20350F2E710B5ADF50E7D4FF407
:102268000D72002001A900F076F840F20124002147
:1022780001A800F047F8A042F9D040F203239842A1
:1022880004D040F205400DF50E7D10BD9DF80430D8
:1022980059070DD49DF804309A071AD4DB07F0D5F6
:1022A80004998A98FFF75EFA0028EAD00020EAE746
:1022B8000B98FFF789FD0028ECD08A98FFF710FAF1
:1022C8000028E7D04FF40040FEF7C0F80028E1D11D
:1022D800D7E70022926A029992689142DED98A98D9
:1022E800FFF71CFA0028CCD00A994FF40040FEF7FB
:1022F80069F8C6E74FF488207047FFF7ADBF0122A1
:102308001A7070471FB50023CDE90033CDE90213D9
:10231800D0F83032044693B9D0E98A329A420ED2C4
:102328006946FFF707F9D4F8300270B141F20702A5
:1023380040F20123904208BF184604B010BDA378AC
:1023480033B1E07800F20220F7E740F20120F4E729
:1023580040F20220F1E737B50C4605461146204603
:10236800FFF757FD48B969462846FFF7A9F820B98D
:10237800019BC4F82452C4F8283203B030BD38B5E4
:1023880000F5DE7204460D46202300F5AA712C30B4
:10239800FEF75EFAD4F830321BB9D4E98A329A4291
:1023A80003D3A07800B1E07838BD29462046FFF76E
:1023B800C1F8EFE700207047B2F5002F10B51346BB
:1023C800044608460BD8B4F5002F08D82344B3F5C3
:1023D800002F04D8214600F009F9002010BD40F272
:1023E8000240FBE7B2F5002F10B506D8B0F5002F74
:1023F80003D88318B3F5002F0ED940F2024010BD60
:10240800C458013410D104339A42F9D88B0705D146
:102418000223FFF773FD03E00023F5E7FFF785FDCF
:102428000028EAD00020EAE740F20340E7E702206C
:10243800704738B541EA0003C3F30C030446D3B927
:10244800B1F5002F06D8B0F5002F03D80D18B5F553
:10245800002F02D940F2024038BD204604F500544E
:10246800FFF745FDAC4202D00028F6D1F2E700287C
:10247800F0D00020F0E740F20440EDE7002070477C
:10248800B0F5802F22D010D8B0F5003F20D007D863
:1024980018B3B0F5803F08BF482018BF0120704727
:1024A800B0F5403F08BF2C20F7E7B0F5302F11D02A
:1024B80007D8B0F5E02F0FD0B0F5202F08BF1020B7
:1024C800EBE7B0F57F0F08BF0620E6E74B20704723
:1024D8002A2070471120704721207047002070473C
:1024E8000020704708B570B100F02CF84FF0984301
:1024F8005A6CD202FCD5586D10F4702004D0BDE897
:102508000840FFF7BDBF212008BD436813B94160EB
:1025180070475B685A68012AFBD159607047836825
:1025280013B9816070475B685A68012AFBD159600A
:102538007047C369032B9FBF00EB83020133D1604F
:10254800C3617047C369042B14D84FF09842116CCB
:10255800C902FCD504339B0013650168103B116068
:102568004168116050F8081F11604FF09842034409
:10257800984200D1704750F8041F1160F8E72422F0
:10258800002100F02BB870B515460E462422002114
:10259800044600F023F825F04003802B02D0B5F55F
:1025A800807F08D12046314640F8045BEA0800F0F5
:1025B8001DF8002070BD6FF01F00FBE701390244D1
:1025C80010B5904201D1002005E0037811F8014FC1
:1025D800A34201D0181B10BD0130F2E702440346A4
:1025E800934200D1704703F8011BF9E70A44431EE0
:1025F800914200D1704710B511F8014B914203F890
:10260800014FF9D110BD00000000000000000000DB
:102618000000000000000000F8B500BFF8BC08BCCE
:102628009E467047F8B500BFF8BC08BC9E46704788
:10263800B814B6F1E0CFF3ADB7DD25C9FA79B71311
:102648000000000013B779FAC925DDB7ADF3CFE074
:10265800F1B614B801020000000000005C28000078
:10266800400000000000050200000000000000001B
:102678000000000000000000000000000000000052
:102688000000000000000000000000000000000042
:102698000000000007B0CD5E020000000000050247
:1026A800602800000040000000000800F00401005D
:1026B800F71D0000FB1D0000D50200001B1E0000D6
:1026C8004B1E0000D42700007B1E0000F11E0000F6
:1026D80000000000F9040000F11D0000EB17A6033C
:1026E8000201000003000000FA0606FA0F040000C9
:1026F80003000000F40A0AF40505000001000000C8
:10270800EB17A65E0A06000001000000F50909F5AE
:102718000307000001000000F60808F6060800009C
:1027280000000000FE0101FE080800000000000093
:10273800FD0303FD0C08000000000000F90707F97D
:102748001009000002000000F30B0BF3110A00004F
:1027580003000000F70A0AF7120B0000030000004C
:10276800FC0404FC0D0C00000300000080000000C5
:102778000000000000000000000000000000000051
:102788000000000000000000000000000000000041
:102798000000000000000000000000000000000031
:1027A8000000000000000000000000006A09E66761
:1027B800BB67AE853C6EF372A54FF53A510E527F5A
:1027C8009B05688C1F83D9AB5BE0CD190001000025
:1027D800A5160000C9140000F91400003D160000F9
:1027E80081160000F1130000D5120000FB21000043
:1027F8005F2300000D230000B9150000C517000075
:10280800C1230000ED2300003B2400003724000012
:10281800100203002800000028000000002000002B
:102828000000080000000000040000000000004054
:102838000100000001000000004004000000030047
:0C284800542800002C10002002000000AA
:08285400E5010000BD010000D8
:0400000300000139BF
:00000001FF
