:020000040800F2
:10600000001000208D290408E1FA030855FB03085D
:106010009729040859FB03085DFB03089729040826
:106020009729040897290408972904089729040840
:1060300061FB03087876000897290408972904086B
:10604000EFC801089729040897290408972904082C
:106050009729040897290408972904089729040810
:106060009729040809DC030807DC030897290408BA
:1060700097290408972904089729040897290408F0
:1060800097290408972904089729040897290408E0
:106090009729040839F30308972904089729040865
:1060A00097290408972904089729040897290408C0
:1060B00097290408F36203084B6A03081D6A030862
:1060C0001B6A0308FD630308496A03081F6A030883
:1060D000236A0308216A0308B96A0308856A03086A
:1060E000972904089729040899CA010897290408E0
:1060F000EDDA03089729040897290408972904086A
:10610000972904089729040897290408972904085F
:10611000972904089729040897290408972904084F
:10612000972904089729040897290408972904083F
:10613000972904089729040897290408972904082F
:10614000972904089729040897290408A1AD030892
:10615000B1BA030897290408C5270408C927040809
:1061600097290408972904089729040897290408FF
:10617000401E00D0FCE77047000000000000F03F28
:106180000000000000002440000000000000594012
:106190000000000000408F40000000000088C34065
:1061A00000000000006AF8400000000080842E41DA
:1061B00000000000D01263410000000084D7974126
:1061C0000000000065CDCD41537563636573736650
:1061D000756C6C79206D69677261746564202564E3
:1061E000206B65797320746F205053412E0A000094
:1061F0004661696C656420746F206D6967726174B3
:1062000065202564206B6579732028776869636849
:10621000206D617920616C736F20626520696E76F4
:10622000616C6964292E0A0002010A0006000A0056
:1062300026002A000080000000200000496E6974DA
:106240003A2064656661756C7420434341206D6F2C
:1062500064652073657420746F2025643A2030785B
:106260002558000001FF010023E1010075E4010051
:1062700063E2010063E5010062E1010079EB0100E6
:1062800064EE010024E1010025E1010026E10100A6
:1062900027E1010028E1010029E101002AE10100D4
:1062A00000000100800001000001010080010100E8
:1062B000000201008002010020E201000003010051
:1062C00000050100800501000006010080060100B4
:1062D0000007010001E5010002E5010058E20100AC
:1062E0008003010080040100000401008007010018
:1062F0000008010080080100000100010100000009
:10630000000000000000000000000000000100008C
:10631000000000000000000000000000000000007D
:10632000000000000000000000000000000000016C
:106330000101010101000101010101010000000151
:106340000101010101000000020411040402111006
:106350001A080A021801081110111A080A04020D7D
:106360000B195C01102812340430040B01000000EA
:10637000010101010101010101010101010101000E
:106380000000000000010020200C00200101010598
:1063900000000000000000000000000000000000FD
:1063A00000000000000000000000000000000000ED
:1063B00000000000000000000000000000000000DD
:1063C000000000000000000000000000FFFFFF00D0
:1063D00000000000000000000000000000000000BD
:1063E00000000000000000000000000000000000AD
:1063F000000000000000000000000000FFFF00009F
:10640000FFFFFFFFFFFFFFFFFFFF0000FF00000097
:10641000000000000000000000000000000000007C
:1064200080000000FFFFFFFFFFFFFFFF00000000F4
:10643000000000000000000000000000000000005C
:10644000000000000000000000000000000000004C
:10645000000000000000000000000000000000003C
:10646000000000000000000000000000000000002C
:10647000000000000000000000000000000000001C
:106480000000000000000000FFFFFFFFFFFFFFFF14
:10649000FFFF0000000000000000000000000000FE
:1064A00000000000000000000000000000000000EC
:1064B00000000000000000000000000000000000DC
:1064C00000000000000000000000000000000000CC
:1064D00000000000000000000000000000000000BC
:1064E00000000000000000000000000000000000AC
:1064F000000000000000000000000000000000009C
:10650000000000000000000000000000000000008B
:10651000000000000000000000000000000000007B
:10652000000000000000000000000000010000006A
:10653000000000000000000000000000000000005B
:10654000000000000000000000000000000000004B
:10655000000000000000000000000000000000003B
:1065600000000000FFFFFFFFFFFFFFFFFFFFFFFF37
:10657000FFFFFFFFFF000000FF000000FFFFFFFF25
:10658000FFFFFFFFFFFFFFFFFFFFFFFFFFFFFFFF1B
:10659000FFFFFFFFFFFFFFFFFFFFFFFFFFFFFFFF0B
:1065A000FFFFFFFFFFFFFFFFFFFFFFFF00000000F7
:1065B000FF00FFFFFFFFFFFFFFFFFFFFFFFFFFFFEA
:1065C000FFFFFFFFFFFFFFFFFFFFFFFFFFFFFFFFDB
:1065D000FFFFFFFFFFFFFFFFFFFF0000FF00FF00C7
:1065E00000000000000000000000000000000000AB
:1065F000D0290408986300089C630008B063000871
:10660000B4630008D2290408B8630008CC6300080A
:10661000DC630008F863000800640008D42904085B
:106620000C640008292A0408246400082C6400086B
:106630004064000850640008646400088064000836
:106640008864000894640008D62904089864000847
:10665000A8640008B4640008D06400082A2A04086A
:106660002C6500083C650008646500087865000832
:10667000AC650008B0650008E0650008E465000846
:106680002B2A040800CA9A3B00E1F5058096980081
:1066900040420F00A086010010270000E803000020
:1066A000640000000A0000004941434356494F4C32
:1066B0003A20617474656D7074656420696E7374DA
:1066C00072756374696F6E206665746368206672A4
:1066D0006F6D2061206E6F2D657865637574652020
:1066E00061646472657373004441434356494F4C7F
:1066F0003A20617474656D70746564206C6F6164B8
:10670000206F722073746F726520617420616E2037
:10671000696C6C6567616C20616464726573730099
:106720004D554E53544B4552523A20756E73746119
:10673000636B2066726F6D20657863657074696F36
:106740006E2072657475726E206361757365642066
:106750006163636573732076696F6C6174696F6ED2
:10676000000000004D53544B4552523A207374615F
:10677000636B696E672066726F6D20657863657004
:1067800074696F6E2063617573656420616363650E
:1067900073732076696F6C6174696F6E000000001E
:1067A0004D4D415256414C49443A204D4D415220A5
:1067B000636F6E7461696E732076616C69642066C4
:1067C00061756C742061646472657373000000000D
:1067D000494255534552523A20696E73747275633B
:1067E00074696F6E2070726566657463682063619A
:1067F0007573656420627573206661756C74000042
:106800005052454349534552523A2070726563696C
:106810007365206461746120627573206661756CB4
:1068200074000000494D5052454349534552523A75
:1068300020696D707265636973652064617461209D
:10684000627573206661756C74000000554E535478
:106850004B4552523A20756E737461636B696E6773
:10686000206F6E20657863657074696F6E20726545
:106870007475726E20636175736564206461746100
:1068800020627573206661756C74000053544B452B
:1068900052523A20737461636B696E67206F6E2089
:1068A000657863657074696F6E20656E74727920A7
:1068B000636175736564206461746120627573201F
:1068C0006661756C740000004246415256414C4965
:1068D000443A204246415220636F6E7461696E7380
:1068E0002076616C6964206661756C7420616464F3
:1068F0007265737300000000554E444546494E537F
:1069000054523A20747269656420746F206578650A
:106910006375746520616E20756E646566696E6569
:106920006420696E737472756374696F6E00000021
:10693000494E5653544154453A20696E76616C690C
:10694000642045505352202D20652E672E2C207434
:106950007269656420746F2073776974636820744A
:106960006F2041524D206D6F64650000494E5650B6
:10697000433A20657863657074696F6E2072657440
:1069800075726E20696E74656772697479206368C8
:1069900065636B73206661696C6564004E4F43509C
:1069A0003A20617474656D7074656420746F20653D
:1069B000786563757465206120636F70726F6365BD
:1069C00073736F7220696E737472756374696F6E1E
:1069D00000000000554E414C49474E45443A206165
:1069E0007474656D7074656420616E20756E616C81
:1069F00069676E6564206D656D6F72792061636390
:106A00006573730044495642595A45524F3A2061C2
:106A10007474656D7074656420746F206578656347
:106A20007574652053444956206F72205544495669
:106A300020776974682064697669736F72206F6665
:106A400020300000A8660008E86600082C2A040828
:106A500020670008646700082C2A04082C2A040810
:106A6000A0670008D06700080068000824680008D4
:106A70004C6800088C6800082C2A04082C2A04089A
:106A8000C8680008F8680008306900086C690008E8
:106A90009C6900082C2A04082C2A04082C2A0408C3
:106AA0002C2A0408D4690008046A0008526573653A
:106AB000742063617573653A205761746368646F0D
:106AC0006720657870697265642C206E6F2072652E
:106AD0006C6961626C6520657874726120696E66AC
:106AE0006F726D6174696F6E0A00000052657365A4
:106AF000742063617573653A205761746368646FCD
:106B00006720636175676874207769746820656EB3
:106B100068616E63656420696E666F0A000000003C
:106B2000484653522E5645435454424C3A206572BF
:106B3000726F722072656164696E67207665637436
:106B40006F72207461626C6520666F7220616E20C6
:106B5000657863657074696F6E0A00004846535229
:106B60002E464F524345443A20636F6E66696775FF
:106B70007261626C65206661756C7420636F756C00
:106B800064206E6F742061637469766174650A00B5
:106B9000484653522E44454255474556543A20667E
:106BA00061756C742072656C6174656420746F200B
:106BB0006465627567202D20652E672E2C20657810
:106BC00065637574656420424B50540A00000000F0
:106BD00052657365742063617573653A204D656D08
:106BE0006F7279204D616E6167656D656E742046C8
:106BF00061756C740A0000004164647265737320EF
:106C00006973206F6620616E20696E73747275639C
:106C100074696F6E20616674657220627573206698
:106C200061756C74206F636375727265642C206E7D
:106C30006F74207468652063617573652E0A0000A7
:106C4000434653522E286E6F6E6529206C6F616427
:106C5000206F722073746F726520617420616E20E2
:106C6000696C6C6567616C20616464726573730A3A
:106C70000000000052657365742063617573653AA6
:106C8000204465627567204D6F6E69746F7220468F
:106C900061756C740A0000002573206D6F646520B7
:106CA0007573696E6720257320737461636B202888
:106CB00025346C7820746F2025346C78292C20536F
:106CC00050203D2025346C780A0000002575206294
:106CD00079746573207573656420282575252529C9
:106CE00020696E20257320737461636B20286F7593
:106CF00074206F6620257520627974657320746F27
:106D000074616C290A000000496E746572727570B6
:106D100074732061637469766520286F72207072C5
:106D2000652D656D7074656420616E642073746197
:106D3000636B6564293A0A005230005231005232C6
:106D400000523300523400523500523600523700A0
:106D50005238005239005231300052313100523134
:106D60003200523133284C5229004D5350005053B9
:106D7000500050430078505352004D5350207573CB
:106D8000656400505350207573656400435354414B
:106D9000434B20626F74746F6D004943535200532C
:106DA0004843535200494E545F414354495645307D
:106DB00000494E545F4143544956453100434653C0
:106DC0005200484653520044465352004D4D4152E2
:106DD0002F424641520041465352005265743000E2
:106DE000526574310052657432005265743300523A
:106DF0006574340052657435004461743000446138
:106E000074310000554E4B004649420042544C003C
:106E100045585400505752005744470020535700DC
:106E2000435253004653480042414400464C5400EC
:106E300042524F00554E4B00474F200042544C00E9
:106E4000474F3200474F3300474F3400474F35001C
:106E5000474F3600474F3700474F3800474F3900FC
:106E6000474F4100474F4200474F4300474F4400C0
:106E7000474F4500474F46004A4D5000424452009C
:106E80005550520042544D004D534D0046544C0055
:106E9000554E4B00474F200042544C0042414400A5
:106EA00046544C00465243004F54410044534C005A
:106EB0004241500055504700544D45004641550051
:106EC000545A4600554E4B0050494E00454D340033
:106ED000554E4B0048562000554E4B00455850002B
:106EE0004C574D00554E4B005242540044534C00F9
:106EF000454D3400554E4B0041535400554E4B0008
:106F000056465900494E4800554E4B004C434B00E5
:106F100058544C004F424600554E4B0048524400D6
:106F20004D454D00425553005553470044424700DC
:106F3000444D410056435400554E4B0055502000DF
:106F4000525020004150300041503100415020004B
:106F50004450200044454300346E0008386E000859
:106F6000906E0008C46E0008D06E0008D86E00084D
:106F7000E46E0008F46E0008FC6E0008086F00085C
:106F8000186F0008386F0008040008070A000000A6
:106F900064656275670000007675617274000000B8
:106FA00000800A5013000000B46F00081A000000AF
:106FB0001B0000001E000000090000000D00000082
:106FC0000B0000000C000000030000000000202067
:106FD00000000000030000003C3C3C0000000000FA
:106FE0000000000000000000193F0106041001002D
:106FF0000001010600102700000900000000000049
:1070000000000000ED170000ED170000F401000083
:1070100002000000C017530206140000802FA604CF
:1070200005380000A0080000000058090104070608
:10703000100A01040707C80A00040807800B0004AF
:107040000808380C000409086108000000008A08DC
:1070500000000000C709010404032C0B0104040410
:10706000920C010405040000100000006666660032
:1070700000000000E86F0008047000080000000035
:1070800000000000005A620280841E000420F60006
:10709000F1475002000000001070000800000000DE
:1070A000000000000000000061841E0000000000DD
:1070B00000000000000000000C40020001801400ED
:1070C0007F4000002040020000000000000000009F
:1070D0003040070000000000000000000000000039
:1070E000000000000000000000400000A0070003B6
:1070F00050400100000000005C4002000000000061
:1071000000000000A840010007000000BC4004008F
:10711000000000000000000000000000000000006F
:107120000841040000400000FF4C00000041000046
:10713000FF4D000028C00700EC80B30343754051A9
:10714000A00F00F800400000A8AA070000000000FF
:107150000000000054C00500513130000E000DE663
:107160002A000000080B0C0D0D00000070C0090083
:10717000BA10000000042000041880000B3C20011D
:10718000187C10022FFCE0067F00000000000000C9
:1071900000000000A8C00500BD4B721511A3180522
:1071A00010325476980A000000000000CCC00100A4
:1071B00001000000D4C0020001000A000100280004
:1071C0000800010104070000180001010000000090
:1071D000200001010884000040400301000000007D
:1071E00000000000100000005840020100000000F4
:1071F00000000003684006014902F0004108000059
:1072000002000000B0070800A70000000000000016
:10721000844002019BC34A74F0030F0094401001A4
:107220000101103050707F7F00000000000000005E
:10723000000000000000000000000000000000004E
:10724000000000000000000000000000000000003E
:10725000000000000000000000000000000000002E
:10726000E04001010002000010410201331E050050
:10727000000000001C4101010090C28B2441050167
:10728000FF0483078813C83AFF06660CFF048307D0
:107290008813FF033C410601F8545200000000002F
:1072A000B756351200000050803B0000000000007F
:1072B0005841010100000000644102010C0100007E
:1072C000E853FA00A441010100000000B0410201AE
:1072D0000000000000002000BC410301000000008D
:1072E00000003C0069900600D0410301000000004E
:1072F000D000000000000200E04116010000000084
:10730000DE635E36BF6F07006FEA1600E530CE0021
:10731000B2B9D90E4B8494045A1FA924DE635E3699
:10732000BF6F07006FEA1600E530CE00B2B9D90E84
:107330004B8494045A1FA9240000000000000000A0
:107340002C00000007EE75366018004000000000B9
:10735000000000004442030114000000000000008F
:107360000800000468420101000000009842020188
:107370003F000002FFFF00003C4304011F1F1F1FCE
:107380001F1F1F1B18151311100E0D0C5043020167
:107390000000000000000000108001010300000058
:1073A00038800201F1471000010000009C800301B9
:1073B000EB40020070780300D5C00000A8800111E6
:1073C000F0010000A88001310542CB01AC80011121
:1073D000F0010000AC80013105228D00B080020177
:1073E00000030002370000019C000102000C0004B1
:1073F000D8000302050040AA88010000C000000078
:10740000EC000112E00F0000EC0001320C205111E1
:10741000F00001022B0100001001011200FF0F001B
:1074200010010132020000315001011200C00100C0
:1074300050010132C100A2007401010269811B0CDC
:107440007801011200001C00780101321004E0CF25
:107450008001011279070000800101320200000062
:10746000840102020000000050000000FFFFFFFF47
:10747000FC4F01036870000820C0011000F80700ED
:1074800020C001301402280124C00110FF000000B8
:1074900024C001300043000044C001002E0200005F
:1074A00068C00200D1B60200C0060000D0C00100D2
:1074B000000000004C40030120F9130407006200A3
:1074C00038700000604002010068010F40B824409D
:1074D00080400101236300008C40020100800060B5
:1074E000BE0A000020410101590B00003841010192
:1074F00090200AF05C410101001E00006C410B016C
:1075000000140CC0141A21282E343B424950435514
:107510007698BA0C2373000001010000172128643B
:1075200014171A002004C87DA1203A09A8410101BE
:10753000290000003C4201010000000080420201DD
:107540000000000081000000A0420301FFFF0000D6
:10755000FF030000FFFF0000B44201010000000033
:107560003043030140002001A0000000085000014A
:107570004C43010145C1872FFFFFFFFF70740008D6
:107580004063598F404B4C000B000B001A00FF7FEB
:107590007C10002000000000F62904080000000014
:1075A000B8700008000000007C75000801000000B1
:1075B00000000000C0175302A07500086400D4FE4C
:1075C000FF006400160000005A00A8071439FEFFEF
:1075D0002400370201E1FFFF16002001111B00000B
:1075E0001000C000992600000B00860078280000DB
:1075F000080059008A250000060045007522000099
:10760000040012001214000004FF6BFF9FFFBBFF79
:10761000CCFFD8FFE0FFE6FFEAFFEEFFF1FFF3FF4C
:10762000F5FFF7FFF8FFF9FF0009005ABC750008E5
:107630000100000F087600080000000000000000B4
:107640000009005ABC7500080100000F0876000808
:10765000000000000000000021FE03082BFE0308CC
:107660002FFE030851FE0308AFFE030853FE030874
:1076700087FE03082C00000013B779FAC925DDB78F
:10768000ADF3CFE0F1B614B8010200000000000035
:10769000FFFFFFFF010000000100000000000000EC
:1076A00000000000000000000000000000000000DA
:1076B00000000000000000000000000000000000CA
:1076C00000000000000000000300000076636F6D02
:1076D000000000000700100008001A00060011005A
:1076E0000200110004000400010004000900080069
:1076F0000A000A000B000200000000007F48020898
:107700003D000208416D02086B320308F7E40108EE
:10771000D3B90008CBBA000863C9000823CA00081F
:107720005D6302084FA20208C55403085DD9020830
:10773000C1C40208A7B900082FC30108A199010814
:10774000E5700108B9360308A1E2010861BD01082E
:107750007F29040800000000432A04082F2A040897
:10776000000000003D2A0408202A04080000000050
:10777000212A0408232A040800000000252A0408FE
:10778000482A0408442A04083F2A0408222A040834
:1077900000000000262A0408422A0408282A0408B7
:1077A000312A0408242A0408272A040800000000BB
:1077B000010000000202020264000000000000005C
:1077C0006400000000000000000000000000000055
:1077D000000000000B0000000B000000FFFFFEFF98
:1077E0000000000000000000FEFF0000000000009C
:1077F0000000000000030001FDC9020875CC01086B
:10780000000000000000000000000000AB42030880
:1078100089CB020881460208EDC902080363020809
:107820009A180020A1180020AC1800209E180020F3
:107830009C1800209D1800209F180020BB180020D5
:107840003E580020B3180020B5180020AD180020C5
:1078500061580020D1180020B6180020645800207C
:1078600067580020DA180020A218002007580020CE
:10787000D0180020FFFFFFFFFFFFFFFFFFFFFFFF0C
:1078800000000000000000000000000000000000F8
:10789000000000000000000001100000DC290408C6
:1078A00002100000DE29040803020000E029040899
:1078B00005100000F229040807080000E829040860
:1078C00000020000DA29040804020000E22904088A
:1078D000095C0000EC2904080A140000F0290408DF
:1078E0000D020000EA2904080C080000D829040849
:1078F00001000000DF020308020000003303030858
:107900000300000089030308040000002F0403089B
:1079100005000000990403080000000000000000BA
:1079200000000000980100009021002006000A00DD
:1079300026002A0000800000A11203082513030876
:107940002D1303086D1303088313030829EF02089E
:107950002DEF020831EF020835EF020839EF020877
:10796000C1EE0208EBEE0208F3EE02080BEF02088C
:1079700005EF02088BF30208C7F30208E9F30208D7
:10798000FFF3020825F40208870008000000AA009F
:10799000C7BFBEBEBEB5B5B4B4ABABDCDCDBDBD2BF
:1079A000D2D1D1C8C8C8C7BFBEBEBEBDB5B5B4B4BC
:1079B000B4DCDBDBD2D2D2D11B1B16162E2D2D2A26
:1079C00029292925242420201F1B1B1B162E2D2D81
:1079D0002A2A29292524242020201F1B1B1B2D2D6A
:1079E000BEB5B5B4B4ABABABAAA2A1A1A1A0999905
:1079F0009898C7BFBEBEBDB5B5B4B4B4ABABABAA67
:107A0000AAA2A1A1A1999999000000000303030370
:107A10000302020202020202030302020202010145
:107A2000010101010000000003030303030202023D
:107A3000D3CACAC9C9C0C0F2F2F1F1E8E8E7E7DE8B
:107A4000DEDDDDD4D4D3D3CACAC9C9C9F2F2F1F19B
:107A5000E8E8E7E7DEDEDDDD22221D1D1D1D18182A
:107A60001813132C2C2C2727272222221D1D1D1D05
:107A7000181818182C2C2C272727272222221D1DE6
:107A800002030303030404040405050000000001CD
:107A900001010102020202030303030304040404BC
:107AA00004000000010101010707080803030305A2
:107AB0000404040505050606060707070803020275
:107AC0000404040304050506060606070707020268
:107AD0000203030303040404040505050505060663
:107AE0000606010202020203030303030404040462
:107AF00004050505050606060C0C0C0C0B0B0B0B00
:107B00000B0B0B0B0B0B0B0B0B0B0B0B0B0B0C0CC3
:107B10000C0C0C0C0C0C0C0C0B0B0B0B0B0B0B0BAD
:107B20000201010101000005050505040404040328
:107B3000030303020202020101010101050505051B
:107B400004040404030303030707080808080909D9
:107B5000090A0A05050506060607070708080808B2
:107B600009090909050505060606060707070808A5
:107B7000103E000095330000AD330000AD3300002F
:107B8000AD330000AD330000AD3300000000000055
:107B9000000000000000000000000000AD33000005
:107BA000AD330000AD330000C12A0000AD3300004A
:107BB000052C0000152C0000472D0000A92D000009
:107BC000312E0000BD2F00005D2E00006930000046
:107BD000B92E00000D2F0000812F0000E5310000BC
:107BE000E9320000D72B0000DF27000059230000F6
:107BF000AD33000099280000AD330000912900004A
:107C000059290000AD330000AD330000D929000030
:107C1000AD330000AD330000AD330000AD330000E4
:107C2000AD330000AD330000D5110000C1110000DC
:107C300000000000000400080214021803240000E1
:107C400049488068000200D4704780B580208002D7
:107C5000AB490860CF2000F05DFA01BDF8B5894856
:107C60000068894C802292032260884E31680905A1
:107C70001DD5110BA023034001D0216017E0024065
:107C80003FD18027824A1760824A1760084038D067
:107C9000354D287A400705D501207F49086000024C
:107CA0007E4908602878002801D0062801DB0020E2
:107CB000F2BD00F07BFB716889684E682978052960
:107CC00007D1B905A1606E60B668CC218901734AFD
:107CD000116000F074FB012E00DA0226BC20800542
:107CE0008849086094208005874908606848002119
:107CF000C94301647142416484490F6040210160BD
:107D0000D5E783480160FFF79BFF0120F2BD5D4886
:107D10000168890504D5C06E0004000F022801D057
:107D2000002070470120704738B58024584804600F
:107D300000F03CFB05007748006800F07DF9280062
:107D400000F03DFBFFF77CFF0748007A000705D5F0
:107D5000A0004D49086000F029FC31BD60036C496A
:107D60000860B248046031BD183E0000FEB5050051
:107D7000CC20800168494860012668480660FFF70A
:107D8000C6FF00287DD0664C2078002879D03102CB
:107D90000195052802D02A460A4072D1CC27BF019E
:107DA0005D4A1760924A126881231B02134001D07A
:107DB000032301E053075B0F022805D1022B5ED39A
:107DC000080136490860F7BD4D01032804D1022B94
:107DD00055D932480560F7BD042802D111404ED074
:107DE000F7BD05284BD10198002848D0C005C10F28
:107DF000684641700198C004C10F6846017000F0E8
:107E0000D5FA0290606869464978002903D006686F
:107E10008021204A11602C0485496A461278002A84
:107E20000CD0C2680B68D21A824B1B68234001D069
:107E3000066800E04668964200DD16006846407815
:107E40006A461278024308D008684242B01E824255
:107E500002DA7042886000E00026029800F0AFFA73
:107E60000198800501D59D4804600198054001D026
:107E70009B480460002E02D008480760F7BDFFF75A
:107E800053FFF7BD440002A8442002A8BC3E0000F6
:107E90000CC001A890E001A8C4D000A8145001A80B
:107EA00038B580248F48046001201C4908601C4DAF
:107EB0002878052802D060008B490860FFF727FF6B
:107EC000002812D013480068000A80214140A868A9
:107ED000000EC9B2814208D2454800684007400FF1
:107EE000022802D2FFF720FF31BD80480168C0227E
:107EF0000A4002D1C06F204001D00448046031BD67
:107F00001C1002A808E001A808D001A894D001A87C
:107F1000441002A818C000A8106001A8C4E000A87E
:107F2000183E0000F1B582B00F00A020384003D009
:107F3000802080006E4958E000F038FA0190FB2064
:107F400080010468F80202D5A0680069029000F080
:107F500098FB80210903606800F07CF926780020F6
:107F6000761C6178B14200D2002618217143651851
:107F70000C3529780829F3DA2670A56029785D4A3E
:107F80001170B90510D500F011FAFB2189010968BB
:107F90008968C968009100F012FAF80203D40098C9
:107FA0000321884300900098524988600127384097
:107FB00003D100F083FC01F0B7F8F904686900F020
:107FC00049F93C2000F0A6F8F0B200F0A3F8608870
:107FD000494901406180019800F0F1F938054449B0
:107FE0000860464807603802454908600298FEBDAF
:107FF000184001A810B543480068800501D4FE2050
:1080000010BDC02080034049086000F0CFF9FB217B
:10801000890109688A78D20702D589688C7800E0DE
:108020000C7800F0CCF9200010BD0000100002A870
:1080300048C001A84C0002A8FB21890109688A6890
:108040008B78DB0704D5927818235A438A180C32B0
:1080500090607047F1B582B02C4F3C680026200F2D
:10806000000702D1E00102902AE001F05DF800F083
:108070009DF9019080210903606800F0EBF82578F4
:108080006D1C6078A84200D20025E80020180C3052
:10809000009000680290802109030098406800F079
:1080A000D9F83D2000F036F8E8B200F033F825703A
:1080B0000098A060019800F082F902A801F090F801
:1080C00013480068800407D5F86901F0AAFD0299F9
:1080D0000818029000D502960298FEBD4C1002A826
:1080E0004C2002A894E001A8146001A814C001A8C3
:1080F000442002A8183E0000FEFF0000C0E000A8D7
:10810000106001A8440002A8441002A8C43E000068
:10811000FC0302A844490968002901D543490860C5
:108120007047F3B581B0424FB968424C4A004CD514
:108130000125090100D5212501003F4A1068566834
:1081400022689206920E94463A6893008022134069
:1081500062461343802252001A4300920A0023D041
:10816000890601D5012008E0F021014007D16946C8
:10817000097A0C220A4002D0022000F03FF82F4971
:10818000096809040AD53968090701D5022605E0FE
:108190003968490301D5002600E003264835009AD6
:1081A00027490968890003E0009A2549896B090974
:1081B0004023194011439A00002E02D01643266630
:1081C00008352166024322662566E06D4407640F88
:1081D00000F0D6F8A0070BD0052C09D0B868000431
:1081E00006D400F0E3F80221164A116000F0E7F827
:1081F00000F0CFF8002000F001F8F7BD0E490A6842
:10820000F0239A43000110430860C0B270478020F9
:10821000C0020D490968890701D10C4900E00C49E9
:108220000860704700000000500002A8884000A8C5
:10823000480002A8284000A8683F0000684101A843
:10824000184001A8D4D40350844000A8486000A876
:10825000485000A880B56D4A116001F00DFDFFF790
:10826000D6FF01BDFEB56A4D2878000604D5287FEB
:10827000002801D0182400E0462400F097F802906E
:108280006448C0684005C20DD52A01D2D52204E059
:10829000D1204000824200D90200100001005E4B54
:1082A00001932B6B5B011DD55C4B00931D1D5C4E38
:1082B000367806277E43AA530025019B1B7CEB40A2
:1082C000DB070CD5009B06266E439B199B888FB25B
:1082D000BB4200D2190086B29E4200D218006D1C2B
:1082E000022DEAD389B2091909044E4B0B40001B39
:1082F000C005C00D184347490860C02000064A4920
:1083000008604548017D00290CD04849D52A02D98A
:108310008023DB050B60D1235B009A4202D28023CD
:108320001B060B600021424B19604188002900D1D7
:108330000280029800F043F800F04CFDF7BD80B5D4
:108340003C483D4908603D48C1680902090A1922B4
:108350005143416005210160FFF784FF01BD80B5F5
:108360002B480178090604D5007F002801D0FFF7CB
:1083700079FF32480068C00301D5FFF773FF01BDE4
:108380008020C002214908602D4800684007FBD4C6
:1083900070478020C0022B490860704701E02A49DD
:1083A00008602A4909680140F9D1704728480068E7
:1083B0002021284A11601021274A1160704730217E
:1083C000014002D11020234908607047204800680E
:1083D00030210140102901D1012070470020704751
:1083E0001E4801210160C160704701201C490860DE
:1083F00070471C4800780621014001D100207047D9
:108400001948006802288041C00F7047441002A834
:10841000BC3E00007C400050743F00003C3E000029
:10842000383E00000000FF01A0600050A450005042
:1084300018E000E07F1A0601540002A810E000E0F6
:10844000440002A8442002A8282002A8280002A86C
:10845000600002A8602002A8601002A8789001A81D
:1084600084A001A8A03E00006C3F0000F8B55A4867
:1084700080214902C1610221584A51600021584AB5
:108480001160584A11800321544A11600221016091
:10849000202055490860802054490860CC20800184
:1084A000534908600124534804604D48806F009090
:1084B0000F26070B374050480068C505ED0D103DED
:1084C000C0202843C0B2FFF725FE4C480068C00515
:1084D0000AD5092F08D0FFF78CFF002802D04848A2
:1084E0000068804701F01CFA009806400096454855
:1084F00006680098032803D0022806D1032F38D03D
:1085000000F060FA0098032803D0062F31D1062D21
:108510002FD03D480068C00B204001D001F0D4FCB2
:108520003A480068000108D5052D06D101253848D4
:1085300004606005FFF732FF00E0002531003800DD
:1085400000F072FA0600002D06D000F001FC314860
:10855000046002203049086060052E4948658009A2
:108560002E490860FFF745FF002802D02C4800681C
:1085700080471A4821040162002F08D1022141607E
:10858000002017490861C020C00019494864300024
:10859000F2BD80B5FFF7F4FE22480078800602D4D1
:1085A000022021490860FFF7F4FE01BD02201F49A7
:1085B00008607047802000061D49096801400AD004
:1085C000C10D1C4A1278920701D51B4A00E01B4AD4
:1085D00011601B49086070472C1002A8282002A8CF
:1085E000380002A8483E000094E001A80CC001A891
:1085F000146001A8C4E000A804ED00E0B80002A8DF
:10860000583C0000B44000A800E200E0EC3E00004E
:10861000645000A8646000A82C4000A880E200E03C
:10862000543C0000BC3E0000081002A8082002A82C
:10863000440002A8683E0000FC1302A8FC2302A824
:10864000442002A859480068800700D4704770B5DC
:10865000574801210422BB4B0C02E025ED0086683F
:108660002E4002D01C601A6119610068054002D0DA
:108670001C609A60996070BDBF48012181600160F3
:10868000704710B5012087498A680240FCD1BB4A77
:10869000042313610C680440FCD193600002106055
:1086A00010BD814908680122104200D1704710B501
:1086B000E023DB000340FF24A41CA34204D3C04BEF
:1086C0001B689B0600D54868024001D000F044F9C1
:1086D00010BDFEB50700754E30683F2188437449D0
:1086E000097801433160FFF7DCFF724C724880214A
:1086F00049030825944A1268D20504D5656003220F
:10870000B262016006E0C822B26206228F4B1A6094
:108710008F4A116000978909C160009800688D4FE9
:10872000B968814201D2019100E001900199401A9B
:10873000009908600121009800F0CAFB060000982B
:1087400000680199401800990860FFF77BFF8C488A
:1087500000683860300013D1002060627A480168F8
:10876000C90501D4102161620068284001D025604C
:1087700000E0656095480068400001D568026062CD
:108780003000FEBD7F48017809060DD5007F002826
:108790000AD08B484168C90606D40068A021014070
:1087A000481E8041C00F704700207047500002A84B
:1087B000900102A880B5FFF7E5FF002803D0002153
:1087C000042001F01FFC01BDF1B581488149C8605A
:1087D000EE20C0040860804880490860FFF7D2FF9F
:1087E000002803D00021042001F00CFC7C4C8020E8
:1087F000C001206008277B488765012575484564CE
:108800001D2078498862784E9B204000B061072087
:1088100001F028FC0220734988624B490A68D2069D
:1088200003D57049714A0A6008E00F22096839408F
:1088300002D03100103101E0310014310A606C497E
:108840000968002900D4B761E32109013160C02122
:10885000C900684A1268F823DB01134001D1F162B4
:1088600001E05C4A9165216C294008D0616BC90721
:1088700005D461490968084001D101F0FBFB0020E3
:10888000C0435E490860606B054001D1FFF7DAFE26
:10889000009801F0D5FB606B8001FCD4606A5849F8
:1088A0000860F1BD940102A8783F00002C8001A867
:1088B0004A3E0000601102A8981002A870B5314825
:1088C0000178090606D5007F002803D00021052085
:1088D00001F098FB4B4801683F2291434A4A1278C5
:1088E0000A4302603E4849490122436B134001D1CB
:1088F0000A638A62972252000A6010220A60444A80
:10890000E3231B019366434BCB610021424B19606B
:1089100080235B00072408210B4D2E680E4005D0F4
:1089200094672C68234006D1916704E0D4672C68D3
:10893000234000D1D1670323136011630903016051
:1089400070BD0000881102A8FC0302A80C9001A8C9
:10895000982002A8A03F0000F02109012F4A1160D1
:1089600001402F4801602020A5490860A5490968F9
:108970000840A54908607047902102A8882102A8F4
:10898000340002A8BC3E0000A048A14982680A4009
:1089900002D1C268114001D00F490160124808217C
:1089A0009C4A13680B4000D081611178C90602D53A
:1089B0008C2109010160142097490860C9E1000079
:1089C000440002A80448054908607047EC0002A86A
:1089D000000FFF00242102A801200000706201A8FE
:1089E000100002A8C01002A8501102A8BD03000088
:1089F00028C000A8A88001A8203E0000B46000A8FC
:108A00009C3F00002C8001A84B3E0000682102A87A
:108A1000E82002A810100000C00002A8586001A8B9
:108A2000585001A870470000F8B586B005000C004A
:108A30007A480068400102D5200040240443784869
:108A4000C66AFFF7B3FC0590B00503D5754800680A
:108A5000FFF7F2FA0020009001227006C00F01908B
:108A60007148866800218160B82149006F4B196008
:108A70006308B82119400078F0230340402B02D14D
:108A80000800402101430D2D02D130000426064389
:108A9000700704D508001421014310208443A7481F
:108AA000036820003400DB0506D580235B009F4D62
:108AB0002B600B0001211943A14D019B002B11D10B
:108AC0000C230B40082B0DD00B00554EB66BF70650
:108AD00001D41027BB43B60601D42026B343B126E8
:108AE0001E4042D0130042D0AB6DDB04DB0C792B6F
:108AF00007D3802106224A4B1A604A02984B1A601B
:108B0000002281230B4035D00823019E002E00D186
:108B10002B62260008243443102398430423029335
:108B20001B05904E33605B088F4E336013001ED0E0
:108B3000029B062B24D3394BDE6CF60620D5314E32
:108B40003668360E00965B699BB22E4EF66B360683
:108B500003D01E0080235B0133432B611B122B616A
:108B6000764B1B68DE059ED40AE008222A62039039
:108B7000049132E08FA34E06F60E9B5D0293D5E77B
:108B800003900491029826490B6B1E4A12682E68C6
:108B90006F46BE8028261E400643980CC001304315
:108BA0001E001B0E3340102633400343900040222A
:108BB0001040184301AA9070486B000A01A9C870C0
:108BC000FFF718FA01A90871009848716748006812
:108BD000C8800198E8660298E8660598FFF7EFFB01
:108BE00008200399490601D55E49886060490860FC
:108BF000E1B20498C0B2FFF794FA039807B0F0BD51
:108C0000482002A8184001A8481002A8704201A8F4
:108C100000800080F84F0000703F0000084000A86E
:108C2000180002A81CC000A8683F0000B46000A89B
:108C3000F8B5504F504C0F25012650495048806BD5
:108C4000C00621D5012008704E4800684E490A68C8
:108C5000824204D289695118491C081A00E0101A8E
:108C6000616F401801285FDB01F05CFD474909682E
:108C7000090B0D40022D55D17105454A1160102197
:108C800039643F490E604DE03D48006CC00026D578
:108C900040480068E0218905014045D03B4C3E48F2
:108CA0000068C00504D42068000B28400228F5D0D5
:108CB0003A480668FFF77AFB3949F2B20A60320493
:108CC000120E0A603202120E0A60320E0A60FFF7BC
:108CD00076FB2068000B28400228DFD0F1BD314828
:108CE0000068002820D001220A7001F0A9F90028AC
:108CF0001AD101F017FD25490968090B0D40022D15
:108D000010D102212278D20705D5274A12680A40DD
:108D100001D01B4A1660CA031D4B1A60396000213E
:108D2000204A116001F002FDF1BD00001C2100AAE3
:108D3000802080041D490860704700001C0100AAC3
:108D4000540000AA802040041849086070470000C1
:108D500000BF17480168490701D0FF2141617047F2
:108D6000141100AA441002A84C5001A8448001A884
:108D7000845000A8082002A8683E00004D3E000074
:108D8000100002A81CC101A820C001A8B00002A8C0
:108D90001C1002A84C4001A8084000A8904000A860
:108DA000640000AA243E0000EC3E00003C2002A823
:108DB0000C4000A80301070603010706050106068B
:108DC000050106060302070603020706050206065A
:108DD000050206067047FF2807D0032805D2304950
:108DE0000978C140C807C00F7047002070470000D5
:108DF000F8B58020000200902A48038808202A49FC
:108E000008600A2201200124944000990C4327495C
:108E100029A5AD5C25438D60F025254E3560224D9A
:108E200028A6B65C022737432F6004262E601D4D0E
:108E3000204E3668064008D12E88F61AB6B2012EAA
:108E400003D88E6C3603F3D401E00220F2BD8D6CA2
:108E5000CE6C6D036D0BAE4200D20094521ED2D583
:108E60000822134B1A60009A8A60AB4A12685201BA
:108E700013D5AA4B5A78541C012525405D70140067
:108E800006256C431C190968A1800099E1801A70BD
:108E900003490B789040184308700020F2BD000091
:108EA000843F0000483E0000889001A8448001A84B
:108EB00088A001A8140002A8000000010102040813
:108EC00010202000505050404040403020202000D2
:108ED000F1B582B0924C93484068C00516D5606ADF
:108EE000E021C9000840884210D1AA48006E000461
:108EF000000FA9490A68D20601D5072804D00968DD
:108F0000C90603D40B2801D10020FEBDFFF7B4FB36
:108F1000A2484069400101D401251CE0A048826BB1
:108F200000207E49C3B206256B43CB189B8895B2BF
:108F3000AB4204D0401CC3B2022BF3D3FF20087015
:108F4000012596484069400105D50878FFF743FFA1
:108F5000002800D0002593485421405C000608D525
:108F60008E480078002804D08C484078002800D132
:108F70000125E06901906B480068E0618A4E029823
:108F80000068316D4718012F16DB00F0FEFD3060E0
:108F9000C001381A01280FDBFFF773FB00F0C4F89B
:108FA00002980068316D401801F04AF8010003D0C2
:108FB0000021029A116010E07C4FC020C000386090
:108FC0002068072832D005210840052808D02160F4
:108FD0000C2001F047F8010002D00199E161FEBDCB
:108FE000734EFF207A3070620420B062FFF749FBB5
:108FF00002203060E020C0046E4948608020800478
:10900000786002203860012001F02CF88020800078
:109010007062022001F026F88020C00070620820F3
:10902000B062022001F01EF80220B062624EE02021
:109030004000F061614F5B480078C00704D5802094
:109040000006386040083060042001F00BF86946E3
:1090500008706846007800284DD102205549086004
:1090600080027064C001706410204D4908600120C6
:10907000B0674C4E47480068400621D447484069D5
:10908000400113D525480078694648706846407805
:10909000FFF7A1FE002809D020486946497806223A
:1090A00051434018C0883E49086409E001203074EB
:1090B000FFF79EFE694608706846007800281AD1BE
:1090C0000120374908600020C867022000F0CAFF6D
:1090D0004020F861C030F8613078C00705D5C02065
:1090E000000638602E48006C7082022000F0BAFF43
:1090F0008120C0027864002D01D0FFF730F9E069CB
:10910000E0214903014001982D4A02400A43E261EF
:1091100068460078FEBD0000EC3E0000383E0000CE
:109120005C0102A8F80302A870B5FFF7A5FAFFF7E3
:10913000A8FA244C24480068C00509D5E06F000B4C
:109140000F210F220240072A23D001400B2920D0F3
:109150000225134805601D4E0820B062C0017062F0
:10916000012000F07FFF2802706235600620B062A7
:1091700017487062E0204000164908600D480560FD
:109180000021154A1160C021C900016020681349FF
:10919000086070BD500002A8B04301A8D83E00008E
:1091A0000C8001A8683E00008C3F0000981002A8C7
:1091B0005C1102A8982002A8109001A810A001A894
:1091C000FFFFE3FF340002A8FC0302A85C2102A811
:1091D000F96100002CA001A85C0102A8943F0000E6
:1091E00070B52249C022D200214B1B68F824E4014B
:1091F0001C4001D18A6101E01E4B1A601E4A802387
:109200005B001E4C25681D4003D008250D6003211E
:1092100001E0AC214900916421680B4001D10A2191
:109220001160060016488021490301608909C16068
:10923000144C6069AF21C90145183068854200D3DC
:109240000500401B306000213000FFF741FE31680F
:10925000491931600C490968216070BD8020000106
:109260000A49086000010A4908607047641102A8B1
:10927000AC8001A87C2102A80C8001A8FC0302A8F4
:10928000981002A8903F0000340002A8441002A8E1
:10929000685000A8F1B584B0C64800680190C6487F
:1092A000006BAF21C90140180499884205D2081A01
:1092B00000F0C6FE002800D04FE2C04D6868C0072D
:1092C00000D54AE20420BE49C8628003BD498862D5
:1092D000BD48406D0090A86B8407A40F1020032C9C
:1092E00002D0B749C86221E042038A62EB6B9B0659
:1092F00001D501205AE0009B1B060FD5EE6B02231F
:109300001E400BD1B14E05273760EF6B3840034349
:10931000336000203060A86B000A30600420C8620F
:10932000E86B002802D5A64882620024A86B40079B
:1093300005D5A86BC00080214900084003E09E4885
:109340008068C10701D5FFF707FB0121009808409D
:1093500008D0C348A2018018006AC004C00C401E97
:10936000C04A106000200022BF4B1E68360403D59F
:109370009B6F002B00D40122C0218900CE4B596580
:109380002102914B1B78DB0703D58A4B1B68DB0559
:1093900001D5002A02D0C022920000E00A00C74B8B
:1093A0001A60C0229200C44CA2655960296C9422B4
:1093B00092050A40140000D0012480273F02204378
:1093C000000638D0BE480078C021014040290ED1A7
:1093D000FFF7DFF87848C06D00906846FFF779F92D
:1093E000002800D0B9E10098FFF7EEF901E0FFF79F
:1093F000DDF820202860240600D1AEE1B14CA86B36
:10940000400708D578086F4988620220206000F084
:10941000D1FA002806D004206949C862400269498F
:109420008862276068485421405C000600D494E1BB
:10943000380163493DE16868C00700D58DE1B80097
:109440006049C862FEF79CFF286C384006D1FEF7E1
:10945000ADFF0221C24A1160FEF7B1FFFEF799FF8E
:10946000F8082860BF4CC0200006A0607800BE4904
:109470000860A86B4007C10F68460170BB4E019899
:10948000C00700D4A4E001F04DF90290FEF7A8FF58
:10949000286C40040DD400BF00BF00BF00BF00BF58
:1094A00000BF00BF00BF00BF00BF80200006B04962
:1094B0000860FEF79AFF029801F038F9EE20C00428
:1094C000AC4908603809206203203064FE20C003E4
:1094D000706442200199C90501D4706000E02060E9
:1094E000A02060600820A04908660420AB490860FD
:1094F000286CC0022FD5AA484168080CA94A090463
:10950000C90B525A102826D32B490B88E72B22D39C
:1095100095267600B34205D8F31A1B095A43930ADD
:109520005A4204E0A04E9B191B095A43920A52B2B8
:109530008318086BCE6B7243801808636F2B01D3BE
:109540006F2302E00F2B00D20F23180218431904D7
:10955000014396480160874895498164C02189018B
:10956000A1600221804A5167C02189008160F021F9
:1095700009014165F80960610A2000F073FDC0200F
:109580000006A060822040026066012000F06AFDB3
:109590000120A060062000F065FDA760082000F013
:1095A00061FD3801A0608000A060032000F05AFD3A
:1095B000780052E0FC0302A8743F0000100002A8EB
:1095C0001C2002A81C1002A8683E0000E40000AAAB
:1095D000019840074AD56748EE21C90401606249F5
:1095E0008222D204CA66BA092262D2018A66C021E6
:1095F000890181646F48A0600A2000F033FD0020DB
:10960000306408270199C905306001D4706000E01A
:109610007760A020606054480766022141670A20F5
:1096200000F020FDC0200006A060634860660120B5
:1096300000F018FD062000F015FDA760062000F0E0
:1096400011FDC0204000A060082000F00BFD60204C
:10965000A060032000F006FD0220504908600AE0E7
:109660000C0000AA204000A8684101A8534A4021EC
:10967000002000F0FFFF0020C0430F49086000F009
:1096800084FA4F4E401DC001316B47188020C00145
:109690004C49496F014002914B4908600498874248
:1096A00013D2316B401A00F0CBFC00280CD002988A
:1096B0009649086051E000BFB46000A8085100A8B6
:1096C000EC3E0000685000A8049F0198400702D5B6
:1096D0008020800000E08E48A060012000F0C2FCE5
:1096E000686AF062802040001F490860380000F07E
:1096F000A7FC884C68460078002806D131480068ED
:10970000A0678020C0038449086002987F490860F0
:1097100018480199490704D58021890081642449AA
:1097200003E002218164C02189018164686A70625A
:109730006846007800280AD0012000F093FC5420ED
:10974000205C000603D58020000374490860286C63
:10975000C00202D512480068306305B0F0BD0000B9
:10976000D4E40350641102A8B81002A8600102A852
:1097700004500950242102A880B5FEF717FE8B493A
:1097800000220A600A22CA61FEF719FE8848C02139
:10979000890201609F49416001BD0000C82102A803
:1097A000F83F0000C0000000D6FEFFFFDC4001A82B
:1097B0000404000004044000020400000D0700003F
:1097C000743F000020C001A894E001A88C48806B81
:1097D000800300D47047F8B58F48006800900220DD
:1097E00002248E4D01260099314001D08C4C03E0BB
:1097F0000099490702D58B4C286004E08A4A402131
:10980000002000F037FF2C64012000F02BFC300218
:109810008649086708278648076086480068C004AC
:1098200003D4854800683840FBD0844C38486065D4
:10983000042000F017FC8820C004606500980640F2
:1098400024D0A02080036065012000F00BFC7C4840
:10985000606500F067FF0500FEF7C2FD6848006C18
:1098600040040DD400BF00BF00BF00BF00BF00BF59
:1098700000BF00BF00BF00BF802000067149086024
:10988000FEF7B3FD280000F051FF10E0400709D5B6
:10989000602060657803A060012000F0E3FB6A4867
:1098A000606504E0694A4021002000F0E3FE684D55
:1098B00000260098C0052E6001D56F6000E06E6044
:1098C000C02000066065C00C62490860012000F0FD
:1098D000C9FBF0200001E0665F480099C90502D588
:1098E0000321016000E00660862040025B490860B9
:1098F0005B4860652760A02020652E646E64B80216
:109900003F490860000149490860F1BD94D001A8B1
:1099100002400000683E00001C1002A81C2002A8A3
:10992000F8B5504800680D2707400424002F00D1E7
:1099300004274D481025660308214C4A4C4B1B68F0
:109940002340126814D04260394004D00220FEF750
:1099500055FC484806603C4007D04748006805432E
:1099600045480560B008434908600220434915E0B6
:109970000260394005D00220FEF740FCA0023D49BC
:1099800008603C4006D03C4801680D430560700902
:109990003849086039480660300324490860FFF7F9
:1099A00015FF00210020FEF7BCFBF1BDD80000AA86
:1099B000442002A810B5802031490A6802400AD02C
:1099C000304B1A680624144005D15C6E2E4A2240A2
:1099D0001B6D9C0101D5002010BD096808400DD009
:1099E0002A48824203D1180501D5012010BD28481C
:1099F0000068C107C90F481E8041C00F10BD00009C
:109A0000100002A8234803210164A821C16310218A
:109A10000160704704000080FC0302A82C1102A81A
:109A20000230000006040000EC090000482002A8F3
:109A3000106001A8D84001A8104001A8182102A870
:109A4000018000000460095089050000330A00000D
:109A5000600102A8B06101A8548001A8C82102A831
:109A600004340000B44000A8E43E00001CC101A87A
:109A7000480002A8441002A8683F0000685000A8EF
:109A8000440002A814C001A81F1F0000010C000020
:109A900030C101A8082002A86C48006801210842D2
:109AA00009D16B4A12686B4B000C1840F0329140A0
:109AB0000B40984201D00220704700207047F8B553
:109AC00007000F386A461080604CE0680A0004D135
:109AD0006B461B8882B29A423AD200226B461A80A9
:109AE000012502263A0013D02268324007D000290F
:109AF0002ED059480088401C574908800020390062
:109B0000216156490E6080B2B84201D369460D808A
:109B10005348456000E030BF2068304003D1FFF774
:109B2000BBFF0028F7D04D484560390010D02168B0
:109B3000314005D048490A886B461B88D2180A80F4
:109B4000066000202061E068B84201D24448066007
:109B5000FFF7A2FFF2BD38B5050000F0E3FD0400F9
:109B6000012199204543A8093E4A126880181238FD
:109B700080B2FFF7A4FF05008020C0013A490860C9
:109B8000200000F0D3FD280032BD3348038835495A
:109B9000096802889342F9D1100408187047FEB58D
:109BA0001238070C6946088000F0BCFD0190274C74
:109BB000294D2888B8421ADA01202C490860274E1E
:109BC00030BF02202168014006D0306040032649A2
:109BD00008602888401C2880FFF75EFF010002D142
:109BE0002988B942ECDB0121716000280DD1288859
:109BF000B8420AD1E06869460988884205D2002146
:109C000068460088FFF75BFF01E0FFF745FF0400AF
:109C10008020C00114490860019800F087FD2000F1
:109C2000FEBD10B512490A680E4B1B680C689442C1
:109C3000FAD0DB014033141A02D288692418641C5C
:109C40000C4800684443181B10BD0000280002A8FF
:109C500004ED00E0FF3F0000483E0000282002A87D
:109C6000281002A8340002A880E200E02C1002A80C
:109C700020C001A8B43F0000F0B502E00A601C60FB
:109C80002E607EC84F1C07D05F1C04D06F1CF5D11E
:109C90000A601C60F0BD0A60F0BD000080B5FEF7F0
:109CA000ADFA01208449086001BD80B5EB2000F0C9
:109CB00001F801BD30B581490B68184010221342EC
:109CC00010D07F4B7F4C2468224008D0AF4A1468E4
:109CD0002402FF252D0225401D63002414608022EC
:109CE00052031A60086030BDF3B5010016001C0075
:109CF00000250095A648019A330000270BE0BC46DA
:109D00004F5D4743AE009E597E40575D4743374005
:109D1000664637436D1CA542F1D3390939438A0899
:109D20000A43510811430840C10901430F208A0B1F
:109D30000A4302405040F6BDF1B582B00E0000204B
:109D400092490860934DEF7AA87A01900F2139402B
:109D500000910ED00B46904A90490298FFF7C4FF3D
:109D600001990140894801608D4841438D48084070
:109D700001D1012400E04401380915D032003B092B
:109D800029000298009E6D7A75194019FFF7ACFF03
:109D90000199091101407D4802680B0113430360DA
:109DA000002901D0480044437F480068204001D189
:109DB0000420FEBD0020FEBD80B50A0000211180F8
:109DC0007A4952888018FFF7B7FF02BDF0B50F221D
:109DD000774B5C7905780F202040C540200928404A
:109DE00001259C79C4402C4001D10320F0BD354CA5
:109DF0002468254008D06F4D9E684700F65B761EAC
:109E00002E608026B601EE60DD78DE79C640F00770
:109E100011D5E0060FD5002D0DD0674848600888A1
:109E2000488008881C7800192A4080185A788018C1
:109E30002A09801800E0002008800020F0BD10B53D
:109E40005E4801685E4A0820014200D09061C90660
:109E500002D58C21090111605A495B4A5B4B1B6892
:109E60001B040CD54B685C0402D5C303136006E0E9
:109E7000C024A4011C4043029C4200D010600B6827
:109E8000034005D0524B1B689B0F9B0700D010600E
:109E90000C480078C023034002D1802040051060A8
:109EA00008682021084010604A480068C00101D4B9
:109EB000FFF7FBFE10BD00002C4000A8703F000023
:109EC0001C1002A8BC3E0000F8B5434F38687E68FD
:109ED000064042483040424908608024A403414D76
:109EE000F00228D540480168080606D53F480068BA
:109EF000A86001202870022015E00120014202D054
:109F00003B49A9600FE00020C9060CD52A49A96089
:109F1000384A91780B071B0F12789A1809095118C3
:109F2000A980E880A888A880A888002801D02643B6
:109F300001E0FFF7BAFE264026D0294E7460346057
:109F4000A88800280ED0396A81420BD3291D2A48DF
:109F5000AA6890470100F3D0FEF750F90120274985
:109F60000860F1BD01000CD0FC218902F161244997
:109F70000203CA6134604C603A6A824204D30C60C6
:109F8000F1BDEB20FFF796FEF1BD0000283E00007A
:109F9000010101013C3F0000F43E0000343F00009D
:109FA0001111000021840000F03E0000143F000069
:109FB000443F0000204000A849220000F84F000064
:109FC000502102A8184001A8481002A8684101A821
:109FD0004C4201A8D04000A8B44000A8FFFFDFFF1A
:109FE000B46000A82C3E0000BC3E0000603C0000B5
:109FF0005D220000453F0000D84000A82C4000A88A
:10A00000B45000A870B505000C0000F08BFB0600F2
:10A01000FEF7E6F9200205430648056002200649DE
:10A020000860FEF7E2F9300000F080FB01200349F0
:10A03000087070BD04800950409009504C3E0000EB
:10A0400010B5C409FFF7A1FD201A312806DAC000B7
:10A05000183801D4C01EFDD5002010BD2000FFF728
:10A060009EFD10BDC32148436F3801D41E38FDD575
:10A0700000207047FEB5C020C00433490860334853
:10A080003349486533488865334840240460446058
:10A090001020FFF7E7FF010054D1FF2000052F49F2
:10A0A00008602F482F4908602F4829490860A503F8
:10A0B0002A4805602D4807680820FFF7D3FF0100F4
:10A0C00040D108262A4806600120FFF7CBFF274829
:10A0D000806801902748066027481D4908601F488E
:10A0E00005600820FFF7BEFF01002BD12048066065
:10A0F0000120FFF7B7FF1D48806800901D480660EB
:10A10000134D1E4828600199009800F03FF886061C
:10A11000B60E0198C10B0098C00B00F037F8000292
:10A12000FC21890101403143296010480760600328
:10A130000A490860124804604460124901641249E7
:10A1400041640020FEBD000020E000A8571400007C
:10A150004C0102A8FF3FFF3F601102A8B42002A8F3
:10A160000000380EB41002A830300000104101A8E1
:10A17000105101A8106101A810100000202000005B
:10A18000602102A8F703F000FF3F000010B549046A
:10A19000CA104004C310991A00209A18D30F9A18B5
:10A1A000521052188B115B0E5B18DB11D218202352
:10A1B000541A01D422001843CC0F611849105B08CF
:10A1C000F6D110BD10B5C20018231340FF249C40E7
:10A1D000E2438907090E9940030004D477489B089D
:10A1E0009B00C01806E0764B0007000F0838800877
:10A1F0008000181803681A401143016010BD80B533
:10A200006F225421002000F035FA01BD10B500F096
:10A2100089FA6C4901220A606B4B6C4C23606C4CD0
:10A22000236003236B4C23606B4C23606B4B1A60E1
:10A230006B4B1A606B4A802313606B4B13601122C7
:10A240008A6300F073FA3F206849096801400A1DDB
:10A25000402A00D2081D664A1070A748017010BD40
:10A2600000F060FA05000024012160B2FFF7AAFFA8
:10A27000641C0E2CF8D301210F20FFF7A3FF01214E
:10A280001120FFF79FFF01211320FFF79BFF012102
:10A290001720FFF797FF03210120C043FFF792FF2C
:10A2A00001211E20FFF78EFF01211F20FFF78AFFEB
:10A2B00050485149086002205049086001209949DE
:10A2C000086047044E4C20683840FCD0FEF737F851
:10A2D000280000F02BFA4B480068000311D49222AA
:10A2E00052005321002000F0C5F90AE000281CD0DC
:10A2F000FEF75CF819E020683840FCD0280000F038
:10A3000015FA206D0004000F022801D1FEF790FC21
:10A3100000F008FA05006B4EFEF758F80028707838
:10A32000E4D0002801D1FEF74AF801203349327801
:10A33000002A05D1714A1268920600D4086030BF25
:10A340000022327002220A6076490860D3E776481C
:10A35000016842680A40754810401C49086080073F
:10A3600000D4704770B572480188491C0180714C57
:10A370002078000620D570490A680F20120B024091
:10A38000032A19D16D4A12685207520F032A13D8B3
:10A390000968090B084003280ED16948056808269A
:10A3A000684806600D20FFF779FC354001D09A48D7
:10A3B0000660E08A401CE08270BD000000E400E01E
:10A3C0001CED00E0040002A80000FF3F282002A8C6
:10A3D0002C1002A840E002A844C002A804C001A8B2
:10A3E000044001A8145001A8200060062C8001A898
:10A3F0004A3E0000FFFF9BC000E100E0602002A891
:10A40000600002A8F80702A8F8B58448016844680B
:10A410000C40834804608348204007D0FDF7E9FFE3
:10A42000002803D020008049096888477F488021A0
:10A430000C4220D0794A936AF825ED011D401AD0CC
:10A44000C0231B019D4216D880252D06884E3560FD
:10A45000976AF826F6013E40C76E3F043F0F022F71
:10A4600001D0032F03D1002E01D09E42F0D3904A99
:10A4700015606B4A11608F49097806290DDACC20E6
:10A48000800120401DD000F04DF905002000FDF7AF
:10A490006DFC280000F04AF9F1BD0068800510D578
:10A4A0008548204005D0FEF7BDFA2000FDF75EFC90
:10A4B000F1BDA00205D580204001594908607F49BF
:10A4C0000860F1BD4D3E000010B57D48016844684C
:10A4D0000C407C48046080210C4205D041607A48E1
:10A4E00001600020FDF742FC600403D58020400598
:10A4F0007649086010BD00004B3E0000F40302A83E
:10A5000038B57348016844680C40E00707D500F08F
:10A5100009F90500FDF7C4FC280000F007F96D48B3
:10A52000046031BD601002A8280002A8FFFF00C02F
:10A53000483E0000BC3E0000B00002A8184001A840
:10A540004C4000A84C6000A8FEB5634C206C676CC2
:10A55000074001252F4216D02E066048066020686D
:10A560005F490D60002802D00021FDF773FE5D48B1
:10A570000068A021C90188428041C043C00F5A49E8
:10A5800048705A480660FDF711FF0190022007400D
:10A590003ED06168CEB20F0A55490822494B4403A8
:10A5A000012E24D0022E31D1012F22D1514EF67826
:10A5B0000096504E37780126BE404F4F3E604D4EBC
:10A5C0003678760590277F04F71903263E434B4FD4
:10A5D0003E601C604A4B1C600B68009C1B194B655D
:10A5E000444909788D4047490D6047490DE0009086
:10A5F000DFE7002F0AD1454E356000254D655C60D0
:10A600001C60C104424B196042490A603449086029
:10A610000198FDF7D4FEF7BD4C5000A8104001A8EA
:10A62000106001A8020006005C3C0000440002A883
:10A6300070B5FDF7BBFE040000F074F82F490A68FE
:10A64000D2070FD52A4A566D1368334D2E60CE6857
:10A650006E604968E9818021C904204E3160297B00
:10A660005918516500F062F82000FDF7A8FE70BD92
:10A67000E06101A8002800D0704770B50C00FDF71C
:10A6800095FE050000F04EF80600FDF7A9FE2348F0
:10A6900004600121224A1160026C0A40FCD1FDF7DE
:10A6A000A4FE300000F042F82800FDF788FE70BDDF
:10A6B000E05101A8183E000000104006145001A807
:10A6C00090C001A890E001A80CC001A804ED00E032
:10A6D000C0C000A8C0E000A800C002A8441002A8A2
:10A6E00040E002A8404000A84D3E0000442002A8DF
:10A6F00018800A50613E000068A00A5060C101A89D
:10A7000094D001A868900A50F42302A860E101A83F
:10A7100080E200E0F41302A8583E000000800950D7
:10A7200040900950EFF3108072B67047002800D1B6
:10A7300062B6704780B5FDF75CFE002802D0B648CF
:10A740000068804701BD80B5FDF790FEC4480068F1
:10A7500000030AD4FEF736F9FFF738F8FEF7AEF833
:10A760000120FFF709F8FEF7DFFC80208005FDF7E8
:10A7700015FE01BD80B5FDF779FE80204002FDF792
:10A780000DFE01BDFEB505208D4908608D480668A7
:10A790000124264201D1FDF76FFFFDF767FE8A49CC
:10A7A000086800909D4849680160B105CA0F694674
:10A7B0000A710025264210D00095AA494968016017
:10A7C000A848026896490B68981A9A4202D38B6986
:10A7D000C018401C934B9842F5D3A34F3D60684688
:10A7E0000079002804D031000098FDF79BFB009011
:10A7F00000263868204003D16846FDF76AFF06004E
:10A80000FDF7C0FF002844D09648407C002840D186
:10A8100096489449C96802690B689A4200D001259C
:10A82000934FBA1C9446934A1378062253436246C8
:10A83000D25A8C462B0018214B436146C9184A60F6
:10A84000009901918749C96801226A4018235A4337
:10A850008D1829680161A96801608748E96801606D
:10A86000296901626869A149086001A8FDF731FF03
:10A87000010006D1B91C7F4A127806235A43895A2F
:10A880006960310006000E43300602D175494C74F0
:10A8900001E0360602D10098FDF796FF9E4804605D
:10A8A00002209E490860C820C004BD4908606004B9
:10A8B000FDF774FDF7BDF8B5994C8025EF02FDF763
:10A8C00061FF002808D097480078002804D138009C
:10A8D000FDF764FD2560F1BD206CC00506D5802024
:10A8E0000006206000BF00BF40082060FEF74CF863
:10A8F000FDF7BCFDFDF7B2F906008B48A9490860D9
:10A90000FFF718FF3800FDF749FD002E00D0256045
:10A910000120A5490870F1BDF8B5A44CA448006811
:10A920002060FDF7A3FDFDF72BFD02257C48006CA0
:10A93000000405D4FDF73AFD9E490D60FDF73FFD8B
:10A94000FDF727FD1020C0439B490860002674488E
:10A95000C6639A480660FDF74CFD070003D098488F
:10A960000068804700E066637820205C0521014094
:10A9700002D0FDF70EFE01E0FDF718FEA06F0540C6
:10A9800002D0012066490860FFF759FA002F02D073
:10A990008C480068804780200003FDF7FFFCF1BD74
:10A9A00080B5FDF763FD2E480068000303D4FDF772
:10A9B00085FFFEF7B9FB80204003FDF7EFFC01BDEA
:10A9C0005C1102A8440002A8B83F000038B5FDF7AA
:10A9D0004DFD534C2025FEF7EDFF002806D0606B9F
:10A9E000000704D5FFF70EF8FEF738FC2560FDF7E9
:10A9F00065FFFEF799FB744800780C21014004299B
:10AA000002D1FDF7C6FD01E0FDF7D0FD6804FDF7BA
:10AA1000C5FC4020206031BD483C0000243E0000C1
:10AA200020C001A801FF00001CB50520674908608F
:10AA3000FDF71CFDFEF7E6FF6548006800906846DC
:10AA4000FEF7CEFB0400FFF775FE002C02D1009844
:10AA5000FEF720FC80204004FDF7A0FC13BD0000A1
:10AA60000C0002A8C83E0000203E0000348001A86F
:10AA70003C3E0000383E00001C4101A8F8B5FDF73F
:10AA8000F5FC544CA56A5020284002D0FDF781FD0A
:10AA900001E0FDF78BFD224FFEF78CFF00281BD154
:10AAA000B86B40071DD4786BE0214901014018D1F3
:10AAB000A80611D4FDF764FCA56A9F4E354207D065
:10AAC000FF20C0432D18A562802000059B49086027
:10AAD000FDF75FFC2E4002D00120386001E000202D
:10AAE000206080208004FDF759FCF1BD284000A8BB
:10AAF00080B5FDF7BBFC92480068C00501D5FDF7A5
:10AB0000DDFE0120FEF738FEFEF70EFB8020C004BC
:10AB1000FDF744FC01BD0000442002A8305201A80A
:10AB2000100002A8D93E00007001200010B5264890
:10AB30000468FDF79BFC8349096809032AD40321B3
:10AB4000C00601D5214001E0A0080140012902D141
:10AB5000FDF71FFD0BE0200107D50E20FFF79EF843
:10AB600079480421016008210160FDF71FFDFDF710
:10AB700098FD764C2069B3490860FFF7DBFD20683B
:10AB8000002807D04000122802D2FFF76BFA01E03C
:10AB9000FEF7E1FF80208003FDF700FC10BD000000
:10ABA000106001A8B46000A84D3E0000743E000093
:10ABB00008C000A8D4E40350482002A8283E0000A2
:10ABC0004C3C0000503C0000EC3E00005C1102A830
:10ABD000CC3F0000C43E0000F8B584B000249A4980
:10ABE0000C740120694608700294FDF73FFC039045
:10ABF000544F3868000300D598E003209349086457
:10AC0000934800681025FF26B6010F210F2202404D
:10AC1000032A03D0000B014006293BD18D48006870
:10AC200071680291396C890701D5B1680291FEF70C
:10AC3000F8FF0299401801D5019400E00190B86B2B
:10AC40000107C80F0321424A12680A40022A1BD199
:10AC5000039A2A4018D07C4A526DD30512D5FE6B58
:10AC60009D4B1E409E4202D178490D640CE0920536
:10AC70000AD43A6C2823134006D16B461C702F4A25
:10AC8000116001E06A461470029068460678002E52
:10AC900012D11EE06C480078C0070AD56A48806867
:10ACA000FEF7BFFF7168401801D5019410E00190D4
:10ACB0000EE0306801900126FEF77CFE002808D0E7
:10ACC000FEF7A0FE0298002802D0FEF7C7FA00E0C7
:10ACD000002602205D490860002E10D01C48007834
:10ACE0000C210140042902D0F86B054002D0FDF789
:10ACF00050FC01E0FDF75AFC2020786016E0524835
:10AD00000078C00705D575480068054001D1FDF7FA
:10AD100051FCFDF7D3FD01A8FEF762FA0400FFF72E
:10AD200009FD002C02D10198FEF7B4FA802000043E
:10AD3000FDF734FB05B0F0BD00FFFF00481002A88E
:10AD4000680102A80C0002A880E200E0AC3F00000D
:10AD5000EC3E0000FEB53C4C002525740095FDF747
:10AD600085FBFFF7E7FC5E4EF06E5E4F0007000FBD
:10AD700007280BD17068002808D40020FEF7FCFCDF
:10AD8000386830490860FDF715FD55E0012071680D
:10AD900049070CD454490968014008D00102626D8A
:10ADA0000A4209D0520502D43268114001D1009004
:10ADB00002E010204D4908602078C00705D54748BB
:10ADC0000068C00601D5FDF7F5FB4948016803207E
:10ADD000009A002A01D0890900E009090840019081
:10ADE0000020FEF7C9FC0198002805D17068C00654
:10ADF00002D4FDF7DBFB01E0FDF7CBFB002000995F
:10AE0000002903D13B480068FEF70BFF7969401821
:10AE100001D5009500E000906846FDF75AFC002837
:10AE20000AD10098FDF7D0FC2078C00701D56068F2
:10AE300000E0B8690349086080200005FDF7AEFA1C
:10AE4000F7BD0000243E0000683E0000082002A874
:10AE5000B00002A80CC101A8F8B5FDF707FB00245B
:10AE600000252548466B80277F05300606D530072C
:10AE700009D5FEF7C7FDFEF7F1F929E001251A48CB
:10AE80000068284019D00020FEF776FC022006401A
:10AE900002D01A490C60C86119480468002D03D01B
:10AEA0002000FDF7D7F80400FEF7ACFD2000FEF708
:10AEB000F1F93800FDF772FAF1BD0D480078C021B4
:10AEC0000140402902D1FDF764FB01E0FDF76EFB74
:10AED000202009490860ECE710000010B04301A8E9
:10AEE000440002A8BC3F0000B44000A8481002A8DB
:10AEF000EC3E00001CC101A8100002A8180000AA26
:10AF0000D83F0000FFF782F9024803494860FFF785
:10AF1000A7F900BFF12600000000000080B5EFF3A4
:10AF200005800B2801D23A2100E029218C22520011
:10AF30000020FFF79FFBFEE770B50822804B1A60E8
:10AF4000804B1B68DC0302D50020088070BD0C8894
:10AF50000019401E00787C4DA870641C0C804507C9
:10AF60006D0F052D05D8794E3668F60603D5022DEE
:10AF70000DD0032070BD9604AE401E4001D10820C4
:10AF800070BD052D03D1104201D1641E0C80AA486A
:10AF90004860002070BDF3B582B008886C4909781C
:10AFA000491CC9B2814204D202990918491E097884
:10AFB00000E00021644A517093785B075B0F0193B6
:10AFC0003023019C052C28D1194232D19478E50810
:10AFD0001E242C40CD0702D5250001242C43012539
:10AFE000A14EE6402E4072D0019FA04EE641402483
:10AFF00026403E434C0602D5340020262643947852
:10B0000089080D40A7080C2139402943C025254057
:10B010000D4320212943967051704A490C68557898
:10B02000022123262E4008D0660302D52B40202B78
:10B0300001D0052082E0424B196093789B0601D431
:10B04000202203E09278120702D540223C4B1A607E
:10B050003D4A92786B461A70C022854B1E680E409E
:10B0600001D1154212D06E46377827263E40232E56
:10B0700003D1E60207D4012606E0252E03D0212EB7
:10B0800004D1260302D504262D4F3E601B681940CB
:10B090002026019F002F1CD11E4027D02A4B5B7811
:10B0A0001A40402A13D00C221A40042A0FD02A0733
:10B0B0003BD40122002902D0E100CB0F5A4069465F
:10B0C0000978CB07DB0F1A422FD021012AD40720A1
:10B0D00034E0022FE2D11E4008D00029DED1CC237B
:10B0E0002B4003D16B461B785B0601D5032025E07E
:10B0F000A30311D59C4E73691B051B0D5B1C3668A1
:10B10000F60205D5994E36683607B60F9B1B5B1EB7
:10B110009BB2052B04D1C1E7029B1B78052BBDD048
:10B1200006200BE08021064A1160E90702D4401C8A
:10B1300003990880AB4803994860002004B0F0BD33
:10B140004C1002A8BC3E0000103E0000480002A8BF
:10B150002C3E0000F2B586494978CA0705D4009A0A
:10B1600012888018401E037800E000239E4A106871
:10B1700002249E4D2E68F60611D512695340DBB2AB
:10B18000002B03D16E68D30973402340002B03D0FA
:10B19000020204D40A20F2BDE206954E3260744ADF
:10B1A0001E02C0230B403343914E336093785E07F9
:10B1B000760F022E06D16D682C4003D10020009935
:10B1C0000880F2BDA0250D409E08102737402F4370
:10B1D0003D090E0702D42E0010253543CC240C4027
:10B1E0001A262E400A2E04D1CC2C02D02E00FD258A
:10B1F0003540804EEE40F60705D4000416D5412BAD
:10B2000010D1082912D17C48E84011210140214386
:10B210002020084310700D210140009808D000F054
:10B22000A9F8F2BD0B2B01D10029ECD00720F2BD0B
:10B2300000F020F8F2BD00002734000038B50C0003
:10B240006E490B781A0953399500491925881B074F
:10B250001B0FEB1A9A1A8018FEF76EFD010002D13F
:10B26000200000F007F832BDF300A3E39814406813
:10B270004C0002A8F8B50400614805683C4F3878D6
:10B28000D026304202D00D21014005D008205D4972
:10B290000860EF20FEF70EFD39782000314204D01F
:10B2A0000909397000F066F8F2BD052129401FD068
:10B2B00002884D49CA60544BEC0705D5521C0280E8
:10B2C000690607D4514B05E043242C40422C03D19E
:10B2D000521C028043600DE010224A4B1A604C4A17
:10B2E00009688B00DB0F19011163802109031160CC
:10B2F000002101800020F2BD0A888018401E0078DD
:10B30000830601D4121D0A801822024004D0088846
:10B3100052088018C01E088039480068C00702D54E
:10B320000888401C08803948486000207047344A2B
:10B330001368DB0708D51268920705D40A888018BD
:10B34000401E007804280CD110202E4A106030488E
:10B35000254A12689300DB0F1A0102638022120350
:10B3600002600020088070470C4000A8080001A877
:10B37000103E000031B581B026490020009008221F
:10B38000254B1D7802230C24254202D1002223499B
:10B3900003E02C40082C00D10222EC0703D50C005E
:10B3A0001E21614000931D4207D015490968090616
:10B3B00001D51B4901E00021C943019B194C2160C3
:10B3C0001949FF248C70009C15012543CD7008702D
:10B3D0001888009940188018188014485860002078
:10B3E00036BD0000E5350000BC3E0000480002A864
:10B3F000481002A80D0F0C0D07170850473F00001A
:10B400004C0002A84C2002A889370000BF3700007A
:10B410001C1002A8DE1B2501103E00002084100035
:10B4200000FCFF01F03E0000443F0000CD3600006C
:10B430000006800F7047954909684143880B7047A3
:10B44000934800680104C80F704730B50020844954
:10B450000A6800238F4C521C6568AA4200D32268F8
:10B460001578AD06AD0E9D40054328009B1D1E2B93
:10B47000F1D30A6030BD86480168090408D58649C1
:10B480000A68774B1A604A68C26188688349086015
:10B49000704780B5FCF78AFF012081490870814818
:10B4A0000068022808D280480068F02109050140A0
:10B4B000C02080048142F2D07C480068C01C7C49D6
:10B4C00001437C48016001BD7B487A490860002047
:10B4D0007A49086080218902794A116079490860B7
:10B4E0006F4908707047F3B583B01700C006000EAF
:10B4F0000090103891282ED2FFF7A2FF00282AD002
:10B500000025714C01260398FFF792FF002802D016
:10B51000022803D003E02068304000D001250197C5
:10B52000049F934E0C20205E38180E21615E401857
:10B53000FFF781FF01994018306000983818FFF735
:10B540007AFF019940187060C02080018949086025
:10B5500028038949086005B0F0BDF8B5874C574A03
:10B5600004250221504BA068284204D0107D80069B
:10B57000C50F6D0024E0084024D01069042807D2CC
:10B580001868F02636050640C02080048642F4D0B4
:10B59000107D0007000F072814D1507D022811DD0F
:10B5A000907D8006800E02280CDBD07D0090284222
:10B5B00008D0C00700D50A250098084200D0AD1D6C
:10B5C000002D04D1FFF780FF00202061F1BD681C31
:10B5D0001669864207D21F68F02636053E40C0270E
:10B5E000BF04BE42F4D06648405D2061C300F82528
:10B5F0001D4001D04B061360624B1E68012E00D126
:10B600006D0055602268002A1CD12A4A1568202640
:10B61000A65F3603AD05AD0D35431560294A0125FA
:10B6200015609160810909D11968002901D118219B
:10B6300000E01A21625E0021FFF755FF207A000723
:10B6400000D42560F1BD16480078002800D170476D
:10B6500080B5FFF739FF46484B490160416001BDA5
:10B66000143E00000620494908600020484908604F
:10B67000F0200001474908608020400046490860EA
:10B680003B4841490160416070470000A43E000012
:10B69000C04101A87C3E0000843E00005C4201A83D
:10B6A0004E3E0000D44000A80C0002A8204000A894
:10B6B00000F0FF3FB84101A8FFF3FF3FC44000A8DE
:10B6C000106001A8044003A8A03E000070B504006B
:10B6D000A00310D52B480068002803D11620FEF7E0
:10B6E0003AFA02E00C20FEF7BDFC08202B49086066
:10B6F000C0032B4908602B4D286800040CD5FCF7CB
:10B7000055FE0600FFF7A1FEE861FFF79EFE264901
:10B7100008603000FCF753FEA00727D58020C00248
:10B720001F490860FCF765FE00281FD01F4A1068FB
:10B73000C0B2002802D006211D4B1960810915D026
:10B740001C490B68012BFBD949680905090D091D26
:10B75000C9000C4B1B68012B00D14908002B01D1FB
:10B76000182300E01A23D25EFFF7BDFE70BD000073
:10B77000C84101A8C06101A8C05101A8983E0000BD
:10B78000D84000A86C3F0000FFFF0300006401A840
:10B79000504000A80C6000A80C5000A8846000A8CD
:10B7A000106001A8C04101A85C4201A89C3E0000B5
:10B7B000005401A81C4000A800000000C93300008C
:10B7C0000739000023390000EB390000D73A0000A8
:10B7D000F53A00005D3B000000000000C8330000A7
:10B7E000183E000000000000183E00003700000076
:10B7F000C8330000F8040000603C000004000000B2
:10B80000103E000003000000C03800008803000064
:10B81000483C000018000000143E00000400000036
:10B8200038B5DFF854414FF4E471204600F0B8F821
:10B8300009222261092060610FF24410A061DFF843
:10B840003C11E1614FF4806222620023A362002573
:10B850006562E36204F1F003186001F580605860EE
:10B860009A60002119610020D86059610FF21C1103
:10B8700042420A44D27B2254401C1028F8D331BDE6
:10B8800070682246A9EB0409C119404600F08CB843
:10B890002DE9F8430446DFF8E050287888469146C1
:10B8A000532818BFFFF7BCFF18204443281900F1A4
:10B8B000F0063769F5680024BD420CD2B468E41B79
:10B8C0004C4588BF4C46FFF7DBFFB168E719A04441
:10B8D0008F4208BF0027ED1B4D4588BF4D462DB157
:10B8E00070682A462C19FFF7CFFFEF1904B13761B2
:10B8F0002046BDE8F28310B500F005F8FFF7C8FF59
:10B9000084F3118810BDEFF31184202383F3118891
:10B9100070472DE9F0410446DFF85C8098F800009C
:10B920000D4616461F46532818BFFFF779FF092C0E
:10B9300005D200F008F8F03200F00EF801E04FF008
:10B94000FF30BDE8F081EFF31181202080F31188F2
:10B95000182262434244704734B1156056609760C4
:10B96000002010610023D3600698506181F3118894
:10B970000020704754E70000001C0020D023002066
:10B980005465726D696E616C00000000000000007B
:10B9900000005454522052454747455300000000D0
:10B9A000002200F00DB870474AB1000011F8013BC9
:10B9B000521E00F8013B1CBF11F8013BF8E770472D
:10B9C0004018491C1CBFB1F1010100F8012DF9D14B
:10B9D000704770470146002000F041B810B504469A
:10B9E00000F06CF807490C6000F06CF8002010BD06
:10B9F00010B500F063F803490C6800F063F82046C6
:10BA000010BD00008C47002038B50C46154608B91B
:10BA1000FFF7EEFF00281CBF4368002B06D000682C
:10BA20002A46214601B0BDE830401847232032BDE8
:10BA3000F8B50D4616461C466F4608B9FFF7D8FF05
:10BA400004B1274600281CBF8468002C05D000687C
:10BA50003B4632462946A047F2BD2320F2BD02B53F
:10BA600001226946FFF7D0FF02BD00230122DFE774
:10BA700070B50C461546002608B9FFF7B9FF014618
:10BA80002B4622460FF2210000F096FE0128B8BF97
:10BA90003726304670BD0CB480B502AAFFF7E8FF28
:10BAA00002BC5DF80CFB000080B50B468DF8000071
:10BAB000012269461846FFF7A7FF01BDEFF310808A
:10BAC00072B6704700B962B67047704770470100A0
:10BAD00018BFFFF77FBF70470A46010002D05168C8
