:1040000000100020014E0000858C0000898C00000B
:104010009F1003008D8C0000958C00009F10030002
:104020009F1003009F1003009F1003009F100300C8
:10403000998C0000709B03009F1003009F100300E9
:104040009F1003009F1003009F100300B552000053
:104050009F1003009F1003009F1003009F10030098
:104060009F1003009F100300A9AF0000AD4D00009A
:10407000730E03009F1003009F1003009F100300A6
:104080009F1003009F1003009F1003009F10030068
:104090009F100300A15800009F1003009F10030011
:1040A0009F1003009F1003009F1003009F10030048
:1040B0009F1003009F1003009F1003008D5C010000
:1040C000414C03003D4C0300215401004D4C0300C2
:1040D000454C0300515C0100494C03004D41010077
:1040E000CD5C01009F1003009F100300A58D000010
:1040F0009F1003009F1003009F1003009F100300F8
:104100009F1003009F1003009F1003009F100300E7
:104110009F1003009F1003009F1003009F100300D7
:104120009F1003009F1003009F1003009F100300C7
:044130009F100300D9
:10413400F0B5114A114C124E00F00105E3695F0716
:1041440013D40DB9334213D103EA00078F4207D1C8
:104154000B4A1A40002A0CBF00206FF00100F0BD8A
:10416400013AEBD16FF00200F9E74FF0FF30F6E7C8
:104174006FF00100F3E700BF809698000000035041
:10418400020001000B4B70B5D96911F480310DD1D7
:1041940001244FF48072084E084DF46020462C64CC
:1041A4001A61FFF7C5FF3464EC6070BD6FF0010065
:1041B400FBE700BF00000350001003500020035031
:1041C40038B541F6713301220C4C0021E569E363F3
:1041D4000B4B05F48035DA600223606121202361F2
:1041E400FFF7A6FF10B92120FFF7A2FF0122054B1C
:1041F400DA600DB10023E36338BD00BF0000035053
:10420400001003500020035070B5134C6061E36943
:104214005B071ED40E4656F8043B8D18A361AE42CC
:104224000BD10423002121202361FFF781FF58B91A
:10423400BDE870402120FFF77BBF08210846FFF747
:1042440077FF10B10423236170BD56F8043BA361CA
:10425400E5E74FF0FF30F7E7000003502DE9F8439E
:10426400154641F67132164B8946DF69DA6301223D
:10427400064603F58053DFF8508007F48037DA6090
:1042840055B9284601220F4BDA601FB10022A3F56D
:104294000053DA63BDE8F88306F5005404EA080421
:1042A400A41BAC4228BF2C46494622463046FFF7A1
:1042B400ABFF0028E6D12644A1442D1BE0E700BF54
:0C42C400000003500020035000E0FFFF4A
:1042D0002DE9F04F93B0CDE90A32DDE91C530E937E
:1042E00053EC102BCDE90801104619468DED060B55
:1042F0001E9E2CF035FB80B1DDE906014FF0FF3248
:10430000C54B2CF055FB40B9DDE906014FF0FF32FB
:104310006FF480132CF02EFB70B1DDE908019DEDE8
:10432000060B0E9B1E96CDE91C53DDE90A3213B035
:10433000BDE8F04F00F088B90022DDE90601002356
:104340002CF018FB002800F03381DDE906A303F10F
:10435000004BCBF30A5016F48063A0F2FF3008BF85
:1043600006250F932CF02AF89BA3D3E900232CF009
:104370008FF89BA3D3E900232BF0D4FECBF31304D7
:10438000894644F07F5180460022A44B504641F4B8
:1043900040112BF0C5FE94A3D3E900232CF078F84C
:1043A00002460B46404649462BF0BCFE2CF00AFB69
:1043B00004462CF003F88EA3D3E9002380468946F7
:1043C0002CF066F80022964B2BF0ACFE2CF0FAFA9B
:1043D00089A3D3E900230746494640462CF058F804
:1043E0008046384689462BF0E9FF85A3D3E90023B0
:1043F0002CF04EF802460B46404649462BF090FE04
:1044000002460B46CDE90C232CF042F8DDE90C23E3
:1044100080468946104619462BF084FE0022CDE9DD
:104420001001804B404649462CF05CF900227E4B3F
:104430002BF078FE02460B46404649462CF052F9D6
:1044400000227A4B2BF06EFE02460B464046494650
:104450002CF048F9DDE90C238046894600204FF016
:1044600080412BF05DFE02460B46404649462BF04C
:1044700059FE02460B46DDE910012CF033F907F234
:10448000FF3700226A4B2BF04DFE00223B052BF03C
:10449000FFFF52465B46804689462CF089FA002889
:1044A00040F08980CDE90C8904F16303C72B34BF48
:1044B0000427052731051BD553A3D3E90023504614
:1044C00059462CF06BFA00287FD051A3D3E9002382
:1044D000504659462CF04EFA002876D00027A542C7
:1044E000C6BF2C1B04F1FF3500253C4646F4806610
:1044F0000E9B9F422CBF4FF00008A3EB070816F05D
:10450000020903D0002F18BF4FF000083CB1DDE9CD
:104510000C23504659462CF0E5F882468B46DDE9DF
:104520000601002200232CF025FA10B10BF1004304
:104530009B46DDE9080126F40063CDE90183DDE94E
:104540000A324BEC10AB009500F07EF802465FB3E8
:10455000DDE9091316F0200F00F10105089E0CBFDC
:1045600065204520B047DDE90801052300220593B9
:104570000A23002CCDE9023207F1FF374FEAD4734A
:10458000B8BF64422A46019304970A9B00942FF017
:1045900060F90246B9F1000F06D00B9BC41A0B9BC1
:1045A0001A190E9BA34245D8104613B0BDE8F08FF0
:1045B000DDE906ABCDE60022404649461A4B2CF019
:1045C00091F8013CCDE90C016EE7002D90D00F9BD6
:1045D000002B8DD0013D8BE7FB799F501344D33FD7
:1045E000B3C8608B288AC63F61436F63A787D23FF9
:1045F00071A379094F930A401655B5BBB16B0240C0
:10460000EF39FAFE422EE63F2D431CEBE2361A3F0D
:104610000000000080842E41FFFFEF7F0000F83F84
:104620000000E03F00002C40000024400000184043
:104630000000F03F2020DDE90913089DA847013460
:10464000ADE700BF000000002DE9F04F5BEC10ABC0
:1046500097B0CDE90501DDE92057CDE907235046A4
:1046600052465B465946229E2CF07AF970B90323D4
:10467000CDE902760193B04B0093DDE90501DDE958
:1046800007232FF006F817B0BDE8F08F4FF0FF3288
:104690006FF48013504659462CF06CF928B104236E
:1046A000CDE902760193A54BE6E74FF0FF32504685
:1046B0005946A34B2CF07CF968B1A24A06F00403DA
:1046C000002B08BF0322A04B1CBF13460422CDE9D8
:1046D00002760192D0E7504693A3D3E900235946CE
:1046E0002CF066F938B992A3D3E900235046594615
:1046F0002CF040F968B1DDE90723DDE905014BEC59
:1047000010ABCDE92176209517B0BDE8F04FFFF74B
:10471000DFBD00220023504659462CF02BF900281B
:1047200000F09A805B465246002000212BF0F8FCF6
:10473000012382468B46099316F4806400F08E8034
:10474000092D40F28E80002430210EABA5F1090224
:104750000134202C03F8011BA5EB040901D094427D
:10476000F6D1594650462CF02DF9784B054603EB0F
:10477000C90393ED007B8DED0A7B2BF01FFE0246F3
:104780000B46504659462BF0CBFCDDE90A232BF0B3
:104790007FFE02460B46CDE90C232CF03BF9804608
:1047A0002BF0FCFD02460B46DDE90C012BF0B8FCBA
:1047B00002460B46CDE90C230022654B2CF0F8F89D
:1047C000002851D008F1010840462BF0E7FD0246D1
:1047D0000B46DDE90A012CF0D7F810B14FF00008C4
:1047E0000135B9F1000F50D128462BF0E7FD024604
:1047F0000B46504659462BF093FC0022544B804602
:1048000089462CF0B7F830B1002240464946504B5B
:104810002CF0CEF810B1E80700D501350A210EAB17
:104820001A19202C0AD095FBF1F001FB10553035F8
:1048300002F8015B013405460028F2D106F00302BC
:10484000012A57D1002F55D0099A12B916F00C0F32
:1048500000D0013F302245E009906DE74FF0060996
:104860007FE7A94600247CE70022DDE90C01384BF4
:104870002CF080F80028B4D1B8F1000F02D018F065
:10488000010FAED008F10108ABE70A210EAB2344BB
:10489000202C0ED0B8FBF1F001FB1082B8F1090F0B
:1048A00002F1300209F1FF3904F1010403F8012B90
:1048B00011D83021A1440EAA202CAFD0A14504F17B
:1048C00001030AD11C4609F158030DEB03092E23FD
:1048D00009F8203CA2E78046DAE7A1541C46EBE742
:1048E0001A550134A74205D9202CF9D1CDE9027619
:1048F0000194C1E6202CF9D0099A3AB12D2104F196
:1049000058026A4402F8201C0134EFE7710704D50D
:1049100004F158022B216A44F4E73207E6D504F18A
:10492000580220216A44EDE70000000065CDCD412A
:104930000000000065CDCDC19BAF03009FAF030019
:10494000FFFFEF7F92AF030097AF0300A8AF030014
:104950000000E03F0000000070B58EB02C22002166
:1049600003A835F0B0F864234FF002320893CDE984
:1049700005230B2301218DF83430534B8DF8101093
:104980001B88D80700F19880084614F059FF0A22C6
:104990004E4B4F491A704FF428734E48ADF8123001
:1049A00011F00AFA4C4C206020B94FF416714B48B4
:1049B00004F064F8052120682FF0D6FC20B14FF4F4
:1049C0001A71464804F05AF8206800F001FA444B86
:1049D000206819682FF04EFD0C2515F04FFE684336
:1049E000099015F04BFE68430DEB05010790206818
:1049F0000BF05CFC20B140F27D21384804F03EF819
:104A0000256818F0F1F90022014628462FF0BCFD78
:104A100020B140F27F21314804F030F840F20353D6
:104A2000304D314E2B80052396F90000AB707F2866
:104A300001D115F069F83378EB7015F01FFE00EB2B
:104A400080008000A88015F019FE0023C0004FF000
:104A5000FF31E880AB604FF0FF3019A3D3E90023AA
:104A600015F0B0F82149206830F097F9206802A9C4
:104A70002FF069FD20B14FF42E71184803F0FEFFAE
:104A8000042220680DEB02012FF0E2FC042804D080
:104A900040F2BB21114803F0F1FF01A901202EF0E3
:104AA000D8FD04F033F9012016F090F82CF086FCC4
:104AB00016F0C4F814F048FF0EB070BDAFF30080DC
:104AC0000A0020FF42030000C23B0020C93E002034
:104AD000699801004C460020242F002054D3030085
:104AE00090440020182F0020CE490020159A010084
:104AF0000348044B834202D0034B03B1184770476D
:104B0000C8550020C855002000000000064B07498A
:104B1000C91A891048BF0131491003D0044B0BB1A9
:104B200001481847704700BFC8550020C8550020ED
:104B30000000000010B5064C237843B9FFF7D8FFFA
:104B4000044B13B10448AFF300800123237010BD60
:104B5000423C002000000000C0D6030008B5054B11
:104B60001BB105490548AFF30080BDE80840FFF7D9
:104B7000CDBF00BF0000000038160020C0D60300E3
:104B8000A3F5803A704700BF174B002B08BF134BAB
:104B90009D46FFF7F5FF00218B460F461348144A48
:104BA000121A34F090FF0E4B002B00D098470D4B9B
:104BB000002B00D098470020002104000D000D4874
:104BC000002802D00C48AFF300802CF0EDF8200054
:104BD00029002CF010F92CF0CDF800BF00000800DF
:104BE00000000000000000000010002098100020CD
:104BF000543F0020000000000000000007B501A89D
:104C000001F0F8FD9DF80530012B27D1214A936D65
:104C1000DB0313D4536B23F4FF0323F4FE4343F469
:104C2000BC1343F4A0635363136B23F4704343F446
:104C300040431363136B43F4E06313639DF8043044
:104C400063B94FF000531B68134B1B68134B1B6871
:104C5000134B1B68134B1B68134B1B68134AD2F88A
:104C6000803043F00303C2F8803002F001FF2CF0E3
:104C70006CFE2CF01BFE2EF0A7FE04F077FF00F078
:104C8000DFFA03F0EBFB00F045FE03B05DF804EB48
:104C900005F082BA00C000500040002000800020D3
:104CA00000C00020000001200040012000800050D2
:104CB00030B5194D95B00DAC0FCD0FC495E8070078
:104CC00084E807000021154B154A0DF12600CDE9B7
:104CD00003230E22CDE9051134F0F5FE4FF48021B7
:104CE000104B0DAACDE907130B238DF824300C23AC
:104CF0008DF825300C4B07A90A9320230B93012331
:104D00008DF831308DF83230084B0948009303ABF1
:104D100003F014F915B030BD549B030021010101CB
:104D20000080055024800550433C00205016002090
:104D3000A0160020831E012B10B512D8012922D8FD
:104D40000121114B04221B6C0846C3F3400301F000
:104D5000C7FB0E4B1B681868A8B1BDE81040436A3A
:104D600018478B1E012B0CD801280CD8BDE8104029
:104D70000121054B00221B6C0846C3F3400301F0E0
:104D8000AFBB0129E5D910BD00C003501C44002071
:104D900008B50449044805F0B5FABDE80840FFF736
:104DA00087BF00BF20440020C416002001482CF01B
:104DB000C5BF00BFA0160020014B1A6A1868104733
:104DC000A0160020014B1878704700BF633C0020FC
:104DD00008B50BF099FA0022014B1A7008BD00BF0C
:104DE000633C00200348044A0449121A92102CF034
:104DF00057B900BF34410000D0420000543F0020AA
:104E000008B500F02FF8FFF7EDFF124B12498B4267
:104E100012D30020114B12498B4218D3FFF7B4FE76
:104E2000186850F82240586840F8224001329868CB
:104E30008242F5D30C33EAE70022F8E71C6844F815
:104E4000220001325C68A242F8D30833E4E7002272
:104E5000F8E700BFC8D60300D4D60300D4D60300B9
:104E6000D4D60300124B134A70B59A60D3F8882049
:104E7000114D42F47002C3F888206FF0010205F56D
:104E80000054226641F2FF7262660222C3F8D0200B
:104E9000BFF34F8FBFF36F8F4FF44036032002F004
:104EA00037FE0320E66002F025FE2E6170BD00BFD4
:104EB00000ED00E00040000000800044014B186855
:104EC000704700BF2C440020014B1860704700BFA2
:104ED0002C440020084B1B6F03F00703022B04D067
:104EE000032B05D0012B05D0FEE7044B1868704753
:104EF000034BFBE703487047008000502C44002020
:104F000034440020002D310108B5FFF7E3FF054BC5
:104F10001B6FC3F301330133B0FBF3F0024B186096
:104F200008BD00BF008000502844002000487047A2
:104F300000B4C404014B1868704700BF344400201B
:104F4000054B1860054B1B6F03F00703032B01D1C2
:104F5000FFF7DABF704700BF3444002000800050E4
:104F600000487047002D3101174B9868C0F304408A
:104F70000C280AD8DFE800F00B0909090909072104
:104F800019091B1D1F0011487047002070479B68BE
:104F900003F04073B3F1807F11D0B3F1007F10D0E4
:104FA0000B4A002B08BF104670470A4870470A4852
:104FB00070470A4870470A4870470A4870470A48CD
:104FC00070470A48704700BF0040015A405DC60064
:104FD00000093D00C0EA210180BA8C010048E801C7
:104FE000005A62020024F40080841E0040420F0038
:104FF000014B1868704700BF3044002000239B6AB3
:10500000B3F5804F03D21968064A914203D00023BA
:10501000037083607047012202709A689B69426046
:10502000F7E700BF07B0CD5E73B5494B04461A7869
:105030001AB102221A7002B070BDCDE90022002818
:10504000F9D001261E702CF097F8424D424B1860A3
:105050000DF092FF2B785BB900F05CFC40B93F4843
:1050600008233F4A3F4900680AF088FB00B92E70C8
:105070003D4B5A68E2603D4A9A601A6E22605A6E51
:105080006260D3F87021A2601B6E5C0440D5384A80
:10509000D368D807FCD4374B1A68531C3DD04FF463
:1050A00080139340344A13660423334C23664FF431
:1050B000806323662CF02CF801300ED02CF028F8F9
:1050C00040F20113984208D04FF4804323664FF416
:1050D000004323661023C4F870311023264C4FF090
:1050E000804223664FF400536846236601A9226676
:1050F00063662BF0F5FF009B2366019B63662B78AC
:10510000002B98D0164B1A6822665B68636692E79C
:105110001A4AD368D907FCD4BDE7194B1B78002B7A
:10512000C2D1184B5A68144B12B94FF480121A6648
:10513000154A526812B94FF400121A66134B5B6895
:10514000002BB1D14FF480020B4B1A66ACE700BFC5
:10515000653C0020663C0020DC1600205C440020FA
:10516000E0160020007108000080004455CEAC001D
:105170000000044038440020009000440000045027
:10518000643C00200080055000C00550000006501F
:1051900038B5224D04462B78012B02D001232B7009
:1051A00038BD0028FCD02BF0B3FF013009D02BF024
:1051B000AFFF40F20113984203D0194AD368DB07CE
:1051C000FCD42268174B1A6662685A66A268C3F854
:1051D0007021E268D40744BF00229A60124B1A681B
:1051E000013213D1114A127882B911494968C807AE
:1051F00048BF1A600F4A5268D10744BF01221A60A3
:105200000D4A5268D20744BF02221A600DF0BCFE5C
:105210000A4B18682BF0B6FF0023C0E7653C00205E
:10522000000004400080004438440020643C00201A
:105230000080055000C0055000000650DC1600201C
:1052400000239B6A70B5B3F5804F26D21A68144BC1
:105250009A4222D1134D2B7813F0FD0402D0002482
:10526000204670BD4FF480360F48FFF7DDFE032067
:1052700002F04EFC0D4B0320DE6002F03BFC0C4BB9
:105280001E61A36ADB69984704460748FFF780FF61
:10529000002CE5D101232B70E1E74FF48174DFE7A7
:1052A00007B0CD5E643C0020CC16002000A0004476
:1052B0000090004413B5214B1B7803B9FEE700238F
:1052C0001F4CCDE900336A4608231E4920680AF0C6
:1052D00055FA00BB1C4AD2F84031D2F840211F2BAE
:1052E0004FF0010312D9203A9340019A1A430192D8
:1052F00008236A46134920680AF0F6F94FF0005374
:10530000124A1A6002F0D2FB02B010BD9340009A1C
:105310001A430092ECE70E4B9842EFD10A4AD2F8BA
:105320004031D2F840211F2B4FF0010385BF203AB6
:1053300093409340019398BF0093D9E7653C0020C8
:105340005C44002000710800008000440B020FF054
:105350000BE000F0034B5868C0F30800003818BF9A
:105360000120704700ED00E013B5002429480194A6
:105370002CF0A3FA012304220321204601F0B0F807
:1053800020462BF093FF0122234B0520C3F8442431
:1053900001A92CF08DFA002839D1204BD3F8F02048
:1053A00042F00102C3F8F020D3F8FC2042F08072F2
:1053B000C3F8FC201A4AA3F55D431A60019B194A01
:1053C00003F5D52303F2FC43B3FBF2F3164A013B8A
:1053D00013610223C2F8F0304FF48073C2F8043333
:1053E0004FF06043114AC3F8B02F114AC3F8802E22
:1053F000D3F8002E42F48072C3F8002EFF2283F807
:105400002020D3F8002E22F48072C3F8002E02B0C0
:1054100010BD00BF109D030000D0035000ED00E060
:10542000FF030040F8590D00000004E055CEACC564
:10543000090001004FF06043D3F8802E30B5D20749
:1054400015D501240B4D8440D5F8FC2042F0807224
:10545000C5F8FC20D3F8002E2243C3F8002E53F8E1
:105460002020002AF0D003F82010002030BD1120A9
:10547000FCE700BF00ED00E02DE9F04F9A46564BE7
:1054800085B01B7806460F461546DDF83C909DF822
:1054900044B0DDF85080002B00F09780072A00F21E
:1054A00096800E9B002B00F09280B9F1000F00F067
:1054B0008E80129BB3F5006F00F38980012803D121
:1054C000109B002B00F08380444B03EB05131B7BE8
:1054D000002B7ED0424C10220021684634F0F3FAB3
:1054E00004EB45141022A7BB3946204634F0EBFAF2
:1054F00043F210036380BBF1000F03D1E37843F064
:105500000303E370364A0E9B02EB451CCCE9019382
:10551000129B6901581E9DF84C30C0F30A0003F03D
:1055200003039B0643EA001E53582E48012E00EA4F
:1055300003004EEA0003CDF800A0535017D0B8F195
:10554000000F2ED19CF8023068F304138CF802305F
:1055500027E00021204634F0B6FA4FF4447363800C
:10556000BBF1000FCED1E37843F03003C9E713233A
:105570000CF1100ECCF80C309CE80F008EE80F00F8
:105580006FF00301DCF81C20109B61F39F02012FD8
:10559000CCF81C20CCF8143003D1CCF81890CCF8FF
:1055A000043000270D4A290102EB051342F801805F
:1055B000159A28465A60694622469F605E7301F03C
:1055C00013F8384605B0BDE8F08F0748FAE70748FA
:1055D000F8E70748F6E700BF673C0020E81700201F
:1055E000E81600200F80FFF3028000F0018000F039
:1055F000078000F038B5124B05461B78DBB1E0B1EF
:105600002BF0BAFD0F4A00231146147B54B92B60CE
:1056100001251A0101EB03131D738C502BF0B2FD11
:10562000204638BD0133082B02F11002EDD12BF0DA
:10563000A9FD0548F5E70548F3E70548F1E700BF90
:10564000673C0020E8170020048000F0028000F092
:10565000018000F038B52BF08FFD002305460B4A82
:10566000147B6CB90133082B02F11002F8D100F061
:1056700077FF074B28461C702BF084FD204603E083
:1056800028462BF07FFD034838BD00BFE8170020F7
:10569000673C0020058000F00D4B10B51B780446D8
:1056A00093B1072812D82BF067FD0A4B03EB0413C4
:1056B0001A7B2AB100241C732BF064FD204610BD18
:1056C0002BF060FD0448FAE70448F8E70448F6E7E1
:1056D000673C0020E8170020068000F0028000F000
:1056E000018000F0154B13B51868002301908DF868
:1056F00004302BF041FD124B1C7824B12BF042FDFD
:10570000104802B010BD01221A702BF03BFD0E4B69
:1057100001A81C731C7783F82C4083F83C4083F865
:105720004C4083F85C4083F86C4083F87C4008234D
:105730008DF8073000F030FF2046E2E7C09B030001
:10574000673C0020038000F0E81700200A4A08B5F3
:1057500012785AB107280BD8084A02EB00131B7BBA
:1057600043B1002100F00AFF002008BD0448FCE717
:105770000448FAE70448F8E7673C0020E8170020EF
:10578000028000F0018000F0078000F00A4A08B5AE
:1057900012785AB107280BD8084A02EB00131B7B7A
:1057A00043B1012100F0EAFE002008BD0448FCE7F7
:1057B0000448FAE70448F8E7673C0020E8170020AF
:1057C000028000F0018000F0078000F00A4A08B56E
:1057D000127852B107280AD8084A02EB00131B7B43
:1057E0003BB100F04DFF002008BD0548FCE705482F
:1057F000FAE70548F8E700BF673C0020E8170020FB
:10580000028000F0018000F0078000F00D4B1B7853
:1058100093B1072812D889B10B4B03EB00131B7B04
:1058200073B10A4B1A6D01238340134214BF012345
:10583000002300200B7070470548704705487047EB
:1058400005487047673C0020E8170020000004501E
:10585000028000F0018000F0078000F00B4A10B5D4
:1058600012780C4662B107280CD859B1084A02EBED
:1058700000131B7B43B100F015FF2070002010BD0A
:105880000448FCE70448FAE70448F8E7673C0020CE
:10589000E8170020028000F0018000F0078000F08F
:1058A000184B2DE9F0411F6D5B6D1F4000D5FEE7E1
:1058B00001260025144CDFF85880374218D02368A1
:1058C000C8F85060A3B1A168284601316268A160A0
:1058D0009847637B012B0BD150B90C4B03EB45135D
:1058E0001A7B60F341021A731A7F60F341021A7740
:1058F0000135082D4FEA460604F11004DDD1BDE85C
:10590000F08100BF00000450E8170020E8160020D6
:1059100000200450024B1968024B186809F00ABEB7
:105920003C4400205C44002070B5940022460546AB
:105930000E4634F001F9431C0AD058B922463146CC
:10594000284634F096F80028034808BF002070BDB0
:105950000248FCE70248FAE710E000F021E000F01E
:1059600024E000F010B5044634F0EAF8431C10D0EF
:1059700088B900F04DFF234620F0030020449842F0
:1059800001D1002010BD53F8042B0132F7D0034899
:10599000F8E70348F6E70348F4E700BF0EE000F03D
:1059A00021E000F024E000F008B52BF0DAFB014B19
:1059B000186008BD581F0020014B18682BF0D5BB9C
:1059C000581F002041F67133124A30B5D469124D88
:1059D000D3639368A84204F4803423F4401306D8B8
:1059E00093600E4AD2F8183223F002030AE043F41F
:1059F000801393600A4B9842F3D9084AD2F81832C0
:105A000043F00203C2F8183214B10022014BDA63EA
:105A100030BD00BF00000350005A620200C00750B2
:105A200080F0FA022E4B98424AD022D82D4B984251
:105A300040D014D82C4B984239D00AD82B4B9842DE
:105A400032D02B4B98422FD02A4B98422CD000209A
:105A50007047294B9842FAD1284B186F7047284B52
:105A600098422AD0274B9842F1D1244BD3F880009A
:105A70007047254B98422BD009D8244B984223D00D
:105A8000234B9842E3D11D4BD3F88C007047214B38
:105A9000984221D003F5740303F510539842D6D1F0
:105AA000164BD3F898007047144B986D7047134B02
:105AB000586E7047114B586F7047104B986F704776
:105AC0000E4BD3F8840070470C4BD3F88800704716
:105AD0000A4BD3F890007047084BD3F894007047F6
:105AE0000048E8010024F400C0CF6A0080841E0052
:105AF00000093D0040420F00405DC6000080E00FFD
:105B0000C0EA210180BA8C01007E560380D5430291
:105B1000006CDC020090D00338B5134B0546D3F877
:105B200020010C4600F0070004281AD8DFE800F036
:105B300003090D111500012305B1286004B123608C
:105B400038BDFFF7BBF90423F6E7FFF7F3F90323AA
:105B5000F2E7FFF709FA0523EEE7FFF701FA022360
:105B6000EAE700231846E7E70080005037B50C4607
:105B70000021114B0191D3F88031054603F0030356
:105B8000022B0ED0032B11D0012B03D101A8FFF75C
:105B9000C3FF0D210DB1019B2B6004B1216003B047
:105BA00030BDFFF7E1F905210190F3E7FFF7D8F9E0
:105BB00002210190EEE700BF0080005038B5104B85
:105BC0000546D3F840310C4603F00303022B0BD0FB
:105BD000032B0DD0012B0FD12BF06FFA082305B149
:105BE000286004B1236038BDFFF702FA0723F6E707
:105BF0002BF066FA0923F2E701230020EFE700BF4C
:105C00000080005038B5104B0546D3F860310C4683
:105C100003F00303022B0BD0032B0DD0012B0FD16C
:105C20002BF04BFA082305B1286004B1236038BD7E
:105C3000FFF7DEF90723F6E72BF042FA0923F2E734
:105C400001230020EFE700BF0080005038B5144B5F
:105C50000546D3F800020C4600F0070004281BD8C4
:105C6000DFE800F003090D111500012305B12860DC
:105C700004B1236038BD2BF020FA0823F6E7FFF7C4
:105C8000B7F90723F2E72BF01BFA0923EEE7FFF73A
:105C90003BF90C23800AE9E700231846E6E700BF3A
:105CA0000080005038B5144B0546D3F808020C4666
:105CB00000F0070004281BD8DFE800F003090D11ED
:105CC0001500012305B1286004B1236038BD2BF015
:105CD000F4F90823F6E7FFF78BF90723F2E72BF037
:105CE000EFF90923EEE7FFF70FF90C23800AE9E744
:105CF00000231846E6E700BF0080005038B5104B7F
:105D00000546D3F840320C4603F00303022B0BD0B8
:105D1000032B0DD0012B0FD12BF0CFF9082305B1A8
:105D2000286004B1236038BDFFF762F90723F6E766
:105D30002BF0C6F90923F2E700231846EFE700BF6E
:105D40000080005038B5104B0546D3F800310C46A2
:105D500003F00303022B0BD0032B0DD0012B0FD12B
:105D6000FFF7E8F8032305B1286004B1236038BDCC
:105D7000FFF73EF90723F6E72BF09DF90623F2E73C
:105D800001230020EFE700BF0080005038B50C462B
:105D900005462BF0E6F9054B9A6A54402C405440D6
:105DA0009C62BDE838402BF0E0B900BF00C0005055
:105DB000032814D005D8012805D0022809D00020D6
:105DC00005E00F28FBD1084B186FC0F301300130FC
:105DD0007047054BD3F89000C0F30460F7E7024B1F
:105DE000186FC0F38020F2E7008000501FB5002339
:105DF0000193252817D8DFE800F0131A1D272C3649
:105E00003B51565B60656A78161A401616561A277B
:105E10002C27361A5127783B3B3B3B2727275B60D3
:105E2000FFF758F80190019805B05DF804FBFFF703
:105E30006BF8F7E7FFF74EF802460220FFF7B8FFCE
:105E4000B2FBF0F20192EEE7FFF75EF802460320A4
:105E5000F4E7FFF759F802460320FFF7A9FFB2FB6A
:105E6000F0F25208EEE7002101A8FFF77FFEDAE723
:105E7000002101A8FFF750FED5E702934FF0E02381
:105E80001B695B0705D5FFF73FF80290029B019362
:105E9000C9E703A902A8FFF791FEF7E7002101A8CF
:105EA000FFF78CFEBFE7002101A8FFF7ABFEBAE7C2
:105EB000002101A8FFF7CAFEB5E7002101A8FFF7FE
:105EC000F1FEB0E7002101A8FFF73CFFABE7094B6B
:105ED000D3F8803003F00303022BA8D0032B01D0AA
:105EE00000209FE7FFF740F89CE7002101A8FFF79B
:105EF00005FF98E70080005008B50120FFF776FF06
:105F0000BDE808400349884294BF012102210320D3
:105F100000F002B880F0FA02032810B50C4627D032
:105F200004D8012804D0022817D010BD0F28FCD1B6
:105F30002BF089F92BF08FF9124A013C136F23F4EF
:105F4000405343EA04331367FEF7DEFF0021FFF7F7
:105F500039FDBDE81040FFF7CFBF0A4A4C1ED2F80A
:105F6000903023F0F85343EA0463C2F89030DCE742
:105F7000044A4C1E136F23F4806343EA842313679F
:105F8000D3E700BF008000501FB5002301932528F0
:105F900021D8DFE800F013202020202A2F454A4F87
:105FA00054595E7120203420204A202020202A20AD
:105FB0004520712F2F2F2F2020204F54314B1B6F46
:105FC00003F00703013B032B05D8DFE803F00C02C5
:105FD000080A04230193019805B05DF804FB03232C
:105FE000F8E70623F6E70223F4E7002001A9FFF70C
:105FF000BDFDF0E7002001A9FFF78EFDEBE702935E
:106000004FF0E0231B695B0705D5FEF77DFF0B23EF
:106010000393039BDEE703A902A8FFF7CFFDF8E790
:10602000002001A9FFF7CAFDD5E7002001A9FFF76D
:10603000E9FDD0E7002001A9FFF708FECBE700202B
:1060400001A9FFF72FFEC6E7002001A9FFF77AFE9E
:10605000C1E70C4BD3F8803003F00303022B03D0CD
:10606000032B05D00023B5E7FEF74EFF0B23B1E766
:10607000FEF77AFF0523ADE7002001A9FFF73EFEFA
:10608000A9E700BF00800050024A536A23F00103D1
:106090005362704700C0075038B50546FFF7C2FC91
:1060A000204B04465A68012A04D11F494A609A6964
:1060B0009207FCD10020FFF767FF042803D12BF0E3
:1060C000C2F82BF0C8F8194A24F0407395421FD04B
:1060D000174A95421FD0174AD16811F0060FFBD11D
:1060E0009068936091684B4013F4F81F16D12846CE
:1060F000FEF7EAFE0020FFF747FF042810D1FEF765
:1061000003FF0021FFF75EFCBDE83840FFF7F4BE57
:1061100043F00073DFE743F08073DCE79060E9E76A
:1061200038BD00BF00C0015000E0015040420F00E8
:1061300080841E0000000150F8B504460020FFF7DF
:1061400023FF032800F0818045F60E0302213F4A19
:10615000C2F880303E4B9962012103F58053996269
:10616000936DD903FCD4D4E900131B0543EA016302
:10617000E17B94F820500B43217BE77E43EA014307
:10618000617B6D0143EA0133A17B43EA8113136113
:106190009169D4E904031B0643EA806301F00041DE
:1061A0000B43A17E94F823000B43217E43EA014375
:1061B000617E43EA01239361136AE66923F00D03CC
:1061C00094F8221043EA870366BB1362966A94F838
:1061D000213045EA031326F033052B4343F0010336
:1061E00093621C4D194A936D35EA0303FBD10225D6
:1061F000174B9D62936D5B00FCD41369A56823F473
:10620000700343EA055313614FF00042104B9A614B
:1062100019B9022203F580539A6278B901220E4B14
:106220009A620BE0334343F008031362936A23F04E
:10623000330303432B4343EA4103936294F824302E
:106240001BB1024B054AC3F88020F8BD00C00050C6
:1062500000D000500300014000E00050F1A7FFFF14
:1062600070B5184CFF28A66A2AD8A36D13F4803F96
:1062700018BF0122144B18BF9A6202229A62A56DC0
:1062800015F08045FBD1114AA36992F9002023F44F
:106290007F03024423F47F4382F3080243EA00238E
:1062A00043EA0243A36131460220FFF76FFDA36D6D
:1062B000DB0303D531460120FFF768FD284670BD9A
:1062C0002125FBE700C0005000D00050683C0020B2
:1062D00070B50F4CA66AA36D13F4803F18BF01225E
:1062E0000C4B18BF9A6202229A62A36D5A00FCD42A
:1062F00031460220A569FFF749FDA36DC5F30725C7
:10630000DB0303D531460120FFF740FD284670BD71
:1063100000C0005000D00050014B93F900007047BE
:10632000683C002001231248124A816A9362836DFF
:1063300003F00303032BFAD1022393620C4A936DFB
:106340005800FCD40C48936D30EA0303FBD10122C2
:10635000084B1A65A3F580539A6D9207FCD49A6D89
:106360009007FCD59A6D9207FCD50320FFF70EBD70
:1063700000C0005000D0005003000100014B188005
:10638000704700BF58490020284B984242D01AD885
:10639000A3F5B703A3F55863984237D00CD8244B24
:1063A000984225D0234B98422AD0234B984217D0AD
:1063B0000023224A93607047214B9842F8D1214B29
:1063C000D3F8BC301FE0204B984227D01F4B984297
:1063D00028D01F4B9842EBD11A4BD3F8C83012E0AB
:1063E000184BD3F8A03023F0407343F00073E0E77C
:1063F000144BD3F8A03023F0407343F08073D8E7F8
:10640000104BD3F8A03023F04073D2E70D4BD3F8F4
:10641000B830F8E70B4BD3F8C030F4E7094BD3F8AA
:10642000CC30F0E7074BD3F8D030ECE7C0EA2101DD
:1064300080841E0000093D0040420F000040015AC8
:106440000024F4000080E00F0048E801005A6202D6
:1064500080BA8C010C4A10B51369044643F004035A
:10646000136104F01DF92AF00EFF084B084AC3F827
:10647000202430BF2AF008FF04F034F91CB9BDE82D
:106480001040FEF741BD10BD00ED00E000E00350FC
:106490000000FFFF0A4A10B51369044643F00403E5
:1064A0001361084B084AC3F8202404F0F9F830BF00
:1064B00004F018F91CB9BDE81040FEF725BD10BD69
:1064C00000ED00E000E003500000FFFF034A017907
:1064D000D36E23F030030B43D36670470040005067
:1064E000F8B504460D461F4616464AB101238B40B7
:1064F0003021184A01FB0022F7B141F2100153503C
:1065000004EB4403072D4FF00F014FEA031316D895
:10651000A80006FA00F281400F4818442AF0B7FE9E
:106520004EB9012330210B4AAB4001FB042277B165
:1065300041F210015350F8BD42F21001DFE7A5F11E
:106540000800800006FA00F281400448E5E742F2C4
:106550001001EFE700C0035004C003500CC003500B
:1065600008B5152001F0B4FA0022FF21024B5A654C
:1065700099625A6008BD00BF00000450044A054BF0
:10658000002908BF1346012282401A60704700BFED
:10659000401004504020045010B504464178027861
:1065A0000120104B120658609A60A278152042EA2A
:1065B00001429A61FF229A6200229A631A644FF0A4
:1065C00000425A654FF0FF3203F500531A6501F09F
:1065D0009FFA1520E17801F0A9FABDE810401520D6
:1065E00001F088BA00000450F8B50125C3B2DFF805
:1065F0008CC0D1F800E09D408F7ACB7A0C46097BA5
:10660000CCF850500CF5005C4CF820E04FF0300E08
:10661000184E1B050EFB006094F80DC043EA0743BB
:1066200043EA415322F00302C0F860C0C365026729
:106630002AF0A2FD104B5D65237A13B1336C2B4316
:106640003364637A13B1B36B2B43B3632279A379B9
:1066500043EA0243094A93616179E37943EA0143DA
:1066600005498B61034B55639D64BDE8F8402AF0F2
:1066700089BD00BF000004500010045000200450E9
:1066800010B50124C0B284402AF076FD044B5A6D47
:1066900022EA04025A659C62BDE810402AF072BDED
:1066A0000000045010B50124C0B284402AF064FDFB
:1066B000074BDA6A224208D15B6B9C430CBF012472
:1066C00000242AF05FFD204610BD0024F9E700BF3A
:1066D0000000045041F67132034BDA63012203F5E6
:1066E0000053DA60704700BF0000035041F671327A
:1066F0000121044BDA6303F50052D1600022DA6312
:10670000704700BF00000350044B1868421C02BFD2
:10671000034AD2F894001860704700BF604400201C
:1067200000400050CB784A7810B55B010C7843EA02
:1067300082030A79234343EA02130C22424302F103
:10674000B0421363012C02BF8A78024B43F8202029
:1067500010BD00BFD080035008B54FF0B0435A6859
:106760006AB958B15B680BB12AF0A7FD01210D4B46
:1067700059602AF0A2FD4FF0B043D96008BD5B68B4
:106780000BB12AF09AFD0028F0D12AF096FD4FF0C7
:10679000B0430222DA602AF090FD0122024B5A60D7
:1067A000ECE700BF00100058002000584FF0B04147
:1067B0004B6810B50BB12AF080FD01220B4BC47859
:1067C0005A608378934043EA8403447823430479EE
:1067D00043EA0413447943EAC4038B60044B5A60D0
:1067E0000378C3F10203CB6010BD00BF0020005846
:1067F00000100058054B5B69C3F38512827003F0EB
:106800003F021B0B42700370704700BF00C007506F
:106810000120034B9B680A3303F01F039840704725
:106820000080E00F0D4B984208D1A3F50033C3F868
:106830008411C36D43F08003C3657047084B9842D1
:1068400004D1A3F51033C3F89411F2E7054B984235
:1068500004BFA3F52033C3F8A411EAE70080055074
:1068600000C005500000065070B5054616461C468F
:1068700019B90320FFF7BAFA0146402C1BD003D800
:10688000DCB1202C1BD070BD602CFCD1042303FB99
:1068900006F2530803EB4113B3FBF2F3094A203B22
:1068A00002EAC303AA6822F06002AA60AA6814433D
:1068B000AC60EB61E7E70623E9E71023E7E708238D
:1068C000E5E700BFF8FF7F00012200F580535A6022
:1068D00040F6AA6341F20502436100230D4983603B
:1068E000C365C26000F500520361C361C364916473
:1068F00009498365884203D103650023436506E0A7
:1069000006498842F8D001F580418842F4D001233D
:1069100053607047FFFF01000080055000C0055024
:1069200070B50D46FFF7D0FF012300F58056736068
:10693000AB7C04461BB1836843F080438360EB7CEF
:106940001BB12046297DFFF76DFF2A8A6B7B20460D
:106950001343EA891343E3602B7BD5E90112FFF768
:1069600083FF6B7D1BB1A36843F48033A360AB7DD1
:106970001BB1A36843F40043A360EB7D2A7E1B0791
:10698000120502F4E00203F0E0431343A365697EBD
:106990001F4A8B1E012B1F4B1DD8944217D002F5A6
:1069A0008042944215D002F5804294420CBF0222EC
:1069B0004FF0FF3203EB4213022041F2AC520329A5
:1069C000985020D10423F3652B78636170BD0022B9
:1069D000F0E70122EEE7944211D00F4A944210D022
:1069E00002F5804294420CBF02224FF0FF3203EBCB
:1069F0004213022042F2AC5201299850E1E70022F2
:106A0000F5E70122F3E7042204F50053DA65DBE73A
:106A10000080055000C0035000C0055038B5044642
:106A2000054D2DF038FD0FCC0FC594E80F0085E81B
:106A30000F00002038BD00BF5C1F002047F6FF7329
:106A40009A42F0B572D0022972D83A4B5B5C022BA5
:106A50006ED8394DDF0005EBC304A17815F833304B
:106A6000012938BF0121012B13D10025E078401AFC
:106A7000A84202D80844C0B2F0BD431B6668A0EB30
:106A8000530336F913609642D4BF1D4603F1FF301D
:106A9000EEE760680028EFD0B0F90040944204DBD4
:106AA000B0F902409442B8BF144683883D44FF2B9E
:106AB00019BFC8224FF0280CB0F90620B0F908C061
:106AC000A2EB04030CBF0126002693FBFCF3334426
:106AD0006E781BB29E4201DD002B01DA731E1BB2E1
:106AE0004FF47A7C01339BB2071D5D1E2DB24FEA35
:106AF000C50E00EBC505EA88AD689E4214FB025244
:106B000022EAE27202F15C02B2FBFCF204DD37F829
:106B1000335001339542E8D200EB0E03988890423F
:106B200028BF1046884238BF0846A4E7FF20A3E7E5
:106B30000020A1E7E59B03005C1F00200229F0B5BF
:106B400060D8314B595C02295CD8304B13F83100C6
:106B5000012816D103EBC1039C78D878012C21467B
:106B600038BF0121904294BFC1EB0001C1EB02018B
:106B7000001BCAB28242C8BF00225B6833F9120010
:106B8000F0BD002A3CD003EBC1035968002939D07D
:106B90009878904202D3B1F90200F1E7DC78B1F9BC
:106BA00000009442ECD95C788B88013CA3F1FF068D
:106BB000734201F10405E4B2734101F10C07DEB246
:106BC000B44216D805EBC3034FF47A756A43B3F9A0
:106BD00002405B68D21A04EBD47302EB630292FBAF
:106BE000F4F29042CCDBB1F902009042C8DC10B262
:106BF000C6E737F833C05E1C9445E3D33346DEE77F
:106C00000348BDE70348BBE7E59B03005C1F00208A
:106C10000CFEFFFF0080FFFF08B50448FFF7FEFEF3
:106C2000BDE8084001202DF05BBC00BFE89B0300DD
:106C30007FB51422002101A832F045FF044B01A9C1
:106C40004FF0FF3002932DF08BFC07B05DF804FB92
:106C5000006A18002DE9F0418CB08846DDE9127613
:106C60001D460446002847D0002945D0002F43D0B8
:106C7000002E41D013F00F033ED120482049A360DD
:106C8000002A08BF0146E361C4E90013404609A990
:106C90002AF06AFC68BB204609992AF056FD29466D
:106CA00020462AF052FD694640462AF00BFD00BB03
:106CB000694620462AF035FD404603A92AF00DFD1D
:106CC000B8B9204603A92AF02CFD069701272046D3
:106CD00045F0005506A9079708952AF022FD2046A1
:106CE00009A909960A970B952AF025FD20462AF056
:106CF000C9FB0CB0BDE8F0812120FAE700010004D7
:106D0000000101042DE9F04F97B0894690461F46D7
:106D10000546DDF880A0002800F0BB80002900F0C7
:106D2000B8803AB1229B002B00F0B380239B002B4C
:106D300000F0AF80BAF1000F00F0AB80219B002B78
:106D400000F0A78067B13C680026229B4344029371
:106D5000464507D307B13C60002017B0BDE8F08F6F
:106D60003C46F1E75CB1229B219A9B5D125D0134A8
:106D70005340239A04F00F0493550136E8E7A8EB3B
:106D8000060BBBF10F0F58D9434B4846C5E90034F9
:106D9000AC60EC6113A92AF0E7FB0028DDD128469E
:106DA00013992BF00F0B2AF0D0FC594628462AF0F5
:106DB000CCFC484604A92AF085FC0028CDD1284601
:106DC00004A92AF0AEFC484607A92AF086FC002850
:106DD000C3D1284607A92AF0A4FC012322992F4AEF
:106DE000CDF828A00B930C928A190D9228464BF0EF
:106DF00000520AA90E9303920F922AF092FC2846A1
:106E00000DA92AF08EFC239B039A99190123109156
:106E100011931292214A284610A9CDF84CA0149340
:106E200015922AF088FC284613A92AF084FC2846EB
:106E30002AF028FB5E4400288FD1229B03EB060B2F
:106E4000239B1E44029B5B4501D1464680E7ACB9BB
:106E5000219B2246CDE900A3494610232846FFF78F
:106E6000F9FE00287FF479AF0AF1100212F8013D13
:106E70000133DBB213700BB95245F7D1219A1BF8DD
:106E8000013B125D0134534006F8013B04F00F044E
:106E9000D8E7212061E700BF0303000410000020B1
:106EA0002DE9F04F97B0894615469A460446209F33
:106EB000DDF88880DDF890B0269E002800F09D80E7
:106EC000002900F09A80002E40F08A80002B00F00C
:106ED0009480B8F1000F0AD0219B002B00F08D8028
:106EE000002A40F09F80F10700F1878002E0002A2D
:106EF00040F08580FB1F062B7FD8524B0BEB050221
:106F00009A427AD80023504A4846C4E90023A36035
:106F1000E36113A92AF028FB00285ED120461399CB
:106F20002AF013FC204646EA07412AF00EFC4146AF
:106F300020462AF00AFC294620462AF006FC48464C
:106F400001A92AF0BFFB002847D1204601A92AF059
:106F5000E8FB484604A92AF0C0FB00283DD14FF0C9
:106F60000109204604A92AF0DCFB239B45F00055CB
:106F70000793219BCDF82090204609950DA90A93EF
:106F800047F0005748F00053CDF82C900C93CDF803
:106F900034A0CDF838900F972AF0C3FB20460AA9F9
:106FA0002AF0BFFB204607A92AF0BBFB259B204601
:106FB00010A946F00056CDF840B0CDF84490129597
:106FC0001393CDF8509015962AF0B5FB204613A9DF
:106FD0002AF0B1FB20462AF055FA17B0BDE8F08F31
:106FE000259B53B1BAF1000F07D0B8F1000F01D0C3
:106FF000219B13B1B5B9022E20D12120EDE7239BAF
:10700000002BFAD0BBF1000FF7D0C7F10F03DBB2B2
:10701000032B3FF668AF0122DB0002FA03F3AB4219
:10702000EBD9E8E7239B002BE7D0BBF1000FE4D0BE
:10703000C7F10F03DBB2032BDDD8ECE7102E7FF690
:1070400052AFDAE700000120000005042DE9F04FFF
:1070500099B0884615469B460446229FDDF89890D5
:10706000289E60B159B1279B4BB1BBF1000F06D0F0
:10707000249B0BB1239B13B11DB9022E13D12123E5
:107080009AE0259B002BFAD0B9F1000FF7D0C7F199
:107090000F03DBB2032BF0D80122DB0002FA03F36B
:1070A000AB42ECD9E9E7731E0F2BE8D816F0010AC2
:1070B000E5D1FB1F062BE2D8414B09EB05029A42B2
:1070C000DDD8404B4046C4E9003AC4F808A0C4F8F3
:1070D0001CA015A92AF048FA034600286CD12046C6
:1070E00015992AF032FB204646EA07412AF02DFB8B
:1070F000204624992AF029FB294620462AF025FB20
:10710000404603A92AF0DEFA0346002854D120465F
:1071100003A92AF006FB404606A92AF0DEFA034638
:10712000002849D14FF00108204606A92AF0F9FAB3
:10713000259B2046099345F00053CDF82880019304
:107140000B93239B0FA90C93249B47F0005743F00C
:107150000052CDF834800E92CDF83CB0CDF840808E
:1071600011972AF0DEFA20460CA92AF0DAFA204616
:1071700009A92AF0D6FA019B204612A9CDF8489019
:10718000CDF84C8014932AF0D6FA279B204615A9F7
:1071900046F000561593CDF8588017962AF0C1FA9C
:1071A00020462AF06FF9034630B101902A46514635
:1071B000484632F088FC019B184619B0BDE8F08FB4
:1071C00000000120000006047FB50E461D4604465F
:1071D000F0B102B9E3B901230192029345F00053E3
:1071E000039300230B4AA360C4E90023E361204614
:1071F00001A92AF096FA314620462AF0A6FA20463E
:1072000029462AF0A2FA20462AF03CF904B070BDC3
:107210002120FBE70000094330B5048804F4E04373
:10722000B3F5005F2ED1C4F30223042B2AD181F0E1
:10723000AA6383F4807333F47E132AD081F0AA63A7
:1072400083F4007333F47E1323D00023144D21F410
:107250007E11A9421AD1B4F5105F17D1418821F0EF
:107260004000802802D0B1F5807F15D1191F0C296C
:1072700012D8DB0710D4073A072A34BF00206FF07A
:10728000860030BD42F204039C42DED16FF08500DF
:10729000F7E7C1F30543D9E76FF08600F1E700BFD8
:1072A000000140052DE9F04F9BB08146DDE92876CD
:1072B0001D468B46DDF8A880DDF8BCA0099241B1DF
:1072C00038B1249B2BB1269B0BB9279B0BB91FB957
:1072D0004EB16FF086047FE02EB1B8F1000FF8D008
:1072E0002B9B002BF5D02C9B002BF2D0BAF1000F7A
:1072F000EFD02E9B002BECD02D9B002BE9D0B9F8C2
:10730000003003F4E042B2F5005F69D1C3F302221A
:10731000042A65D185F0AA6383F4807333F47E1365
:1073200006D085F0AA6383F4007333F47E1360D132
:10733000C5F3054329464846259ACAF80030FFF7A9
:107340006BFF0446002847D1014620220AA832F0EC
:10735000BAFB2022214612A832F0B5FB0AA82AF077
:10736000A4F8002855D159464846099A12AB2AF08C
:1073700057FA044600282FD12B9B9E424CD8DAF8AE
:1073800000302E9A934247D8474508D2BB199845FA
:1073900005D239463246404632F07BFB4746204B09
:1073A00025F47E159D4226D1DAF800303246069348
:1073B0002D9B0397CDE90483279B12A90293269B5B
:1073C0000AA80193259B0093249BFFF769FD2128C0
:1073D00019D0D8B92C9B1E6020461BB0BDE8F08F99
:1073E00042F20402934204D185F0052383F4801312
:1073F0009BE700239EE76FF0880400232C9A13601C
:10740000CAF80030E8E76FF08604F6E76FF0920400
:10741000F3E76FF09204DFE76FF08904DCE700BF69
:10742000000140052DE9F04F99B08A46DDE9266557
:107430009346984681462A9F28B96FF086042046D5
:1074400019B0BDE8F08F0029F7D0229B002BF4D0B3
:10745000249B13B9259B002BEFD10EB9002DECD145
:1074600017B92B9B002BE8D12C9B002BE5D0289B38
:10747000002BE2D041464846239AFFF7CDFE044652
:107480000028DCD1202201460DEB020032F01BFB6C
:107490002022214610A832F016FB08A82AF005F891
:1074A00010B16FF09204CAE75A465146484610ABF5
:1074B0002AF0B6F904460028C1D12B9B9D422AD858
:1074C000BE4208D273199F4205D231462A46384639
:1074D00032F0DFFA3E46144B28F47E1898451DD151
:1074E000299B2A460693289B0396CDE90473259B86
:1074F00010A90293249B08A80193239B0093229B2D
:10750000FFF7A4FD212898D02C280AD00028C8D144
:107510002C9B1D6093E76FF0890490E76FF088045F
:107520008DE76FF094048AE700014005084B98420C
:1075300002D0084B984207D10B88B3F5105F0CBFFF
:1075400000206FF0850070476FF08500704700BF26
:10755000004440040013C0042DE9F04F9946002375
:10756000A3B09346DDE92E74DDE93068CDE906333A
:10757000CDE90833CDE90A33CDE90C33DDF8C8A0F5
:107580000490059129B96FF08605284623B0BDE81F
:10759000F08F002AF7D00FB9002CF4D12C9B13B92F
:1075A0002D9B002BEFD116B9B8F1000FEBD1BAF13A
:1075B000000FE8D048460499FFF7B8FF05460028B9
:1075C000E3D10146202212A832F07DFA202229467A
:1075D0001AA832F078FA12A829F067FF002878D1AB
:1075E000DDE904015A461AAB2AF01AF905460028CB
:1075F000CBD11A982AF0D1F805460028C5D114B984
:10760000CAF80000C1E7B7420AD23B199E4207D22E
:107610004445B8D839462246304632F03AFA374621
:107620004E4B994558D003F54073994515D04C4BB6
:10763000994540F08C804445A5D814F00F02A2D1A2
:107640002346CDE900761AA912A8FFF703FB0746E7
:10765000002834D1CAF8004097E700234445CDE91B
:107660000E33CDE910338ED82D9B0D2B8BD10123FA
:107670008DF838302C9B0DF1390203F10C0153F8D1
:10768000040B8B4242F8040BF9D11B7813700123D1
:107690008DF8473014F00F0933D10F2CDAD906AB2F
:1076A00001930EABCDE90276009324F00F02002384
:1076B0001AA912A8FFF726FB0746002843D0424626
:1076C0000021304632F0FFF90023012FCAF80030C4
:1076D00040D06FF0920558E744453FF654AF2D9BDC
:1076E000102B7FF450AF2C9B0DF1380C03F1100ED2
:1076F000624618685968083303C273459446F7D147
:10770000C8E724F00F033B440DF1280C03F1100EE1
:10771000624618685968083303C273459446F7D126
:107720000F2CBCD824F00F03334403930AAB02930D
:1077300006AB01930EAB00934A4600231AA912A888
:10774000FFF7E0FA83E7B9F1000F83D0EAE76FF0C3
:1077500085051AE76FF08B0517E700BF0010C0041E
:10776000004440042DE9F04F994600239FB0934612
:10777000DDE92865DDE92A788A46CDE90633CDE9D9
:107780000833CDE90A33CDE90C33059029B96FF000
:10779000860420461FB0BDE8F08F002AF7D00EB94E
:1077A000002DF4D117B9B8F1000FF0D12C9B002BAC
:1077B000EDD048460599FFF7B9FE04460028E8D108
:1077C000014620220EA832F07EF92022214616A87A
:1077D00032F079F90EA829F068FE002844D15A4603
:1077E0005146059816AB2AF01BF804460028D0D164
:1077F000169829F0D2FF04460028CAD115B92C9B4F
:107800001860C6E7BE420AD273199F4207D24545A7
:10781000BDD831462A46384632F03BF93E46344B15
:10782000994549D003F54073994520D0314B99458E
:1078300054D1454555D82B07A9D12B460122CDE976
:10784000006716A90EA8FFF705FA2C9B06461D60D7
:1078500000289ED042460021384632F034F90023F9
:107860002C9A012E13603FD06FF0920491E70D3DEA
:10787000454536D801238DF8283033460DF12902CD
:1078800006F10C0153F8040B8B4242F8040BF9D1BA
:107890001B780D3613704FF48073ADF8363006AB9D
:1078A00001930AAB00932A460023CDE9026716A98B
:1078B0000EA8FFF727FAC8E7103D454511D8334613
:1078C0000DF1280C06F1100E62461868596808334D
:1078D00003C273459446F7D11036E0E76FF0850494
:1078E00057E76FF0890454E76FF08B0451E700BF4E
:1078F0000010C0040044400430B58BB06C46554DB8
:107900000FCD0FC40FCD0FC495E8030084E803002A
:10791000514BD3F84C21110340F18380A3F5FE4372
:107920001C884FF6FF739C4208BF8C248DF81940C9
:10793000FEF7F2FC044484F3080448488DF818402C
:10794000FDF7FEFA6846FEF7F7FB3220FEF716FD5C
:10795000434C4448FEF7A0FB4348FEF715FD29F0D1
:107960007EFC236F002023F0070343F0030323670B
:10797000236F23F4505343F48063236729F076FC8C
:107980003A4BD3F8FC20D2014FD4D4F8803023F006
:10799000030343F00203C4F88030314BD3F82021B5
:1079A00022F0070242F00202C3F82021D3F880211E
:1079B00022F0030242F00102C3F88021D3F84021F3
:1079C00022F0030242F00102C3F84021D3F8602103
:1079D00022F0030242F00102C3F86021D3F84022F2
:1079E00022F0030242F00102C3F84022D3F8002241
:1079F00022F0070242F00102C3F80022D3F8082265
:107A000022F0070242F00102C3F80822FEF73CFB15
:107A10004FF0E0220020136963F0040313610BB000
:107A200030BDD3F85041E4B280E7D3F8FC2022F017
:107A30008072C3F8FC20D4F8802022F0030242F0C8
:107A40000202C4F88020D3F8FC2042F08072C3F810
:107A5000FC20A2E7D49C03000080E00F00F0490264
:107A60000080005000B4C404C0EA210100ED00E031
:107A70006FF00403502110B50A480B4C13F0800F2F
:107A800003F1010206D123443D2A83F80013134673
:107A9000F4D110BD03F00F03043B034419761346E1
:107AA000ECE700BF00ED00E000E100E0BFF34F8F26
:107AB0000549064BCA6802F4E0621343CB60BFF38A
:107AC0004F8F00BFFDE700BF00ED00E00400FA05A6
:107AD00000280CDB01220649430900F01F00824008
:107AE000203341F82320BFF34F8FBFF36F8F7047D0
:107AF00000E100E0002807DB01234109034A00F010
:107B00001F00834042F82130704700BF00E100E0D1
:107B1000002808DB01224309034900F01F008240CE
:107B2000603341F82320704700E100E00028ACBF3B
:107B300000F16040064B4FEA0111C9B2ABBF00F53E
:107B4000614000F00F0080F800131954704700BF27
:107B500014ED00E010B5044629F003FB024B1C6055
:107B600029F003FB002010BD7C1F002010B529F078
:107B7000F8FA034B1C6829F0F8FA204610BD00BF44
:107B80007C1F002038B50C461546014610B9FFF79A
:107B9000EDFF01462B462246034806F0F1FA002885
:107BA000D4BF3720002038BDB719030010B500241A
:107BB00000F024F80348044B84604360FFF7CAFFD9
:107BC000204610BD801F0020CD7B000013B5064C61
:107BD00023780093054B1B8829F00AFF10B92378FE
:107BE0000133237002B010BD693C00205A490020C7
:107BF000014B1880002070475A49002008B5074BF8
:107C00001A6842B9012208201A6029F0C6FA04490C
:107C1000044802F077FB002008BD00BF941F00203D
:107C2000784400208C1F002030B51446054687B0EC
:107C3000104629F036FF6369024683423CBFD4E90F
:107C400003315B181B1A7BB10F4904940391002187
:107C5000CDE90131012300932846D4E9001329F02E
:107C6000A7FA002007B030BD0122627694F82D20DB
:107C7000002AF6D084F835301321E369204698476E
:107C80002046636A9847ECE7297C00002DE9F0471D
:107C900088B004460F461646984629F06DFA81468C
:107CA000002E7AD0237E03F0FF02002B00F0A2808A
:107CB000204629F0F6FE6569A84205D1637ED4E925
:107CC000033213445D1B01E0F9D9451BB54228BFBF
:107CD000354629F051FA94F82D308246002B6DD1AB
:107CE0002A463846616931F000FF63692E462B440D
:107CF000636121E0037803F0FD0111295BD1216B61
:107D0000814205D1A3F111014B424B4184F834303B
:107D1000013E6369216B01328B4203F1010308BF0D
:107D20002363636195426069E4D1D4E90323216B45
:107D30001344994200D122630025D4E903236169E9
:107D40001344994208BF6261207A6576FDF7FEFC14
:107D5000204629F0A6FE6369834232D1257694F845
:107D60002D30E568656103B125632046636A984755
:107D7000214B049403930023029323692A46019321
:107D80000123009363682168207A29F011FA207A90
:107D9000FDF7FCFC504629F0F5F94846C8F80060AC
:107DA00029F0F0F9D8F80030002B0CBF1B20002080
:107DB00008B0BDE8F08707F8013BAAE72E4600228D
:107DC000B0E70123207A23760DF11E01FDF746FD71
:107DD0009DF81E30002BDAD00DF11F01207AFDF73F
:107DE00015FD9DF81F100029D1D12246207AFFF7FA
:107DF0001BFFCCE71646D0E7297C00002DE9F041B7
:107E00000C461546064686B04022002120461F46F5
:107E100031F059FE95E8030000232A692376EB68C8
:107E200084E80300C4E904232A7DE36084F82C205D
:107E3000AA7D2363012384F8343084F835300C9B09
:107E400084F82D2023620D9BE76163620E9BA36281
:107E50002B7A84F836306B7A84F837302D4B3460C7
:107E600073602D4BB3602D4B33612D4B73612D4BE4
:107E7000F360FDF737FC38B12B4B984204D0102447
:107E8000204606B0BDE8F081002104F10800FDF7AE
:107E9000B1FB07460028F2D14FF00108234B3362B3
:107EA000234B84F83C80B361224BF3619DF8403052
:107EB00084F8390084F83B309DF83C30204684F843
:107EC0003A30697D84F8388029F028FE95F9090058
:107ED000FFF71EFE95F90900FFF70CFE164B049400
:107EE000CDE902732369CDE900836368E268216804
:107EF000207A29F05DF904460028C0D195F90800E0
:107F0000FFF706FE95F90800FFF7F4FD3046FFF78E
:107F100021FEB5E76D1B03008D7C0000911A030064
:107F2000971A0300C31A0300038000F06B1A0300C2
:107F30001D1B03009D1A0300297C00002DE9F04160
:107F40004FF001081C46574B86B00293564B0C9DD0
:107F50000193564B174600930A46CDE903882946FC
:107F6000534BFFF74BFF0646002840F092802368F2
:107F700004222B64237985F84430A17985F84610D2
:107F8000607985F84500237A85F84830E37985F8EB
:107F90004730A37A85F84A30637A85F84930237BE5
:107FA00085F84C30E37A85F84B304346FEF798FA73
:107FB00043460222217AE079FEF792FA3E70394672
:107FC0002068FEF7ADFC1421A27B3A4B03EB421074
:107FD000C0F8AC1594F806C061792E3203EB421359
:107FE00041EA0C415960227AE37943EA0243C0F83E
:107FF000BC3585F84D607B7E032B50D8DFE803F05D
:108000003A4D021D022385F84D3000230422217BC6
:10801000E07AFEF765FA41F2AC520221A37B5B01E4
:1080200003F1A04303F570339950217BE27A42EAD1
:10803000014241F2B8515A501CE0012785F84D30F9
:1080400002220023A17A607AFEF74AFAA17A627AC4
:10805000A37B42EA014241F2B4515B0103F1A04328
:1080600003F570335A500422236803F58053DA6510
:10807000002FCAD163792A6C85F84530A379052190
:1080800085F84630D36C206843F00403D36429F0AC
:108090001CF9304606B0BDE8F0810027CEE7232664
:1080A000F7E700BF9B1C03008F1C03001F1D03008C
:1080B000131D030000C0035013B5064C2378009332
:1080C000112329F095FC10B923780133237002B0F5
:1080D00010BD00BF6A3C002037B5FFF78FFD0125BA
:1080E0000E4C0F4A0F49206020230095082006F00F
:1080F000D7F80D4B204663600C4BA360FFF72AFDB9
:1081000029F02FF804462946284602F081F8204637
:1081100029F02BF8002003B030BD00BF981F0020CD
:108120006B3C00201A9D0300B9800000D11D0300A4
:108130001A2812D8102814D940F28523A0F1110270
:10814000D2B2D340DB070CD50122064B80F02000D1
:108150001A70054B18707D2003E0A0F17D03012B00
:10816000F2D97047923C0020913C0020F8B50E46B1
:108170001446204B00B3204A2049107000221A7088
:1081800022700A704FF6FF721D4B1A801B4D2B7820
:10819000EBB91B4F3046398829F088FE164A3880E3
:1081A0001378013BDBB213706BB901232B7030469F
:1081B000BDE8F840FFF7BCBF1A78002AE6D0187077
:1081C000104B1878F8BD237801332370EFE7012BAB
:1081D00005D102232B700A4B1888000AE8E7022B0E
:1081E00004D103232B70064B1878E1E7FF237E2090
:1081F0002370E7E7923C00208F3C0020903C002059
:108200009A320020913C00202DE9F047394E8846F3
:10821000337817465BB9384A1370384A1370384AB6
:108220001370384A13704FF6FF72374B1A807D284F
:1082300050D02DD8182851D01A2852D0314B2E4D5D
:108240001A78DFF8BC9080EA020400221A702B78BA
:10825000CD2B9CBF01332B702B78022B12D9DFF86A
:10826000A8A099F80000BAF8001029F01FFE2B789A
:10827000AAF80000CD2B9FBF99F80020023B88F898
:1082800000203B701D4B1A781C7089F8002006E016
:108290007E28D3D1184B1B781BB91A4A13702020A3
:1082A00011E0FF2B1FD0184A1188154A1078134A85
:1082B000127802EB0022914217D1022B17D9CE2B54
:1082C00034BF00207A20A0F1200253425341337082
:1082D000BDE8F08720220B4B1A70E0E7FF22064B27
:1082E000FAE77420EFE77720EDE77620EBE77920D7
:1082F000E9E700BF933C00208E3C00208C3C00202E
:108300008B3C00208D3C00209832002008B529F0DD
:108310007FFD4FF6FF73002818BF0346014A138004
:1083200008BD00BF9E32002010B5074C208850B118
:1083300029F06EFD2388C01A044B00B21B889842B6
:10834000B4BF0020012010BD9E3200209C320020CE
:108350004FF07E624FF6FF732DE9F041B2F84670A0
:10836000B2F84460154D9F4208BF4FF448679E42E3
:1083700008BF4FF4C8762C88DFF8448050B1640001
:108380002C802B88BB4215D92F800023A8F8003001
:10839000BDE8F081B8F80030002BF2D029F038FDAC
:1083A000B8F80030C4EBC404C01A80B204EB8004F7
:1083B000E408E5E7B34238BF2E80E6E79C320020B0
:1083C0009E32002008B529F023FD4FF07E634FF662
:1083D000FF72B3F85430934208BF4FF47A730344EA
:1083E00013F47F6FC3F3071208BFFF22014B1A700B
:1083F00008BD00BF943C002010B5084C237843B161
:1084000029F006FD2378C3EB10131B065CBF002385
:1084100023702078B0FA80F0400910BD943C002011
:1084200007B502F0F3FB6A4602F056FC18B145218D
:10843000034800F023FBDDE9000103B05DF804FB15
:10844000309D030008B502F013FB18B16D210248FE
:1084500000F014FB002008BD309D030008B500F0BB
:1084600059FA0D4A536A43F470235362EFF30883B9
:108470004FF0CD31094A043B93420AD229F0EBFD7B
:1084800000F098FCFFF7DEFFBDE808400448FEF767
:10849000C5BA43F80419EFE700ED00E00000002042
:1084A000E89B030007B5042200200DEB02012BF02E
:1084B000CFFF042803D0F621044800F0DFFA01982A
:1084C00000F024FC03B05DF804FB00BF309D030006
:1084D0001028034670B535D020D8032815D90020C0
:1084E00070BD032202231A491A4D0C680021C8B23C
:1084F0008442F4D955F8200028B1067A9E4202D170
:10850000467A9642ECD00131F1E7421E022A19D890
:10851000DFE802F0021B16000022E3E7A0F12002D0
:10852000032ADCD8213B022BF6D801A252F823F013
:108530003D85000041850000E38400000122D1E771
:108540000222CFE700220323CDE70122CBE700BFC1
:10855000489B030000440020082310B50A0A41404C
:108560000648C9B201F00104490804B14140013B89
:1085700013F0FF03F6D181EA020010BD2083B8EDAD
:108580002DE9F8430025134C134EDFF85480134FA8
:10859000DFF8509023780BB9BDE8F88322464146B6
:1085A000002056F8043B29F00FFA227823460134C4
:1085B000002AFAD15B7853B105F00303032B0CBFFB
:1085C00039464946002029F0FFF90135E2E73946EE
:1085D000F8E700BFC8A20300001000201EA103009E
:1085E0008F9D03008C9D030040F605226A4B2DE908
:1085F000F0411B8893420ED8B3F5206F0DD840F29E
:108600000252934218D040F20172934220D040F2BD
:10861000015293420AD0BDE8F081A3F602235F4CD9
:10862000032B1ED8DFE803F0376396B25C490020C5
:10863000BDE8F04129F0C8B900205A4929F0C4F931
:10864000564B1A6C0020BDE8F041574929F0BCB9DF
:10865000524A0020D2E92423BDE8F041534929F0D1
:10866000B3B90020524929F0AFF994F868309E0759
:1086700003D500204F4929F0A7F994F86B305D0627
:1086800003D500204C4929F09FF994F96B30002B59
:10869000C1DA4A49CBE70020494929F095F994F815
:1086A0006430980704D00020226C3F4929F08CF9EF
:1086B00094F96430002B04DA0020226F414929F03C
:1086C00083F900250126404FDFF80881626E06FA23
:1086D00005F3134207D057F8252013781BB1414604
:1086E000002029F071F90135082DEFD193E73749C2
:1086F000002029F069F92C490020226C29F064F946
:1087000094F86530590703D50020314929F05CF908
:1087100094F96530002B04DA0020226F294929F0F2
:1087200053F90825284E2B4F636EEB40DA0707D527
:1087300056F8252013781BB13946002029F044F95A
:108740000135102DF0D194F8640000287FF463AF58
:1087500021496DE72149002029F036F90020226CDB
:10876000114929F031F91025174E1A4F636EEB406D
:10877000DB0707D556F8252013781BB139460020B2
:1087800029F022F901351A2DF0D144E700201449CF
:1087900029F01AF9226C55E7A032002000100020C1
:1087A000999D0300D79D0300089E0300239E0300AC
:1087B0003F9E0300589E0300939E0300C79E030044
:1087C000049F03002A9F030018A70300519F030082
:1087D000699F0300489F0300B09F0300E19F0300CF
:1087E000FB9F03002DE9F04F3D4C85B0D4E90D32DD
:1087F000580748BF0026D4E9121B48BFB046D4F83A
:108800003CA05FBFD4F850808B469246354E54BF93
:10881000DFF8F890DFF8F89013F0080F324B334A86
:1088200018BF1A46B6EB08071FBF64237D0803FB79
:108830000B55B5FBF7F50CBF3D46ADB24B462C4989
:108840000020CDE9016ACDF80080BFB229F0BCF864
:108850002B460020CDE9009726491FFA8BF229F01C
:10886000B3F8B24501D8C24504D24A460020224995
:1088700029F0AAF8D4E91703184309D11F4929F0B0
:10888000A3F800201E4905B0BDE8F04F29F09CB8C0
:1088900000201C4929F098F8002501261A4FE26DA6
:1088A00006FA05F3134204D02A463946002029F07F
:1088B0008BF80135202DF2D100250126124F226EB2
:1088C00006FA05F3134205D03946002005F12002CF
:1088D00029F07AF80135202DF1D100200849CEE7A2
:1088E00000100020001000202AA0030031A0030087
:1088F00039A003006BA00300A5A00300C4A00300DF
:108900001FA10300DAA003000AA1030025A00300B1
:108910001DA0030037B5FDF7F7FE054628F0C7FC9C
:10892000EB072ED4012319461A4601FA02F42C4013
:1089300003F1010327D0214B33F8124028F0C3FB89
:10894000062C83B21E4A4FEA104022D14FF20F018B
:1089500088421BD1B3F5406F28BF4FF4C06313802A
:108960004CF23C314FF00053598040F201731288B1
:108970009A4201BF134B144AD2E90001C3E9000136
:1089800017E00022D7E7102BCED1D7E74FF4C06312
:10899000E5E740F207218C420DD14FF20F018842EA
:1089A00009D1A34207D14FF000534CF23C3159801A
:1089B000148003B030BD1480D7E700BFA8A2030025
:1089C000A0320020A41F002090100020014B188826
:1089D000704700BFA0320020014B1888000A704782
:1089E000A0320020164B1888020A10F0FF00134630
:1089F00004D1012A23D143F080007047072BFAD815
:108A000001A252F823F000BF2D8A0000F789000070
:108A1000298A00003D8A00003D8A0000318A00005A
:108A2000358A0000398A00000920704718467047CF
:108A3000032070470B2070470620704702207047C4
:108A4000A0320020044B05481B881A0AB3F5406F7A
:108A500038BF00EB82007047A032002078A20300EC
:108A6000044B1888044B020A53F82230C0B203EBBF
:108A700080007047A032002048A2030038B50446A9
:108A80000D460B4602460749002028F09DFF00F0E6
:108A9000BFF928F06DFB29462046BDE8384029F093
:108AA00014BA00BF0EA103006D4A2DE9F0416D4BD1
:108AB00055686D4C5D65516A99656C49D1F8000245
:108AC000D865D1F80412586B1966916A10F0040F3A
:108AD0005966D16A4FF000009966116BD966516BE7
:108AE0001967D26BD8645A67D3E90E1218BF1146C2
:108AF0005F4A91421A655DD301F12000A04259D826
:108B00008869C5F308051864CE69062D5E6455D1E1
:108B1000584DA84252D3584DA8424FD205884DF621
:108B2000426085424AD11868C3F890005868C3F87B
:108B3000940040F20170A242154604D22E6804321D
:108B4000B6F1CD3FF7D00022C3E91E22C3E92022AF
:108B5000C3E92222641BDFF81CC1434DDFF818E192
:108B60009C648D422DD8D3E91EC7D3E92065D3E993
:108B700022414FF0000E013AD2B2FF2A3CD1BEF1A1
:108B8000000F05D0C3E91EC7C3E92065C3E9224130
:108B9000B3F85430C3F308030C2B3BD8022B54D941
:108BA000DA1E092A51D8DFE802F03157404350500D
:108BB0005050504D0021C3E910112D494FF4206051
:108BC000B9E755F8044D6445CBD37445C9D2E607DF
:108BD000C7D50026294F57F8048FA045C1D00136CC
:108BE000062EF8D132B1013AD2B202F11E0643F894
:108BF0002640B6E70522F8E7E0464FF0010EBC46F6
:108C000037462E4625460C464146B4E740F601203D
:108C1000BDE8F0813B2B18D1194B9B6913F0020F73
:108C200040F2025318BF1846F2E740F60320EFE780
:108C300040F2017240F60423B0F5206F14BF1046D5
:108C40001846E5E740F60520E2E740F60722013B3B
:108C50004B2B98BF1046DBE740F60220D8E700BF59
:108C600000ED00E0001000200010002000E100E016
:108C700000000020D0420000209B03007410002060
:108C80000080015A00F00CB800F00AB800F008B8F3
:108C900000F006B800F004B800F002B800F000B828
:108CA00072B61EF0080F09D01EF0040F0DD0DFF8C9
:108CB00050E0AEE8FF1F6FF002000CE0DFF840E08C
:108CC000AEE8FF1F6FF00E0005E0DFF834E0AEE81D
:108CD000FF1F6FF006006946EFF309828EE8070078
:108CE00086460848084C854501D3A54501D384F341
:108CF0000888FFF7D9FE84F3088829F0E8F8000017
:108D00000010002040000020001000204BF6EF6211
:108D100083B2002B08BF1346044A000C13804FF6A1
:108D2000CE2308BF1846024B188070475E490020CA
:108D30005C4900200B4BB3F900201888002AB8BF0B
:108D400080F0620042001A80074AB2F900101388CE
:108D50000029BCBF83F4805383F00B0359001180BA
:108D6000584070475E4900205C49002008B502F079
:108D700081F960B10A4B0344072B0DD8072B0BD8A0
:108D8000DFE803F00C060A080A0A0A045D2008BDA1
:108D90005A20FCE75B20FAE75C20F8E75920F6E769
:108DA000FF1FFF0F024B9A6903F500539A6170474A
:108DB0000080015A30B5144885B028F07EFD0023AC
:108DC000CDF80930CDF80130CDF8053001238DF80C
:108DD00000300D238DF80930032302250B4C694622
:108DE00020468DF80A3028F0A4FA2B20FEF790FEDA
:108DF00004F500532B209D61FEF77CFE04F58054A2
:108E0000E56105B030BD00BF089D03000080015A38
:108E1000014828F07DBA00BF0080015A10B5054C0A
:108E2000204628F0BBFA2046BDE81040002128F07B
:108E300060BA00BF0080015A024B586800F0010080
:108E4000704700BF0080015A10B5094A137813F02B
:108E500002040CD10749084809780078884206D0F6
:108E6000064863F07D03048005481370017010BD4F
:108E7000623D0020693D0020673D00209E320020B9
:108E8000663D0020054B064A19881288914202BFB0
:108E90000121044A117000221A807047AC32002070
:108EA000AA320020603D002007B50346009102224F
:108EB0003D2003492CF013F803B05DF804FB00BF1C
:108EC0008DA7030007B5064B02221B783D200093B7
:108ED000044981232CF003F803B05DF804FB00BFC4
:108EE0006C3D00208DA7030038B50C4D0C4C2A7842
:108EF00023789A4200D138BD00210A482DF0D0FADB
:108F0000094B1B88834202BF0122084B1A70237849
:108F1000013303F007032370E9E700BF693D002038
:108F2000643D0020A4320020AA320020603D0020D1
:108F3000074B93F90030002B08DB064A137803F047
:108F40004101402904BF43F005031370704700BF7F
:108F50006C3D0020623D0020282307B5054A3D20D6
:108F6000CDE900320449702302222BF0B8FF03B090
:108F70005DF804FB3800E00F86A703007028034665
:108F800007B504D103B05DF804EBFFF7E5BF074A6E
:108F90003D20127806490192064A12780092022278
:108FA0002BF09DFF03B05DF804FB00BF613D002086
:108FB0008CA703006C3D002008B50A4812F0F4FBB2
:108FC000094812F0F1FB094812F0EEFB084812F0D4
:108FD000EBFB084812F0E8FBBDE80840064812F039
:108FE000E3BB00BFAC320020A8320020A632002034
:108FF000A4320020AA320020A232002008B5CA22E2
:10900000002104482DF0A8F90122034B1880034BDE
:109010001A7008BD963C0020AA320020603D002056
:1090200030B585B0FFF7EAFFFFF7F2FE4FF07E6341
:109030004FF6FF72B3F84C30214D934208BF4FF406
:109040007A732B8000231F4C2380FFF75FF9FFF713
:109050006BF90028FBD04FF07E634FF6FF72B3F838
:109060004230934208BF4FF4C8632B800023238013
:10907000FFF7B8FC431E144DDBB20A2B134C2870CB
:1090800018D840F2035222FA03F3DB0712D502226A
:10909000C1230290CDE900323D2084230C492BF0FE
:1090A0001EFFFF232B70D023237005B0BDE8304096
:1090B000FFF752BFFFF750FFA023237005B030BD6C
:1090C0009C3200209E3200206A3D0020623D00203C
:1090D0008BA7030037B504460D4612F05BFD02284E
:1090E00025D84FF48B711B48FFF7C8FC1A4B197831
:1090F00001F14003DBB2022B1FD901F0A003A02B2A
:1091000004D00B0619D57E20FFF7CEFE4FF07E630C
:10911000B3F8403013B1204628F001FFB5B100226A
:1091200021460E4803B0BDE830402DF04DB9204631
:1091300012F030FDCA28D4D8D8E7CDE90014842332
:1091400002223D2006492BF0CAFEDFE72A462146CF
:109150000448E7E791A703006E3D0020A8320020F5
:10916000E8A70300A63200202DE9F84FFFF7DCF84E
:10917000A84C48B32378580626D599074CBFA64B70
:10918000A64BA74A1B7812789A4232D00120FFF7EB
:10919000DFF87320FFF7F2FEA24A4FF6FF71137853
:1091A0000133DBB213704FF07E62B2F848208A427E
:1091B00008BF0322934219DD51229B4B72201A7083
:1091C000FFF7DCFE20232370984D994E94F9002080
:1091D0002378002A18DA13F030030ED01A2028F072
:1091E000BDFE237803F07F032370EFE7FFF72CFE2B
:1091F000EAE700228F4B1A80E6E72A78022AF0D1AC
:109200008C4A2B701380E9E72A78012A00F0F1805C
:109210000DD9931E012BD9D83178FF2900F01E817A
:10922000002940F0EE80844B19783246E7E09A0737
:1092300019D579497A4A794892F800C007780A78AE
:10924000ACEB0200BA1A02F0070200F007009042ED
:1092500098BF81F800C00A78BA4204D123F0020313
:109260002370FFF741FE237813F0300F1ED013F068
:10927000200F714F15D0C2233B706B4B187802231F
:109280007B702378B87023F03C0323700320012304
:1092900032462B70684B1978FEF768FF28F05EFEA7
:1092A00094E7C1233B70FFF79DFBE8E713F00C0840
:1092B0001FD0624F13F0040F39785F4B0FD0603925
:1092C000C9B280201970FFF7EFFD237803F0F30394
:1092D0003A7823705A4B1A7001231846D8E781F068
:1092E00080017E201970FFF7DFFD237803F0F7037C
:1092F000EEE79B0732D5DFF820A1524B9AF80070B9
:109300001B78DFF844B1FF1A27F036FF414681464B
:109310004D482DF053F8804607F00707B7B9484687
:1093200027F030FF494B4046A3F8008012F032FC92
:10933000424B9AF800201B78013043EA02133E4A60
:1093400043F008031370C0B20323A1E74146584617
:109350002DF08AF8013F8046FFB2DFE7304B4FF631
:10936000FF7019784FF07E63DB8F2C4F834208BF6C
:1093700005233A780B44013B521A5B1A02F00702AC
:1093800003F007039A42DFF8B48028DC30482DF060
:1093900010F8E0B92E482DF00CF801462C4B2D4862
:1093A000002908BF18462C4B002118602DF006F844
:1093B000264B188012F0EEFB3A7898F80030013016
:1093C00043EA02131C4AC0B21370022360E721482B
:1093D0002CF0EFFF18B9FFF70FF80028DAD1184B7F
:1093E0001A7898F800309A425ED0237843F0080348
:1093F000FAE63378FF2B4DD032460F49C95C002086
:109400004AE7124B0139C9B2188812F0CBFD014668
:109410000BE700BF623D0020663D0020673D002055
:10942000693D0020633D00206A3D00206B3D002027
:10943000953C00209E3200206E3D0020653D0020BE
:10944000683D0020643D0020A4320020A2320020AC
:10945000A8320020A6320020AC1F0020022A1CD116
:10946000124A00211378013303F007031370104BE5
:1094700018682DF015F80F4B002219880E482CF0B3
:10948000A3FF0E4B1B880BB9FEF740FF0C4B1A785D
:109490000C4B1A7000232B7098E60B4A137801339B
:1094A00003F007031370ECE7BDE8F88F673D002079
:1094B000AC1F0020A2320020A43200209E320020E7
:1094C000653D0020683D0020663D00202DE9F04FFD
:1094D0008046A44F85B00023DFF8B892A8F800308A
:1094E00099F8003013B93B70FFF7CCFCDFF8A8A265
:1094F0009D4E0DF10E0028F035FD272800F0A081CB
:109500003A469DF80E000DF10F013D78FEF77CFE06
:109510002028044630D070B1FFF7B4FC7A2804D874
:10952000732878D8272C00F08B814FF4AA718F48CC
:10953000FFF7A4FAD4E73B789D4205D0022B3FD831
:109540009DF80F208A4B5A55DFF824923B7899F802
:109550000010884CC02940F08380012B40F0CB8064
:10956000FFF7B0FCFFF7AEFC28F067FCFFF78AFCC2
:1095700023785806AFD4BBE03B789D42B9D0022B8C
:1095800004D89DF80F207A4B5A55B2E7032B1FD011
:10959000754B1888784B1B888342AAD112F0FAFACF
:1095A000DFF8C4B1C5B2691C5846C9B22DF023F822
:1095B00029469DF80F20BBF8000012F007FD20E0BF
:1095C000032B05D06C4B30881B888342BCD1E5E768
:1095D0009AF80030684D83B14FF0000B33880121B9
:1095E00028462B808AF800B02DF005F8012300935F
:1095F0005A462988614812F099FC30882B888342AA
:10960000CCD0202C3FF475AF7A2C8ED8732C02D896
:10961000002C87D198E7743C062C86D801A353F818
:1096200024F000BF419600002B95000049960000F1
:10963000559600002B950000599600005D9600009D
:109640007420FFF79BFC4BE77620FFF797FCFFF7B2
:109650006FFC45E77720F8E77920F6E77A20F4E712
:109660000E0607D4032B46D92678730645D4FFF798
:1096700009FC3DE001F0E002802A23D1012B3AD120
:109680007D20FFF711FCFFF7FDFB267871062FD533
:109690000225DFF808C13A4A99F800309CF800002A
:1096A000117803F0070BABEB000E091A0EF0070E52
:1096B00001F007018E4529D97820FFF75FFCFFF7FD
:1096C00037FC08E7A02A0BD1012B14D17F20FFF72C
:1096D000EBFBFFF7D7FB2678720609D50325D8E701
:1096E0007B20FFF74BFCFFF7CDFB23785D06E6D42C
:1096F00020232370EFE67C20F3E7224B1B78B3EBAB
:10970000111F01D0FFF7BEFB0125C2E7A5F1020A38
:1097100083451FFA8AFA0DD000211B488CF800B04F
:10972000017016F002004DD0184A1180184A1278C4
:109730005A4535D1BAF1010F39D9124999F80020AB
:109740000B78C2F3021098426FD10B4D2888002885
:1097500046D12620FFF7ECFBFFF710FC262005B0D2
:10976000BDE8F08F613D0020AA32002091A70300E0
:109770006C3D0020623D0020AC3200206D3D002099
:10978000673D0020653D0020633D00209E320020A3
:10979000663D0020933C0020603D0020693D002094
:1097A000FEF7B4FDBAF1010FC7D899F8003013F0F5
:1097B000080312D1234A1370032D7FF48CAEFFF7F8
:1097C00043FB88E6FEF7C4FD1F4A13785B4501D0D2
:1097D000FEF79CFDFFF788FBE4E7FEF7F3FDEBE700
:1097E000013303F007030B704FF07E63160742BF8F
:1097F000227842F008022270227822F005022270BC
:10980000B3F840300BB128F08AFB2B883D20019340
:1098100099F80030022200930C4985232BF05FFB5E
:109820002B880020A8F8003099E71207237802D58A
:1098300043F008035DE7DB073FF541AF75203CE7E8
:1098400027208CE7943C0020673D0020E8A7030018
:1098500008B50F4B1B780BB1002008BD0D4B1A78D3
:109860000D4B1B789A42F7D10FF026FF0028F3D159
:109870000A482CF09EFD0028EED009482CF099FDF6
:109880000028E9D0074B1878B0FA80F04009E4E7E7
:10989000933C0020683D0020653D0020A63200205A
:1098A000A83200206B3D0020F0B551B1002807DA46
:1098B0002D23B0F1004F137000D04042012100E091
:1098C000002100252C460E4F002357F8046B01E0C1
:1098D0006346801B864203F1010CF9D913F0FF03A4
:1098E00000D125B14D1C30335354E9B20125013468
:1098F000E4B2092CE8D130305054481CC0B2F0BD5D
:10990000F0A703002DE9F04F002495B02146029402
:1099100080461646A1464422274603A802AC9A4632
:10992000254630F0D0F8317859B9641BE4B22246AC
:1099300029460020C047002840F090803819C0B266
:109940008DE0252918D0B9F1000F19D104F8011BB9
:1099500012AB9C42C0F0D680641BE4B2294622467A
:109960000020C0470146002878D13C4448222846C0
:10997000E7B230F0A8F8C4E0B9F1000F00D1013629
:109980003278622A48D022D8252A3FD004D8002A2B
:10999000CBD04FF00009DBE7392A15D82F2AF8D9A8
:1099A000717801F0DF01582940F0DB80322A06F19E
:1099B000010940F0C380204604223AF8041B28F035
:1099C000E2FA04464E46E4E7582A17D0E1E7632A54
:1099D0006BD0A2F1640C5FFA8CFCBCF1140FD8D8E8
:1099E0000121614B01FA0CF919EA030040F08C8067
:1099F00019F4104960D1BCF1140FA9D120460222FC
:109A00001AF8041B28F0BFFA0446C2E7214601F801
:109A1000022B62700C46BCE74FF00009DAF8003008
:109A20000DF1480B0193DAF804300093009B99453F
:109A300002D10AF1080AACE7019B2046022213F882
:109A4000091028F0A0FA5845044612D3441BE4B28A
:109A5000294622460020C047014618B1002015B013
:109A6000BDE8F08F3C4448222846E7B230F02BF89E
:109A70002C46009B5A1E4A4584BF202204F8012B25
:109A80005C450FD3641BE4B2294622460020C04740
:109A900001460028E2D13C4448222846E7B230F093
:109AA00012F82C4609F10109C0E7534653F8042B7C
:109AB0009A4604F8012B6CE7D146641BE4B22246B7
:109AC000294659F804ABC04783460028C6D1014651
:109AD0003C4448222846E4B22FF0F5FF5FFA8BF3AE
